{
	"Exchange.sol": {
		"Exchange": {
			"abi": [
				{
					"inputs": [
						{
							"internalType": "address",
							"name": "_token",
							"type": "address"
						}
					],
					"stateMutability": "nonpayable",
					"type": "constructor"
				},
				{
					"anonymous": false,
					"inputs": [
						{
							"indexed": false,
							"internalType": "uint256",
							"name": "amountERC20TokenDeposited",
							"type": "uint256"
						},
						{
							"indexed": false,
							"internalType": "uint256",
							"name": "amountEthDeposited",
							"type": "uint256"
						},
						{
							"indexed": false,
							"internalType": "uint256",
							"name": "liquidityPositionsIssued",
							"type": "uint256"
						}
					],
					"name": "LiquidityProvided",
					"type": "event"
				},
				{
					"anonymous": false,
					"inputs": [
						{
							"indexed": false,
							"internalType": "uint256",
							"name": "amountERC20TokenWithdrew",
							"type": "uint256"
						},
						{
							"indexed": false,
							"internalType": "uint256",
							"name": "amountEthWithdrew",
							"type": "uint256"
						},
						{
							"indexed": false,
							"internalType": "uint256",
							"name": "liquidityPositionsBurned",
							"type": "uint256"
						}
					],
					"name": "LiquidityWithdrew",
					"type": "event"
				},
				{
					"anonymous": false,
					"inputs": [
						{
							"indexed": false,
							"internalType": "uint256",
							"name": "amountERC20TokenWithdrew",
							"type": "uint256"
						},
						{
							"indexed": false,
							"internalType": "uint256",
							"name": "amountEthDeposited",
							"type": "uint256"
						}
					],
					"name": "SwapForERC20Token",
					"type": "event"
				},
				{
					"anonymous": false,
					"inputs": [
						{
							"indexed": false,
							"internalType": "uint256",
							"name": "amountERC20TokenDeposited",
							"type": "uint256"
						},
						{
							"indexed": false,
							"internalType": "uint256",
							"name": "amountEthWithdrew",
							"type": "uint256"
						}
					],
					"name": "SwapForEth",
					"type": "event"
				},
				{
					"inputs": [],
					"name": "K",
					"outputs": [
						{
							"internalType": "uint256",
							"name": "",
							"type": "uint256"
						}
					],
					"stateMutability": "view",
					"type": "function"
				},
				{
					"inputs": [],
					"name": "contractERC20TokenBalance",
					"outputs": [
						{
							"internalType": "uint256",
							"name": "",
							"type": "uint256"
						}
					],
					"stateMutability": "view",
					"type": "function"
				},
				{
					"inputs": [],
					"name": "contractEthBalance",
					"outputs": [
						{
							"internalType": "uint256",
							"name": "",
							"type": "uint256"
						}
					],
					"stateMutability": "view",
					"type": "function"
				},
				{
					"inputs": [
						{
							"internalType": "uint256",
							"name": "_amountEth",
							"type": "uint256"
						}
					],
					"name": "estimateERC20TokenToProvide",
					"outputs": [
						{
							"internalType": "uint256",
							"name": "",
							"type": "uint256"
						}
					],
					"stateMutability": "view",
					"type": "function"
				},
				{
					"inputs": [
						{
							"internalType": "uint256",
							"name": "_amountERC20Token",
							"type": "uint256"
						}
					],
					"name": "estimateEthToProvide",
					"outputs": [
						{
							"internalType": "uint256",
							"name": "",
							"type": "uint256"
						}
					],
					"stateMutability": "view",
					"type": "function"
				},
				{
					"inputs": [
						{
							"internalType": "uint256",
							"name": "_amountEth",
							"type": "uint256"
						}
					],
					"name": "estimateSwapForERC20Token",
					"outputs": [
						{
							"internalType": "uint256",
							"name": "",
							"type": "uint256"
						}
					],
					"stateMutability": "view",
					"type": "function"
				},
				{
					"inputs": [
						{
							"internalType": "uint256",
							"name": "_amountERC20Token",
							"type": "uint256"
						}
					],
					"name": "estimateSwapForEth",
					"outputs": [
						{
							"internalType": "uint256",
							"name": "",
							"type": "uint256"
						}
					],
					"stateMutability": "view",
					"type": "function"
				},
				{
					"inputs": [],
					"name": "getMyLiquidityPositions",
					"outputs": [
						{
							"internalType": "uint256",
							"name": "",
							"type": "uint256"
						}
					],
					"stateMutability": "view",
					"type": "function"
				},
				{
					"inputs": [
						{
							"internalType": "address",
							"name": "",
							"type": "address"
						}
					],
					"name": "liquidityPositions",
					"outputs": [
						{
							"internalType": "uint256",
							"name": "",
							"type": "uint256"
						}
					],
					"stateMutability": "view",
					"type": "function"
				},
				{
					"inputs": [
						{
							"internalType": "uint256",
							"name": "_amountERC20Token",
							"type": "uint256"
						}
					],
					"name": "provideLiquidity",
					"outputs": [
						{
							"internalType": "uint256",
							"name": "",
							"type": "uint256"
						}
					],
					"stateMutability": "payable",
					"type": "function"
				},
				{
					"inputs": [],
					"name": "swapForERC20Token",
					"outputs": [
						{
							"internalType": "uint256",
							"name": "",
							"type": "uint256"
						}
					],
					"stateMutability": "payable",
					"type": "function"
				},
				{
					"inputs": [
						{
							"internalType": "uint256",
							"name": "_amountERC20Token",
							"type": "uint256"
						}
					],
					"name": "swapForEth",
					"outputs": [
						{
							"internalType": "uint256",
							"name": "",
							"type": "uint256"
						}
					],
					"stateMutability": "nonpayable",
					"type": "function"
				},
				{
					"inputs": [],
					"name": "token",
					"outputs": [
						{
							"internalType": "contract IERC20",
							"name": "",
							"type": "address"
						}
					],
					"stateMutability": "view",
					"type": "function"
				},
				{
					"inputs": [],
					"name": "totalLiquidityPositions",
					"outputs": [
						{
							"internalType": "uint256",
							"name": "",
							"type": "uint256"
						}
					],
					"stateMutability": "view",
					"type": "function"
				},
				{
					"inputs": [
						{
							"internalType": "uint256",
							"name": "_liquidityPositionsToBurn",
							"type": "uint256"
						}
					],
					"name": "withdrawLiquidity",
					"outputs": [
						{
							"internalType": "uint256",
							"name": "",
							"type": "uint256"
						},
						{
							"internalType": "uint256",
							"name": "",
							"type": "uint256"
						}
					],
					"stateMutability": "nonpayable",
					"type": "function"
				},
				{
					"stateMutability": "payable",
					"type": "receive"
				}
			],
			"devdoc": {
				"kind": "dev",
				"methods": {},
				"version": 1
			},
			"evm": {
				"assembly": "    /* \"Exchange.sol\":122:13061  contract Exchange {... */\n  mstore(0x40, 0xa0)\n    /* \"Exchange.sol\":613:680  constructor(address _token) {... */\n  callvalue\n  dup1\n  iszero\n  tag_1\n  jumpi\n  0x00\n  dup1\n  revert\ntag_1:\n  pop\n  mload(0x40)\n  sub(codesize, bytecodeSize)\n  dup1\n  bytecodeSize\n  dup4\n  codecopy\n  dup2\n  dup2\n  add\n  0x40\n  mstore\n  dup2\n  add\n  swap1\n  tag_2\n  swap2\n  swap1\n  tag_3\n  jump\t// in\ntag_2:\n    /* \"Exchange.sol\":666:672  _token */\n  dup1\n    /* \"Exchange.sol\":651:673  token = IERC20(_token) */\n  0xffffffffffffffffffffffffffffffffffffffff\n  and\n  0x80\n  dup2\n  0xffffffffffffffffffffffffffffffffffffffff\n  and\n  dup2\n  mstore\n  pop\n  pop\n    /* \"Exchange.sol\":613:680  constructor(address _token) {... */\n  pop\n    /* \"Exchange.sol\":122:13061  contract Exchange {... */\n  jump(tag_6)\n    /* \"#utility.yul\":88:205   */\ntag_8:\n    /* \"#utility.yul\":197:198   */\n  0x00\n    /* \"#utility.yul\":194:195   */\n  dup1\n    /* \"#utility.yul\":187:199   */\n  revert\n    /* \"#utility.yul\":334:460   */\ntag_10:\n    /* \"#utility.yul\":371:378   */\n  0x00\n    /* \"#utility.yul\":411:453   */\n  0xffffffffffffffffffffffffffffffffffffffff\n    /* \"#utility.yul\":404:409   */\n  dup3\n    /* \"#utility.yul\":400:454   */\n  and\n    /* \"#utility.yul\":389:454   */\n  swap1\n  pop\n    /* \"#utility.yul\":334:460   */\n  swap2\n  swap1\n  pop\n  jump\t// out\n    /* \"#utility.yul\":466:562   */\ntag_11:\n    /* \"#utility.yul\":503:510   */\n  0x00\n    /* \"#utility.yul\":532:556   */\n  tag_20\n    /* \"#utility.yul\":550:555   */\n  dup3\n    /* \"#utility.yul\":532:556   */\n  tag_10\n  jump\t// in\ntag_20:\n    /* \"#utility.yul\":521:556   */\n  swap1\n  pop\n    /* \"#utility.yul\":466:562   */\n  swap2\n  swap1\n  pop\n  jump\t// out\n    /* \"#utility.yul\":568:690   */\ntag_12:\n    /* \"#utility.yul\":641:665   */\n  tag_22\n    /* \"#utility.yul\":659:664   */\n  dup2\n    /* \"#utility.yul\":641:665   */\n  tag_11\n  jump\t// in\ntag_22:\n    /* \"#utility.yul\":634:639   */\n  dup2\n    /* \"#utility.yul\":631:666   */\n  eq\n    /* \"#utility.yul\":621:684   */\n  tag_23\n  jumpi\n    /* \"#utility.yul\":680:681   */\n  0x00\n    /* \"#utility.yul\":677:678   */\n  dup1\n    /* \"#utility.yul\":670:682   */\n  revert\n    /* \"#utility.yul\":621:684   */\ntag_23:\n    /* \"#utility.yul\":568:690   */\n  pop\n  jump\t// out\n    /* \"#utility.yul\":696:839   */\ntag_13:\n    /* \"#utility.yul\":753:758   */\n  0x00\n    /* \"#utility.yul\":784:790   */\n  dup2\n    /* \"#utility.yul\":778:791   */\n  mload\n    /* \"#utility.yul\":769:791   */\n  swap1\n  pop\n    /* \"#utility.yul\":800:833   */\n  tag_25\n    /* \"#utility.yul\":827:832   */\n  dup2\n    /* \"#utility.yul\":800:833   */\n  tag_12\n  jump\t// in\ntag_25:\n    /* \"#utility.yul\":696:839   */\n  swap3\n  swap2\n  pop\n  pop\n  jump\t// out\n    /* \"#utility.yul\":845:1196   */\ntag_3:\n    /* \"#utility.yul\":915:921   */\n  0x00\n    /* \"#utility.yul\":964:966   */\n  0x20\n    /* \"#utility.yul\":952:961   */\n  dup3\n    /* \"#utility.yul\":943:950   */\n  dup5\n    /* \"#utility.yul\":939:962   */\n  sub\n    /* \"#utility.yul\":935:967   */\n  slt\n    /* \"#utility.yul\":932:1051   */\n  iszero\n  tag_27\n  jumpi\n    /* \"#utility.yul\":970:1049   */\n  tag_28\n  tag_8\n  jump\t// in\ntag_28:\n    /* \"#utility.yul\":932:1051   */\ntag_27:\n    /* \"#utility.yul\":1090:1091   */\n  0x00\n    /* \"#utility.yul\":1115:1179   */\n  tag_29\n    /* \"#utility.yul\":1171:1178   */\n  dup5\n    /* \"#utility.yul\":1162:1168   */\n  dup3\n    /* \"#utility.yul\":1151:1160   */\n  dup6\n    /* \"#utility.yul\":1147:1169   */\n  add\n    /* \"#utility.yul\":1115:1179   */\n  tag_13\n  jump\t// in\ntag_29:\n    /* \"#utility.yul\":1105:1179   */\n  swap2\n  pop\n    /* \"#utility.yul\":1061:1189   */\n  pop\n    /* \"#utility.yul\":845:1196   */\n  swap3\n  swap2\n  pop\n  pop\n  jump\t// out\n    /* \"Exchange.sol\":122:13061  contract Exchange {... */\ntag_6:\n  mload(0x80)\n  codecopy(0x00, dataOffset(sub_0), dataSize(sub_0))\n  0x00\n  assignImmutable(\"0x043ab7193d962ca510e48770a5a13714f4684febe0e5affcfd1eb73cfed1f218\")\n  return(0x00, dataSize(sub_0))\nstop\n\nsub_0: assembly {\n        /* \"Exchange.sol\":122:13061  contract Exchange {... */\n      mstore(0x40, 0x80)\n      jumpi(tag_1, lt(calldatasize, 0x04))\n      shr(0xe0, calldataload(0x00))\n      dup1\n      0x903875f7\n      gt\n      tag_18\n      jumpi\n      dup1\n      0xe0ba2000\n      gt\n      tag_19\n      jumpi\n      dup1\n      0xe0ba2000\n      eq\n      tag_14\n      jumpi\n      dup1\n      0xeb521a4c\n      eq\n      tag_15\n      jumpi\n      dup1\n      0xed7bf868\n      eq\n      tag_16\n      jumpi\n      dup1\n      0xfc0c546a\n      eq\n      tag_17\n      jumpi\n      jump(tag_2)\n    tag_19:\n      dup1\n      0x903875f7\n      eq\n      tag_10\n      jumpi\n      dup1\n      0xa932492f\n      eq\n      tag_11\n      jumpi\n      dup1\n      0xc8ab8325\n      eq\n      tag_12\n      jumpi\n      dup1\n      0xc9691034\n      eq\n      tag_13\n      jumpi\n      jump(tag_2)\n    tag_18:\n      dup1\n      0x29cbab3e\n      gt\n      tag_20\n      jumpi\n      dup1\n      0x29cbab3e\n      eq\n      tag_6\n      jumpi\n      dup1\n      0x5d58ce36\n      eq\n      tag_7\n      jumpi\n      dup1\n      0x6fd0ea92\n      eq\n      tag_8\n      jumpi\n      dup1\n      0x79ed3562\n      eq\n      tag_9\n      jumpi\n      jump(tag_2)\n    tag_20:\n      dup1\n      0x0a861f2a\n      eq\n      tag_3\n      jumpi\n      dup1\n      0x1cde6226\n      eq\n      tag_4\n      jumpi\n      dup1\n      0x240f3dea\n      eq\n      tag_5\n      jumpi\n      jump(tag_2)\n    tag_1:\n      jumpi(tag_2, calldatasize)\n      stop\n    tag_2:\n      0x00\n      dup1\n      revert\n        /* \"Exchange.sol\":6632:8434  function withdrawLiquidity(uint _liquidityPositionsToBurn) public returns (uint, uint){... */\n    tag_3:\n      callvalue\n      dup1\n      iszero\n      tag_23\n      jumpi\n      0x00\n      dup1\n      revert\n    tag_23:\n      pop\n      tag_24\n      0x04\n      dup1\n      calldatasize\n      sub\n      dup2\n      add\n      swap1\n      tag_25\n      swap2\n      swap1\n      tag_26\n      jump\t// in\n    tag_25:\n      tag_27\n      jump\t// in\n    tag_24:\n      mload(0x40)\n      tag_28\n      swap3\n      swap2\n      swap1\n      tag_29\n      jump\t// in\n    tag_28:\n      mload(0x40)\n      dup1\n      swap2\n      sub\n      swap1\n      return\n        /* \"Exchange.sol\":290:325  uint public totalLiquidityPositions */\n    tag_4:\n      callvalue\n      dup1\n      iszero\n      tag_30\n      jumpi\n      0x00\n      dup1\n      revert\n    tag_30:\n      pop\n      tag_31\n      tag_32\n      jump\t// in\n    tag_31:\n      mload(0x40)\n      tag_33\n      swap2\n      swap1\n      tag_34\n      jump\t// in\n    tag_33:\n      mload(0x40)\n      dup1\n      swap2\n      sub\n      swap1\n      return\n        /* \"Exchange.sol\":4354:4606  function estimateEthToProvide(uint _amountERC20Token) public view returns (uint) {... */\n    tag_5:\n      callvalue\n      dup1\n      iszero\n      tag_35\n      jumpi\n      0x00\n      dup1\n      revert\n    tag_35:\n      pop\n      tag_36\n      0x04\n      dup1\n      calldatasize\n      sub\n      dup2\n      add\n      swap1\n      tag_37\n      swap2\n      swap1\n      tag_26\n      jump\t// in\n    tag_37:\n      tag_38\n      jump\t// in\n    tag_36:\n      mload(0x40)\n      tag_39\n      swap2\n      swap1\n      tag_34\n      jump\t// in\n    tag_39:\n      mload(0x40)\n      dup1\n      swap2\n      sub\n      swap1\n      return\n        /* \"Exchange.sol\":11095:12183  function swapForERC20Token() public payable returns (uint) {... */\n    tag_6:\n      tag_40\n      tag_41\n      jump\t// in\n    tag_40:\n      mload(0x40)\n      tag_42\n      swap2\n      swap1\n      tag_34\n      jump\t// in\n    tag_42:\n      mload(0x40)\n      dup1\n      swap2\n      sub\n      swap1\n      return\n        /* \"Exchange.sol\":240:270  uint public contractEthBalance */\n    tag_7:\n      callvalue\n      dup1\n      iszero\n      tag_43\n      jumpi\n      0x00\n      dup1\n      revert\n    tag_43:\n      pop\n      tag_44\n      tag_45\n      jump\t// in\n    tag_44:\n      mload(0x40)\n      tag_46\n      swap2\n      swap1\n      tag_34\n      jump\t// in\n    tag_46:\n      mload(0x40)\n      dup1\n      swap2\n      sub\n      swap1\n      return\n        /* \"Exchange.sol\":331:381  mapping(address => uint) public liquidityPositions */\n    tag_8:\n      callvalue\n      dup1\n      iszero\n      tag_47\n      jumpi\n      0x00\n      dup1\n      revert\n    tag_47:\n      pop\n      tag_48\n      0x04\n      dup1\n      calldatasize\n      sub\n      dup2\n      add\n      swap1\n      tag_49\n      swap2\n      swap1\n      tag_50\n      jump\t// in\n    tag_49:\n      tag_51\n      jump\t// in\n    tag_48:\n      mload(0x40)\n      tag_52\n      swap2\n      swap1\n      tag_34\n      jump\t// in\n    tag_52:\n      mload(0x40)\n      dup1\n      swap2\n      sub\n      swap1\n      return\n        /* \"Exchange.sol\":12684:13058  function estimateSwapForERC20Token(uint _amountEth) public view returns (uint) {... */\n    tag_9:\n      callvalue\n      dup1\n      iszero\n      tag_53\n      jumpi\n      0x00\n      dup1\n      revert\n    tag_53:\n      pop\n      tag_54\n      0x04\n      dup1\n      calldatasize\n      sub\n      dup2\n      add\n      swap1\n      tag_55\n      swap2\n      swap1\n      tag_26\n      jump\t// in\n    tag_55:\n      tag_56\n      jump\t// in\n    tag_54:\n      mload(0x40)\n      tag_57\n      swap2\n      swap1\n      tag_34\n      jump\t// in\n    tag_57:\n      mload(0x40)\n      dup1\n      swap2\n      sub\n      swap1\n      return\n        /* \"Exchange.sol\":10280:10647  function estimateSwapForEth(uint _amountERC20Token) public view returns (uint) {... */\n    tag_10:\n      callvalue\n      dup1\n      iszero\n      tag_58\n      jumpi\n      0x00\n      dup1\n      revert\n    tag_58:\n      pop\n      tag_59\n      0x04\n      dup1\n      calldatasize\n      sub\n      dup2\n      add\n      swap1\n      tag_60\n      swap2\n      swap1\n      tag_26\n      jump\t// in\n    tag_60:\n      tag_61\n      jump\t// in\n    tag_59:\n      mload(0x40)\n      tag_62\n      swap2\n      swap1\n      tag_34\n      jump\t// in\n    tag_62:\n      mload(0x40)\n      dup1\n      swap2\n      sub\n      swap1\n      return\n        /* \"Exchange.sol\":575:588  uint public K */\n    tag_11:\n      callvalue\n      dup1\n      iszero\n      tag_63\n      jumpi\n      0x00\n      dup1\n      revert\n    tag_63:\n      pop\n      tag_64\n      tag_65\n      jump\t// in\n    tag_64:\n      mload(0x40)\n      tag_66\n      swap2\n      swap1\n      tag_34\n      jump\t// in\n    tag_66:\n      mload(0x40)\n      dup1\n      swap2\n      sub\n      swap1\n      return\n        /* \"Exchange.sol\":8847:9839  function swapForEth(uint _amountERC20Token) public returns (uint) {... */\n    tag_12:\n      callvalue\n      dup1\n      iszero\n      tag_67\n      jumpi\n      0x00\n      dup1\n      revert\n    tag_67:\n      pop\n      tag_68\n      0x04\n      dup1\n      calldatasize\n      sub\n      dup2\n      add\n      swap1\n      tag_69\n      swap2\n      swap1\n      tag_26\n      jump\t// in\n    tag_69:\n      tag_70\n      jump\t// in\n    tag_68:\n      mload(0x40)\n      tag_71\n      swap2\n      swap1\n      tag_34\n      jump\t// in\n    tag_71:\n      mload(0x40)\n      dup1\n      swap2\n      sub\n      swap1\n      return\n        /* \"Exchange.sol\":197:234  uint public contractERC20TokenBalance */\n    tag_13:\n      callvalue\n      dup1\n      iszero\n      tag_72\n      jumpi\n      0x00\n      dup1\n      revert\n    tag_72:\n      pop\n      tag_73\n      tag_74\n      jump\t// in\n    tag_73:\n      mload(0x40)\n      tag_75\n      swap2\n      swap1\n      tag_34\n      jump\t// in\n    tag_75:\n      mload(0x40)\n      dup1\n      swap2\n      sub\n      swap1\n      return\n        /* \"Exchange.sol\":5650:5766  function getMyLiquidityPositions() public view returns (uint) {... */\n    tag_14:\n      callvalue\n      dup1\n      iszero\n      tag_76\n      jumpi\n      0x00\n      dup1\n      revert\n    tag_76:\n      pop\n      tag_77\n      tag_78\n      jump\t// in\n    tag_77:\n      mload(0x40)\n      tag_79\n      swap2\n      swap1\n      tag_34\n      jump\t// in\n    tag_79:\n      mload(0x40)\n      dup1\n      swap2\n      sub\n      swap1\n      return\n        /* \"Exchange.sol\":2119:3791  function provideLiquidity(uint _amountERC20Token) public payable returns (uint){... */\n    tag_15:\n      tag_80\n      0x04\n      dup1\n      calldatasize\n      sub\n      dup2\n      add\n      swap1\n      tag_81\n      swap2\n      swap1\n      tag_26\n      jump\t// in\n    tag_81:\n      tag_82\n      jump\t// in\n    tag_80:\n      mload(0x40)\n      tag_83\n      swap2\n      swap1\n      tag_34\n      jump\t// in\n    tag_83:\n      mload(0x40)\n      dup1\n      swap2\n      sub\n      swap1\n      return\n        /* \"Exchange.sol\":5154:5385  function estimateERC20TokenToProvide(uint _amountEth) public view returns (uint) {... */\n    tag_16:\n      callvalue\n      dup1\n      iszero\n      tag_84\n      jumpi\n      0x00\n      dup1\n      revert\n    tag_84:\n      pop\n      tag_85\n      0x04\n      dup1\n      calldatasize\n      sub\n      dup2\n      add\n      swap1\n      tag_86\n      swap2\n      swap1\n      tag_26\n      jump\t// in\n    tag_86:\n      tag_87\n      jump\t// in\n    tag_85:\n      mload(0x40)\n      tag_88\n      swap2\n      swap1\n      tag_34\n      jump\t// in\n    tag_88:\n      mload(0x40)\n      dup1\n      swap2\n      sub\n      swap1\n      return\n        /* \"Exchange.sol\":147:176  IERC20 public immutable token */\n    tag_17:\n      callvalue\n      dup1\n      iszero\n      tag_89\n      jumpi\n      0x00\n      dup1\n      revert\n    tag_89:\n      pop\n      tag_90\n      tag_91\n      jump\t// in\n    tag_90:\n      mload(0x40)\n      tag_92\n      swap2\n      swap1\n      tag_93\n      jump\t// in\n    tag_92:\n      mload(0x40)\n      dup1\n      swap2\n      sub\n      swap1\n      return\n        /* \"Exchange.sol\":6632:8434  function withdrawLiquidity(uint _liquidityPositionsToBurn) public returns (uint, uint){... */\n    tag_27:\n        /* \"Exchange.sol\":6707:6711  uint */\n      0x00\n        /* \"Exchange.sol\":6713:6717  uint */\n      dup1\n        /* \"Exchange.sol\":6791:6813  uint amountERC20ToSend */\n      0x00\n        /* \"Exchange.sol\":6872:6895  totalLiquidityPositions */\n      sload(0x02)\n        /* \"Exchange.sol\":6844:6869  contractERC20TokenBalance */\n      sload(0x00)\n        /* \"Exchange.sol\":6816:6841  _liquidityPositionsToBurn */\n      dup6\n        /* \"Exchange.sol\":6816:6869  _liquidityPositionsToBurn * contractERC20TokenBalance */\n      tag_95\n      swap2\n      swap1\n      tag_96\n      jump\t// in\n    tag_95:\n        /* \"Exchange.sol\":6816:6895  _liquidityPositionsToBurn * contractERC20TokenBalance / totalLiquidityPositions */\n      tag_97\n      swap2\n      swap1\n      tag_98\n      jump\t// in\n    tag_97:\n        /* \"Exchange.sol\":6791:6895  uint amountERC20ToSend = _liquidityPositionsToBurn * contractERC20TokenBalance / totalLiquidityPositions */\n      swap1\n      pop\n        /* \"Exchange.sol\":6905:6925  uint amountEthToSend */\n      0x00\n        /* \"Exchange.sol\":6977:7000  totalLiquidityPositions */\n      sload(0x02)\n        /* \"Exchange.sol\":6956:6974  contractEthBalance */\n      sload(0x01)\n        /* \"Exchange.sol\":6928:6953  _liquidityPositionsToBurn */\n      dup7\n        /* \"Exchange.sol\":6928:6974  _liquidityPositionsToBurn * contractEthBalance */\n      tag_99\n      swap2\n      swap1\n      tag_96\n      jump\t// in\n    tag_99:\n        /* \"Exchange.sol\":6928:7000  _liquidityPositionsToBurn * contractEthBalance / totalLiquidityPositions */\n      tag_100\n      swap2\n      swap1\n      tag_98\n      jump\t// in\n    tag_100:\n        /* \"Exchange.sol\":6905:7000  uint amountEthToSend = _liquidityPositionsToBurn * contractEthBalance / totalLiquidityPositions */\n      swap1\n      pop\n        /* \"Exchange.sol\":7109:7127  liquidityPositions */\n      0x03\n        /* \"Exchange.sol\":7109:7139  liquidityPositions[msg.sender] */\n      0x00\n        /* \"Exchange.sol\":7128:7138  msg.sender */\n      caller\n        /* \"Exchange.sol\":7109:7139  liquidityPositions[msg.sender] */\n      0xffffffffffffffffffffffffffffffffffffffff\n      and\n      0xffffffffffffffffffffffffffffffffffffffff\n      and\n      dup2\n      mstore\n      0x20\n      add\n      swap1\n      dup2\n      mstore\n      0x20\n      add\n      0x00\n      keccak256\n      sload\n        /* \"Exchange.sol\":7080:7105  _liquidityPositionsToBurn */\n      dup6\n        /* \"Exchange.sol\":7080:7139  _liquidityPositionsToBurn <= liquidityPositions[msg.sender] */\n      gt\n      iszero\n        /* \"Exchange.sol\":7072:7195  require(_liquidityPositionsToBurn <= liquidityPositions[msg.sender], \"Can't give up more liquidity positions than you own\") */\n      tag_101\n      jumpi\n      mload(0x40)\n      0x08c379a000000000000000000000000000000000000000000000000000000000\n      dup2\n      mstore\n      0x04\n      add\n      tag_102\n      swap1\n      tag_103\n      jump\t// in\n    tag_102:\n      mload(0x40)\n      dup1\n      swap2\n      sub\n      swap1\n      revert\n    tag_101:\n        /* \"Exchange.sol\":7303:7326  totalLiquidityPositions */\n      sload(0x02)\n        /* \"Exchange.sol\":7275:7300  _liquidityPositionsToBurn */\n      dup6\n        /* \"Exchange.sol\":7275:7326  _liquidityPositionsToBurn < totalLiquidityPositions */\n      lt\n        /* \"Exchange.sol\":7267:7384  require(_liquidityPositionsToBurn < totalLiquidityPositions, \"Can't give up all the liquidity positions in the pool\") */\n      tag_104\n      jumpi\n      mload(0x40)\n      0x08c379a000000000000000000000000000000000000000000000000000000000\n      dup2\n      mstore\n      0x04\n      add\n      tag_105\n      swap1\n      tag_106\n      jump\t// in\n    tag_105:\n      mload(0x40)\n      dup1\n      swap2\n      sub\n      swap1\n      revert\n    tag_104:\n        /* \"Exchange.sol\":7495:7520  _liquidityPositionsToBurn */\n      dup5\n        /* \"Exchange.sol\":7461:7479  liquidityPositions */\n      0x03\n        /* \"Exchange.sol\":7461:7491  liquidityPositions[msg.sender] */\n      0x00\n        /* \"Exchange.sol\":7480:7490  msg.sender */\n      caller\n        /* \"Exchange.sol\":7461:7491  liquidityPositions[msg.sender] */\n      0xffffffffffffffffffffffffffffffffffffffff\n      and\n      0xffffffffffffffffffffffffffffffffffffffff\n      and\n      dup2\n      mstore\n      0x20\n      add\n      swap1\n      dup2\n      mstore\n      0x20\n      add\n      0x00\n      keccak256\n      0x00\n        /* \"Exchange.sol\":7461:7520  liquidityPositions[msg.sender] -= _liquidityPositionsToBurn */\n      dup3\n      dup3\n      sload\n      tag_107\n      swap2\n      swap1\n      tag_108\n      jump\t// in\n    tag_107:\n      swap3\n      pop\n      pop\n      dup2\n      swap1\n      sstore\n      pop\n        /* \"Exchange.sol\":7557:7582  _liquidityPositionsToBurn */\n      dup5\n        /* \"Exchange.sol\":7530:7553  totalLiquidityPositions */\n      0x02\n      0x00\n        /* \"Exchange.sol\":7530:7582  totalLiquidityPositions -= _liquidityPositionsToBurn */\n      dup3\n      dup3\n      sload\n      tag_109\n      swap2\n      swap1\n      tag_108\n      jump\t// in\n    tag_109:\n      swap3\n      pop\n      pop\n      dup2\n      swap1\n      sstore\n      pop\n        /* \"Exchange.sol\":7653:7658  token */\n      immutable(\"0x043ab7193d962ca510e48770a5a13714f4684febe0e5affcfd1eb73cfed1f218\")\n        /* \"Exchange.sol\":7653:7667  token.transfer */\n      0xffffffffffffffffffffffffffffffffffffffff\n      and\n      0xa9059cbb\n        /* \"Exchange.sol\":7668:7678  msg.sender */\n      caller\n        /* \"Exchange.sol\":7680:7697  amountERC20ToSend */\n      dup5\n        /* \"Exchange.sol\":7653:7698  token.transfer(msg.sender, amountERC20ToSend) */\n      mload(0x40)\n      dup4\n      0xffffffff\n      and\n      0xe0\n      shl\n      dup2\n      mstore\n      0x04\n      add\n      tag_110\n      swap3\n      swap2\n      swap1\n      tag_111\n      jump\t// in\n    tag_110:\n      0x20\n      mload(0x40)\n      dup1\n      dup4\n      sub\n      dup2\n      0x00\n      dup8\n      gas\n      call\n      iszero\n      dup1\n      iszero\n      tag_113\n      jumpi\n      returndatasize\n      0x00\n      dup1\n      returndatacopy\n      revert(0x00, returndatasize)\n    tag_113:\n      pop\n      pop\n      pop\n      pop\n      mload(0x40)\n      returndatasize\n      not(0x1f)\n      0x1f\n      dup3\n      add\n      and\n      dup3\n      add\n      dup1\n      0x40\n      mstore\n      pop\n      dup2\n      add\n      swap1\n      tag_114\n      swap2\n      swap1\n      tag_115\n      jump\t// in\n    tag_114:\n      pop\n        /* \"Exchange.sol\":7709:7718  bool sent */\n      0x00\n        /* \"Exchange.sol\":7732:7742  msg.sender */\n      caller\n        /* \"Exchange.sol\":7724:7748  payable(msg.sender).call */\n      0xffffffffffffffffffffffffffffffffffffffff\n      and\n        /* \"Exchange.sol\":7756:7771  amountEthToSend */\n      dup3\n        /* \"Exchange.sol\":7724:7776  payable(msg.sender).call{value: amountEthToSend}(\"\") */\n      mload(0x40)\n      tag_116\n      swap1\n      tag_117\n      jump\t// in\n    tag_116:\n      0x00\n      mload(0x40)\n      dup1\n      dup4\n      sub\n      dup2\n      dup6\n      dup8\n      gas\n      call\n      swap3\n      pop\n      pop\n      pop\n      returndatasize\n      dup1\n      0x00\n      dup2\n      eq\n      tag_120\n      jumpi\n      mload(0x40)\n      swap2\n      pop\n      and(add(returndatasize, 0x3f), not(0x1f))\n      dup3\n      add\n      0x40\n      mstore\n      returndatasize\n      dup3\n      mstore\n      returndatasize\n      0x00\n      0x20\n      dup5\n      add\n      returndatacopy\n      jump(tag_119)\n    tag_120:\n      0x60\n      swap2\n      pop\n    tag_119:\n      pop\n        /* \"Exchange.sol\":7708:7776  (bool sent, ) = payable(msg.sender).call{value: amountEthToSend}(\"\") */\n      pop\n      swap1\n      pop\n        /* \"Exchange.sol\":7794:7798  sent */\n      dup1\n        /* \"Exchange.sol\":7786:7823  require(sent, \"failed to send Ether\") */\n      tag_121\n      jumpi\n      mload(0x40)\n      0x08c379a000000000000000000000000000000000000000000000000000000000\n      dup2\n      mstore\n      0x04\n      add\n      tag_122\n      swap1\n      tag_123\n      jump\t// in\n    tag_122:\n      mload(0x40)\n      dup1\n      swap2\n      sub\n      swap1\n      revert\n    tag_121:\n        /* \"Exchange.sol\":7899:7916  amountERC20ToSend */\n      dup3\n        /* \"Exchange.sol\":7870:7895  contractERC20TokenBalance */\n      0x00\n      dup1\n        /* \"Exchange.sol\":7870:7916  contractERC20TokenBalance -= amountERC20ToSend */\n      dup3\n      dup3\n      sload\n      tag_124\n      swap2\n      swap1\n      tag_108\n      jump\t// in\n    tag_124:\n      swap3\n      pop\n      pop\n      dup2\n      swap1\n      sstore\n      pop\n        /* \"Exchange.sol\":7948:7963  amountEthToSend */\n      dup2\n        /* \"Exchange.sol\":7926:7944  contractEthBalance */\n      0x01\n      0x00\n        /* \"Exchange.sol\":7926:7963  contractEthBalance -= amountEthToSend */\n      dup3\n      dup3\n      sload\n      tag_125\n      swap2\n      swap1\n      tag_108\n      jump\t// in\n    tag_125:\n      swap3\n      pop\n      pop\n      dup2\n      swap1\n      sstore\n      pop\n        /* \"Exchange.sol\":8019:8044  contractERC20TokenBalance */\n      sload(0x00)\n        /* \"Exchange.sol\":7998:8016  contractEthBalance */\n      sload(0x01)\n        /* \"Exchange.sol\":7998:8044  contractEthBalance * contractERC20TokenBalance */\n      tag_126\n      swap2\n      swap1\n      tag_96\n      jump\t// in\n    tag_126:\n        /* \"Exchange.sol\":7994:7995  K */\n      0x04\n        /* \"Exchange.sol\":7994:8044  K = contractEthBalance * contractERC20TokenBalance */\n      dup2\n      swap1\n      sstore\n      pop\n        /* \"Exchange.sol\":8221:8302  LiquidityWithdrew(amountERC20ToSend, amountEthToSend , _liquidityPositionsToBurn) */\n      0xb14f451e613015c13a17c78777f1d87fcb448d7330d67299a09b8f2db38aab10\n        /* \"Exchange.sol\":8239:8256  amountERC20ToSend */\n      dup4\n        /* \"Exchange.sol\":8258:8273  amountEthToSend */\n      dup4\n        /* \"Exchange.sol\":8276:8301  _liquidityPositionsToBurn */\n      dup9\n        /* \"Exchange.sol\":8221:8302  LiquidityWithdrew(amountERC20ToSend, amountEthToSend , _liquidityPositionsToBurn) */\n      mload(0x40)\n      tag_127\n      swap4\n      swap3\n      swap2\n      swap1\n      tag_128\n      jump\t// in\n    tag_127:\n      mload(0x40)\n      dup1\n      swap2\n      sub\n      swap1\n      log1\n        /* \"Exchange.sol\":8392:8409  amountERC20ToSend */\n      dup3\n        /* \"Exchange.sol\":8411:8426  amountEthToSend */\n      dup3\n        /* \"Exchange.sol\":8384:8427  return (amountERC20ToSend, amountEthToSend) */\n      swap5\n      pop\n      swap5\n      pop\n      pop\n      pop\n      pop\n        /* \"Exchange.sol\":6632:8434  function withdrawLiquidity(uint _liquidityPositionsToBurn) public returns (uint, uint){... */\n      swap2\n      pop\n      swap2\n      jump\t// out\n        /* \"Exchange.sol\":290:325  uint public totalLiquidityPositions */\n    tag_32:\n      sload(0x02)\n      dup2\n      jump\t// out\n        /* \"Exchange.sol\":4354:4606  function estimateEthToProvide(uint _amountERC20Token) public view returns (uint) {... */\n    tag_38:\n        /* \"Exchange.sol\":4429:4433  uint */\n      0x00\n        /* \"Exchange.sol\":4481:4482  0 */\n      dup1\n        /* \"Exchange.sol\":4453:4478  contractERC20TokenBalance */\n      sload(0x00)\n        /* \"Exchange.sol\":4453:4482  contractERC20TokenBalance > 0 */\n      gt\n        /* \"Exchange.sol\":4445:4516  require(contractERC20TokenBalance > 0, \"contractERC20TokenBalance = 0\") */\n      tag_130\n      jumpi\n      mload(0x40)\n      0x08c379a000000000000000000000000000000000000000000000000000000000\n      dup2\n      mstore\n      0x04\n      add\n      tag_131\n      swap1\n      tag_132\n      jump\t// in\n    tag_131:\n      mload(0x40)\n      dup1\n      swap2\n      sub\n      swap1\n      revert\n    tag_130:\n        /* \"Exchange.sol\":4574:4599  contractERC20TokenBalance */\n      sload(0x00)\n        /* \"Exchange.sol\":4554:4571  _amountERC20Token */\n      dup3\n        /* \"Exchange.sol\":4533:4551  contractEthBalance */\n      sload(0x01)\n        /* \"Exchange.sol\":4533:4571  contractEthBalance * _amountERC20Token */\n      tag_133\n      swap2\n      swap1\n      tag_96\n      jump\t// in\n    tag_133:\n        /* \"Exchange.sol\":4533:4599  contractEthBalance * _amountERC20Token / contractERC20TokenBalance */\n      tag_134\n      swap2\n      swap1\n      tag_98\n      jump\t// in\n    tag_134:\n        /* \"Exchange.sol\":4526:4599  return contractEthBalance * _amountERC20Token / contractERC20TokenBalance */\n      swap1\n      pop\n        /* \"Exchange.sol\":4354:4606  function estimateEthToProvide(uint _amountERC20Token) public view returns (uint) {... */\n      swap2\n      swap1\n      pop\n      jump\t// out\n        /* \"Exchange.sol\":11095:12183  function swapForERC20Token() public payable returns (uint) {... */\n    tag_41:\n        /* \"Exchange.sol\":11148:11152  uint */\n      0x00\n        /* \"Exchange.sol\":11164:11179  uint _amountEth */\n      dup1\n        /* \"Exchange.sol\":11182:11191  msg.value */\n      callvalue\n        /* \"Exchange.sol\":11164:11191  uint _amountEth = msg.value */\n      swap1\n      pop\n        /* \"Exchange.sol\":11222:11223  0 */\n      0x00\n        /* \"Exchange.sol\":11209:11219  _amountEth */\n      dup2\n        /* \"Exchange.sol\":11209:11223  _amountEth > 0 */\n      gt\n        /* \"Exchange.sol\":11201:11245  require(_amountEth > 0, \"Eth msg.value = 0\") */\n      tag_136\n      jumpi\n      mload(0x40)\n      0x08c379a000000000000000000000000000000000000000000000000000000000\n      dup2\n      mstore\n      0x04\n      add\n      tag_137\n      swap1\n      tag_138\n      jump\t// in\n    tag_137:\n      mload(0x40)\n      dup1\n      swap2\n      sub\n      swap1\n      revert\n    tag_136:\n        /* \"Exchange.sol\":11300:11332  uint contractEthBalanceAfterSwap */\n      0x00\n        /* \"Exchange.sol\":11356:11366  _amountEth */\n      dup2\n        /* \"Exchange.sol\":11335:11353  contractEthBalance */\n      sload(0x01)\n        /* \"Exchange.sol\":11335:11366  contractEthBalance + _amountEth */\n      tag_139\n      swap2\n      swap1\n      tag_140\n      jump\t// in\n    tag_139:\n        /* \"Exchange.sol\":11300:11366  uint contractEthBalanceAfterSwap = contractEthBalance + _amountEth */\n      swap1\n      pop\n        /* \"Exchange.sol\":11376:11415  uint contractERC20TokenBalanceAfterSwap */\n      0x00\n        /* \"Exchange.sol\":11422:11449  contractEthBalanceAfterSwap */\n      dup2\n        /* \"Exchange.sol\":11418:11419  K */\n      sload(0x04)\n        /* \"Exchange.sol\":11418:11449  K / contractEthBalanceAfterSwap */\n      tag_141\n      swap2\n      swap1\n      tag_98\n      jump\t// in\n    tag_141:\n        /* \"Exchange.sol\":11376:11449  uint contractERC20TokenBalanceAfterSwap = K / contractEthBalanceAfterSwap */\n      swap1\n      pop\n        /* \"Exchange.sol\":11459:11480  uint ERC20TokenToSend */\n      0x00\n        /* \"Exchange.sol\":11511:11545  contractERC20TokenBalanceAfterSwap */\n      dup2\n        /* \"Exchange.sol\":11483:11508  contractERC20TokenBalance */\n      sload(0x00)\n        /* \"Exchange.sol\":11483:11545  contractERC20TokenBalance - contractERC20TokenBalanceAfterSwap */\n      tag_142\n      swap2\n      swap1\n      tag_108\n      jump\t// in\n    tag_142:\n        /* \"Exchange.sol\":11459:11545  uint ERC20TokenToSend = contractERC20TokenBalance - contractERC20TokenBalanceAfterSwap */\n      swap1\n      pop\n        /* \"Exchange.sol\":11606:11615  bool sent */\n      0x00\n        /* \"Exchange.sol\":11637:11641  this */\n      address\n        /* \"Exchange.sol\":11621:11648  payable(address(this)).call */\n      0xffffffffffffffffffffffffffffffffffffffff\n      and\n        /* \"Exchange.sol\":11656:11666  _amountEth */\n      dup6\n        /* \"Exchange.sol\":11621:11671  payable(address(this)).call{value: _amountEth}(\"\") */\n      mload(0x40)\n      tag_143\n      swap1\n      tag_117\n      jump\t// in\n    tag_143:\n      0x00\n      mload(0x40)\n      dup1\n      dup4\n      sub\n      dup2\n      dup6\n      dup8\n      gas\n      call\n      swap3\n      pop\n      pop\n      pop\n      returndatasize\n      dup1\n      0x00\n      dup2\n      eq\n      tag_146\n      jumpi\n      mload(0x40)\n      swap2\n      pop\n      and(add(returndatasize, 0x3f), not(0x1f))\n      dup3\n      add\n      0x40\n      mstore\n      returndatasize\n      dup3\n      mstore\n      returndatasize\n      0x00\n      0x20\n      dup5\n      add\n      returndatacopy\n      jump(tag_145)\n    tag_146:\n      0x60\n      swap2\n      pop\n    tag_145:\n      pop\n        /* \"Exchange.sol\":11605:11671  (bool sent, ) = payable(address(this)).call{value: _amountEth}(\"\") */\n      pop\n      swap1\n      pop\n        /* \"Exchange.sol\":11689:11693  sent */\n      dup1\n        /* \"Exchange.sol\":11681:11718  require(sent, \"Failed to send Ether\") */\n      tag_147\n      jumpi\n      mload(0x40)\n      0x08c379a000000000000000000000000000000000000000000000000000000000\n      dup2\n      mstore\n      0x04\n      add\n      tag_148\n      swap1\n      tag_149\n      jump\t// in\n    tag_148:\n      mload(0x40)\n      dup1\n      swap2\n      sub\n      swap1\n      revert\n    tag_147:\n        /* \"Exchange.sol\":11785:11790  token */\n      immutable(\"0x043ab7193d962ca510e48770a5a13714f4684febe0e5affcfd1eb73cfed1f218\")\n        /* \"Exchange.sol\":11785:11799  token.transfer */\n      0xffffffffffffffffffffffffffffffffffffffff\n      and\n      0xa9059cbb\n        /* \"Exchange.sol\":11800:11810  msg.sender */\n      caller\n        /* \"Exchange.sol\":11812:11828  ERC20TokenToSend */\n      dup5\n        /* \"Exchange.sol\":11785:11829  token.transfer(msg.sender, ERC20TokenToSend) */\n      mload(0x40)\n      dup4\n      0xffffffff\n      and\n      0xe0\n      shl\n      dup2\n      mstore\n      0x04\n      add\n      tag_150\n      swap3\n      swap2\n      swap1\n      tag_111\n      jump\t// in\n    tag_150:\n      0x20\n      mload(0x40)\n      dup1\n      dup4\n      sub\n      dup2\n      0x00\n      dup8\n      gas\n      call\n      iszero\n      dup1\n      iszero\n      tag_152\n      jumpi\n      returndatasize\n      0x00\n      dup1\n      returndatacopy\n      revert(0x00, returndatasize)\n    tag_152:\n      pop\n      pop\n      pop\n      pop\n      mload(0x40)\n      returndatasize\n      not(0x1f)\n      0x1f\n      dup3\n      add\n      and\n      dup3\n      add\n      dup1\n      0x40\n      mstore\n      pop\n      dup2\n      add\n      swap1\n      tag_153\n      swap2\n      swap1\n      tag_115\n      jump\t// in\n    tag_153:\n      pop\n        /* \"Exchange.sol\":11903:11937  contractERC20TokenBalanceAfterSwap */\n      dup3\n        /* \"Exchange.sol\":11875:11900  contractERC20TokenBalance */\n      0x00\n        /* \"Exchange.sol\":11875:11937  contractERC20TokenBalance = contractERC20TokenBalanceAfterSwap */\n      dup2\n      swap1\n      sstore\n      pop\n        /* \"Exchange.sol\":11968:11995  contractEthBalanceAfterSwap */\n      dup4\n        /* \"Exchange.sol\":11947:11965  contractEthBalance */\n      0x01\n        /* \"Exchange.sol\":11947:11995  contractEthBalance = contractEthBalanceAfterSwap */\n      dup2\n      swap1\n      sstore\n      pop\n        /* \"Exchange.sol\":12050:12097  SwapForERC20Token(ERC20TokenToSend, _amountEth) */\n      0xcdfc57b3d0cdc24b23cea1f480aabea287321f5bee23ad76c2b52fa7982f5ea5\n        /* \"Exchange.sol\":12068:12084  ERC20TokenToSend */\n      dup3\n        /* \"Exchange.sol\":12086:12096  _amountEth */\n      dup7\n        /* \"Exchange.sol\":12050:12097  SwapForERC20Token(ERC20TokenToSend, _amountEth) */\n      mload(0x40)\n      tag_154\n      swap3\n      swap2\n      swap1\n      tag_29\n      jump\t// in\n    tag_154:\n      mload(0x40)\n      dup1\n      swap2\n      sub\n      swap1\n      log1\n        /* \"Exchange.sol\":12160:12176  ERC20TokenToSend */\n      dup2\n        /* \"Exchange.sol\":12153:12176  return ERC20TokenToSend */\n      swap6\n      pop\n      pop\n      pop\n      pop\n      pop\n      pop\n        /* \"Exchange.sol\":11095:12183  function swapForERC20Token() public payable returns (uint) {... */\n      swap1\n      jump\t// out\n        /* \"Exchange.sol\":240:270  uint public contractEthBalance */\n    tag_45:\n      sload(0x01)\n      dup2\n      jump\t// out\n        /* \"Exchange.sol\":331:381  mapping(address => uint) public liquidityPositions */\n    tag_51:\n      mstore(0x20, 0x03)\n      dup1\n      0x00\n      mstore\n      keccak256(0x00, 0x40)\n      0x00\n      swap2\n      pop\n      swap1\n      pop\n      sload\n      dup2\n      jump\t// out\n        /* \"Exchange.sol\":12684:13058  function estimateSwapForERC20Token(uint _amountEth) public view returns (uint) {... */\n    tag_56:\n        /* \"Exchange.sol\":12757:12761  uint */\n      0x00\n        /* \"Exchange.sol\":12773:12805  uint contractEthBalanceAfterSwap */\n      dup1\n        /* \"Exchange.sol\":12829:12839  _amountEth */\n      dup3\n        /* \"Exchange.sol\":12808:12826  contractEthBalance */\n      sload(0x01)\n        /* \"Exchange.sol\":12808:12839  contractEthBalance + _amountEth */\n      tag_156\n      swap2\n      swap1\n      tag_140\n      jump\t// in\n    tag_156:\n        /* \"Exchange.sol\":12773:12839  uint contractEthBalanceAfterSwap = contractEthBalance + _amountEth */\n      swap1\n      pop\n        /* \"Exchange.sol\":12849:12888  uint contractERC20TokenBalanceAfterSwap */\n      0x00\n        /* \"Exchange.sol\":12895:12922  contractEthBalanceAfterSwap */\n      dup2\n        /* \"Exchange.sol\":12891:12892  K */\n      sload(0x04)\n        /* \"Exchange.sol\":12891:12922  K / contractEthBalanceAfterSwap */\n      tag_157\n      swap2\n      swap1\n      tag_98\n      jump\t// in\n    tag_157:\n        /* \"Exchange.sol\":12849:12922  uint contractERC20TokenBalanceAfterSwap = K / contractEthBalanceAfterSwap */\n      swap1\n      pop\n        /* \"Exchange.sol\":12932:12953  uint ERC20TokenToSend */\n      0x00\n        /* \"Exchange.sol\":12984:13018  contractERC20TokenBalanceAfterSwap */\n      dup2\n        /* \"Exchange.sol\":12956:12981  contractERC20TokenBalance */\n      sload(0x00)\n        /* \"Exchange.sol\":12956:13018  contractERC20TokenBalance - contractERC20TokenBalanceAfterSwap */\n      tag_158\n      swap2\n      swap1\n      tag_108\n      jump\t// in\n    tag_158:\n        /* \"Exchange.sol\":12932:13018  uint ERC20TokenToSend = contractERC20TokenBalance - contractERC20TokenBalanceAfterSwap */\n      swap1\n      pop\n        /* \"Exchange.sol\":13035:13051  ERC20TokenToSend */\n      dup1\n        /* \"Exchange.sol\":13028:13051  return ERC20TokenToSend */\n      swap4\n      pop\n      pop\n      pop\n      pop\n        /* \"Exchange.sol\":12684:13058  function estimateSwapForERC20Token(uint _amountEth) public view returns (uint) {... */\n      swap2\n      swap1\n      pop\n      jump\t// out\n        /* \"Exchange.sol\":10280:10647  function estimateSwapForEth(uint _amountERC20Token) public view returns (uint) {... */\n    tag_61:\n        /* \"Exchange.sol\":10353:10357  uint */\n      0x00\n        /* \"Exchange.sol\":10369:10408  uint contractERC20TokenBalanceAfterSwap */\n      dup1\n        /* \"Exchange.sol\":10439:10456  _amountERC20Token */\n      dup3\n        /* \"Exchange.sol\":10411:10436  contractERC20TokenBalance */\n      sload(0x00)\n        /* \"Exchange.sol\":10411:10456  contractERC20TokenBalance + _amountERC20Token */\n      tag_160\n      swap2\n      swap1\n      tag_140\n      jump\t// in\n    tag_160:\n        /* \"Exchange.sol\":10369:10456  uint contractERC20TokenBalanceAfterSwap = contractERC20TokenBalance + _amountERC20Token */\n      swap1\n      pop\n        /* \"Exchange.sol\":10466:10498  uint contractEthBalanceAfterSwap */\n      0x00\n        /* \"Exchange.sol\":10505:10539  contractERC20TokenBalanceAfterSwap */\n      dup2\n        /* \"Exchange.sol\":10501:10502  K */\n      sload(0x04)\n        /* \"Exchange.sol\":10501:10539  K / contractERC20TokenBalanceAfterSwap */\n      tag_161\n      swap2\n      swap1\n      tag_98\n      jump\t// in\n    tag_161:\n        /* \"Exchange.sol\":10466:10539  uint contractEthBalanceAfterSwap = K / contractERC20TokenBalanceAfterSwap */\n      swap1\n      pop\n        /* \"Exchange.sol\":10549:10563  uint ethToSend */\n      0x00\n        /* \"Exchange.sol\":10587:10614  contractEthBalanceAfterSwap */\n      dup2\n        /* \"Exchange.sol\":10566:10584  contractEthBalance */\n      sload(0x01)\n        /* \"Exchange.sol\":10566:10614  contractEthBalance - contractEthBalanceAfterSwap */\n      tag_162\n      swap2\n      swap1\n      tag_108\n      jump\t// in\n    tag_162:\n        /* \"Exchange.sol\":10549:10614  uint ethToSend = contractEthBalance - contractEthBalanceAfterSwap */\n      swap1\n      pop\n        /* \"Exchange.sol\":10631:10640  ethToSend */\n      dup1\n        /* \"Exchange.sol\":10624:10640  return ethToSend */\n      swap4\n      pop\n      pop\n      pop\n      pop\n        /* \"Exchange.sol\":10280:10647  function estimateSwapForEth(uint _amountERC20Token) public view returns (uint) {... */\n      swap2\n      swap1\n      pop\n      jump\t// out\n        /* \"Exchange.sol\":575:588  uint public K */\n    tag_65:\n      sload(0x04)\n      dup2\n      jump\t// out\n        /* \"Exchange.sol\":8847:9839  function swapForEth(uint _amountERC20Token) public returns (uint) {... */\n    tag_70:\n        /* \"Exchange.sol\":8907:8911  uint */\n      0x00\n        /* \"Exchange.sol\":8968:9007  uint contractERC20TokenBalanceAfterSwap */\n      dup1\n        /* \"Exchange.sol\":9038:9055  _amountERC20Token */\n      dup3\n        /* \"Exchange.sol\":9010:9035  contractERC20TokenBalance */\n      sload(0x00)\n        /* \"Exchange.sol\":9010:9055  contractERC20TokenBalance + _amountERC20Token */\n      tag_164\n      swap2\n      swap1\n      tag_140\n      jump\t// in\n    tag_164:\n        /* \"Exchange.sol\":8968:9055  uint contractERC20TokenBalanceAfterSwap = contractERC20TokenBalance + _amountERC20Token */\n      swap1\n      pop\n        /* \"Exchange.sol\":9065:9097  uint contractEthBalanceAfterSwap */\n      0x00\n        /* \"Exchange.sol\":9104:9138  contractERC20TokenBalanceAfterSwap */\n      dup2\n        /* \"Exchange.sol\":9100:9101  K */\n      sload(0x04)\n        /* \"Exchange.sol\":9100:9138  K / contractERC20TokenBalanceAfterSwap */\n      tag_165\n      swap2\n      swap1\n      tag_98\n      jump\t// in\n    tag_165:\n        /* \"Exchange.sol\":9065:9138  uint contractEthBalanceAfterSwap = K / contractERC20TokenBalanceAfterSwap */\n      swap1\n      pop\n        /* \"Exchange.sol\":9148:9162  uint ethToSend */\n      0x00\n        /* \"Exchange.sol\":9186:9213  contractEthBalanceAfterSwap */\n      dup2\n        /* \"Exchange.sol\":9165:9183  contractEthBalance */\n      sload(0x01)\n        /* \"Exchange.sol\":9165:9213  contractEthBalance - contractEthBalanceAfterSwap */\n      tag_166\n      swap2\n      swap1\n      tag_108\n      jump\t// in\n    tag_166:\n        /* \"Exchange.sol\":9148:9213  uint ethToSend = contractEthBalance - contractEthBalanceAfterSwap */\n      swap1\n      pop\n        /* \"Exchange.sol\":9280:9285  token */\n      immutable(\"0x043ab7193d962ca510e48770a5a13714f4684febe0e5affcfd1eb73cfed1f218\")\n        /* \"Exchange.sol\":9280:9298  token.transferFrom */\n      0xffffffffffffffffffffffffffffffffffffffff\n      and\n      0x23b872dd\n        /* \"Exchange.sol\":9299:9309  msg.sender */\n      caller\n        /* \"Exchange.sol\":9319:9323  this */\n      address\n        /* \"Exchange.sol\":9326:9343  _amountERC20Token */\n      dup9\n        /* \"Exchange.sol\":9280:9344  token.transferFrom(msg.sender, address(this), _amountERC20Token) */\n      mload(0x40)\n      dup5\n      0xffffffff\n      and\n      0xe0\n      shl\n      dup2\n      mstore\n      0x04\n      add\n      tag_167\n      swap4\n      swap3\n      swap2\n      swap1\n      tag_168\n      jump\t// in\n    tag_167:\n      0x20\n      mload(0x40)\n      dup1\n      dup4\n      sub\n      dup2\n      0x00\n      dup8\n      gas\n      call\n      iszero\n      dup1\n      iszero\n      tag_170\n      jumpi\n      returndatasize\n      0x00\n      dup1\n      returndatacopy\n      revert(0x00, returndatasize)\n    tag_170:\n      pop\n      pop\n      pop\n      pop\n      mload(0x40)\n      returndatasize\n      not(0x1f)\n      0x1f\n      dup3\n      add\n      and\n      dup3\n      add\n      dup1\n      0x40\n      mstore\n      pop\n      dup2\n      add\n      swap1\n      tag_171\n      swap2\n      swap1\n      tag_115\n      jump\t// in\n    tag_171:\n      pop\n        /* \"Exchange.sol\":9405:9414  bool sent */\n      0x00\n        /* \"Exchange.sol\":9428:9438  msg.sender */\n      caller\n        /* \"Exchange.sol\":9420:9444  payable(msg.sender).call */\n      0xffffffffffffffffffffffffffffffffffffffff\n      and\n        /* \"Exchange.sol\":9452:9461  ethToSend */\n      dup3\n        /* \"Exchange.sol\":9420:9466  payable(msg.sender).call{value: ethToSend}(\"\") */\n      mload(0x40)\n      tag_172\n      swap1\n      tag_117\n      jump\t// in\n    tag_172:\n      0x00\n      mload(0x40)\n      dup1\n      dup4\n      sub\n      dup2\n      dup6\n      dup8\n      gas\n      call\n      swap3\n      pop\n      pop\n      pop\n      returndatasize\n      dup1\n      0x00\n      dup2\n      eq\n      tag_175\n      jumpi\n      mload(0x40)\n      swap2\n      pop\n      and(add(returndatasize, 0x3f), not(0x1f))\n      dup3\n      add\n      0x40\n      mstore\n      returndatasize\n      dup3\n      mstore\n      returndatasize\n      0x00\n      0x20\n      dup5\n      add\n      returndatacopy\n      jump(tag_174)\n    tag_175:\n      0x60\n      swap2\n      pop\n    tag_174:\n      pop\n        /* \"Exchange.sol\":9404:9466  (bool sent, ) = payable(msg.sender).call{value: ethToSend}(\"\") */\n      pop\n      swap1\n      pop\n        /* \"Exchange.sol\":9484:9488  sent */\n      dup1\n        /* \"Exchange.sol\":9476:9513  require(sent, \"failed to send Ether\") */\n      tag_176\n      jumpi\n      mload(0x40)\n      0x08c379a000000000000000000000000000000000000000000000000000000000\n      dup2\n      mstore\n      0x04\n      add\n      tag_177\n      swap1\n      tag_123\n      jump\t// in\n    tag_177:\n      mload(0x40)\n      dup1\n      swap2\n      sub\n      swap1\n      revert\n    tag_176:\n        /* \"Exchange.sol\":9587:9621  contractERC20TokenBalanceAfterSwap */\n      dup4\n        /* \"Exchange.sol\":9559:9584  contractERC20TokenBalance */\n      0x00\n        /* \"Exchange.sol\":9559:9621  contractERC20TokenBalance = contractERC20TokenBalanceAfterSwap */\n      dup2\n      swap1\n      sstore\n      pop\n        /* \"Exchange.sol\":9652:9679  contractEthBalanceAfterSwap */\n      dup3\n        /* \"Exchange.sol\":9631:9649  contractEthBalance */\n      0x01\n        /* \"Exchange.sol\":9631:9679  contractEthBalance = contractEthBalanceAfterSwap */\n      dup2\n      swap1\n      sstore\n      pop\n        /* \"Exchange.sol\":9727:9767  SwapForEth(_amountERC20Token, ethToSend) */\n      0x3297a389bb586920e62a196af529d5f42651b17a1013d6bfe77f22372a0b2112\n        /* \"Exchange.sol\":9738:9755  _amountERC20Token */\n      dup7\n        /* \"Exchange.sol\":9757:9766  ethToSend */\n      dup4\n        /* \"Exchange.sol\":9727:9767  SwapForEth(_amountERC20Token, ethToSend) */\n      mload(0x40)\n      tag_178\n      swap3\n      swap2\n      swap1\n      tag_29\n      jump\t// in\n    tag_178:\n      mload(0x40)\n      dup1\n      swap2\n      sub\n      swap1\n      log1\n        /* \"Exchange.sol\":9823:9832  ethToSend */\n      dup2\n        /* \"Exchange.sol\":9816:9832  return ethToSend */\n      swap5\n      pop\n      pop\n      pop\n      pop\n      pop\n        /* \"Exchange.sol\":8847:9839  function swapForEth(uint _amountERC20Token) public returns (uint) {... */\n      swap2\n      swap1\n      pop\n      jump\t// out\n        /* \"Exchange.sol\":197:234  uint public contractERC20TokenBalance */\n    tag_74:\n      sload(0x00)\n      dup2\n      jump\t// out\n        /* \"Exchange.sol\":5650:5766  function getMyLiquidityPositions() public view returns (uint) {... */\n    tag_78:\n        /* \"Exchange.sol\":5706:5710  uint */\n      0x00\n        /* \"Exchange.sol\":5729:5747  liquidityPositions */\n      0x03\n        /* \"Exchange.sol\":5729:5759  liquidityPositions[msg.sender] */\n      0x00\n        /* \"Exchange.sol\":5748:5758  msg.sender */\n      caller\n        /* \"Exchange.sol\":5729:5759  liquidityPositions[msg.sender] */\n      0xffffffffffffffffffffffffffffffffffffffff\n      and\n      0xffffffffffffffffffffffffffffffffffffffff\n      and\n      dup2\n      mstore\n      0x20\n      add\n      swap1\n      dup2\n      mstore\n      0x20\n      add\n      0x00\n      keccak256\n      sload\n        /* \"Exchange.sol\":5722:5759  return liquidityPositions[msg.sender] */\n      swap1\n      pop\n        /* \"Exchange.sol\":5650:5766  function getMyLiquidityPositions() public view returns (uint) {... */\n      swap1\n      jump\t// out\n        /* \"Exchange.sol\":2119:3791  function provideLiquidity(uint _amountERC20Token) public payable returns (uint){... */\n    tag_82:\n        /* \"Exchange.sol\":2193:2197  uint */\n      0x00\n        /* \"Exchange.sol\":2275:2298  uint _liquidityProvided */\n      dup1\n        /* \"Exchange.sol\":2308:2323  uint _amountEth */\n      0x00\n        /* \"Exchange.sol\":2454:2455  0 */\n      dup1\n        /* \"Exchange.sol\":2427:2450  totalLiquidityPositions */\n      sload(0x02)\n        /* \"Exchange.sol\":2427:2455  totalLiquidityPositions == 0 */\n      sub\n        /* \"Exchange.sol\":2423:2882  if (totalLiquidityPositions == 0) {... */\n      tag_181\n      jumpi\n        /* \"Exchange.sol\":2492:2495  100 */\n      0x64\n        /* \"Exchange.sol\":2471:2495  _liquidityProvided = 100 */\n      swap2\n      pop\n        /* \"Exchange.sol\":2522:2531  msg.value */\n      callvalue\n        /* \"Exchange.sol\":2509:2531  _amountEth = msg.value */\n      swap1\n      pop\n        /* \"Exchange.sol\":2423:2882  if (totalLiquidityPositions == 0) {... */\n      jump(tag_182)\n    tag_181:\n        /* \"Exchange.sol\":2753:2778  contractERC20TokenBalance */\n      sload(0x00)\n        /* \"Exchange.sol\":2733:2750  _amountERC20Token */\n      dup5\n        /* \"Exchange.sol\":2707:2730  totalLiquidityPositions */\n      sload(0x02)\n        /* \"Exchange.sol\":2707:2750  totalLiquidityPositions * _amountERC20Token */\n      tag_183\n      swap2\n      swap1\n      tag_96\n      jump\t// in\n    tag_183:\n        /* \"Exchange.sol\":2707:2778  totalLiquidityPositions * _amountERC20Token / contractERC20TokenBalance */\n      tag_184\n      swap2\n      swap1\n      tag_98\n      jump\t// in\n    tag_184:\n        /* \"Exchange.sol\":2686:2778  _liquidityProvided = totalLiquidityPositions * _amountERC20Token / contractERC20TokenBalance */\n      swap2\n      pop\n        /* \"Exchange.sol\":2846:2871  contractERC20TokenBalance */\n      sload(0x00)\n        /* \"Exchange.sol\":2826:2843  _amountERC20Token */\n      dup5\n        /* \"Exchange.sol\":2805:2823  contractEthBalance */\n      sload(0x01)\n        /* \"Exchange.sol\":2805:2843  contractEthBalance * _amountERC20Token */\n      tag_185\n      swap2\n      swap1\n      tag_96\n      jump\t// in\n    tag_185:\n        /* \"Exchange.sol\":2805:2871  contractEthBalance * _amountERC20Token / contractERC20TokenBalance */\n      tag_186\n      swap2\n      swap1\n      tag_98\n      jump\t// in\n    tag_186:\n        /* \"Exchange.sol\":2792:2871  _amountEth = contractEthBalance * _amountERC20Token / contractERC20TokenBalance */\n      swap1\n      pop\n        /* \"Exchange.sol\":2423:2882  if (totalLiquidityPositions == 0) {... */\n    tag_182:\n        /* \"Exchange.sol\":2961:2966  token */\n      immutable(\"0x043ab7193d962ca510e48770a5a13714f4684febe0e5affcfd1eb73cfed1f218\")\n        /* \"Exchange.sol\":2961:2979  token.transferFrom */\n      0xffffffffffffffffffffffffffffffffffffffff\n      and\n      0x23b872dd\n        /* \"Exchange.sol\":2980:2990  msg.sender */\n      caller\n        /* \"Exchange.sol\":3000:3004  this */\n      address\n        /* \"Exchange.sol\":3007:3024  _amountERC20Token */\n      dup8\n        /* \"Exchange.sol\":2961:3025  token.transferFrom(msg.sender, address(this), _amountERC20Token) */\n      mload(0x40)\n      dup5\n      0xffffffff\n      and\n      0xe0\n      shl\n      dup2\n      mstore\n      0x04\n      add\n      tag_187\n      swap4\n      swap3\n      swap2\n      swap1\n      tag_168\n      jump\t// in\n    tag_187:\n      0x20\n      mload(0x40)\n      dup1\n      dup4\n      sub\n      dup2\n      0x00\n      dup8\n      gas\n      call\n      iszero\n      dup1\n      iszero\n      tag_189\n      jumpi\n      returndatasize\n      0x00\n      dup1\n      returndatacopy\n      revert(0x00, returndatasize)\n    tag_189:\n      pop\n      pop\n      pop\n      pop\n      mload(0x40)\n      returndatasize\n      not(0x1f)\n      0x1f\n      dup3\n      add\n      and\n      dup3\n      add\n      dup1\n      0x40\n      mstore\n      pop\n      dup2\n      add\n      swap1\n      tag_190\n      swap2\n      swap1\n      tag_115\n      jump\t// in\n    tag_190:\n      pop\n        /* \"Exchange.sol\":3036:3045  bool sent */\n      0x00\n        /* \"Exchange.sol\":3067:3071  this */\n      address\n        /* \"Exchange.sol\":3051:3078  payable(address(this)).call */\n      0xffffffffffffffffffffffffffffffffffffffff\n      and\n        /* \"Exchange.sol\":3086:3096  _amountEth */\n      dup3\n        /* \"Exchange.sol\":3051:3101  payable(address(this)).call{value: _amountEth}(\"\") */\n      mload(0x40)\n      tag_191\n      swap1\n      tag_117\n      jump\t// in\n    tag_191:\n      0x00\n      mload(0x40)\n      dup1\n      dup4\n      sub\n      dup2\n      dup6\n      dup8\n      gas\n      call\n      swap3\n      pop\n      pop\n      pop\n      returndatasize\n      dup1\n      0x00\n      dup2\n      eq\n      tag_194\n      jumpi\n      mload(0x40)\n      swap2\n      pop\n      and(add(returndatasize, 0x3f), not(0x1f))\n      dup3\n      add\n      0x40\n      mstore\n      returndatasize\n      dup3\n      mstore\n      returndatasize\n      0x00\n      0x20\n      dup5\n      add\n      returndatacopy\n      jump(tag_193)\n    tag_194:\n      0x60\n      swap2\n      pop\n    tag_193:\n      pop\n        /* \"Exchange.sol\":3035:3101  (bool sent, ) = payable(address(this)).call{value: _amountEth}(\"\") */\n      pop\n      swap1\n      pop\n        /* \"Exchange.sol\":3119:3123  sent */\n      dup1\n        /* \"Exchange.sol\":3111:3148  require(sent, \"Failed to send Ether\") */\n      tag_195\n      jumpi\n      mload(0x40)\n      0x08c379a000000000000000000000000000000000000000000000000000000000\n      dup2\n      mstore\n      0x04\n      add\n      tag_196\n      swap1\n      tag_149\n      jump\t// in\n    tag_196:\n      mload(0x40)\n      dup1\n      swap2\n      sub\n      swap1\n      revert\n    tag_195:\n        /* \"Exchange.sol\":3237:3255  _liquidityProvided */\n      dup3\n        /* \"Exchange.sol\":3203:3221  liquidityPositions */\n      0x03\n        /* \"Exchange.sol\":3203:3233  liquidityPositions[msg.sender] */\n      0x00\n        /* \"Exchange.sol\":3222:3232  msg.sender */\n      caller\n        /* \"Exchange.sol\":3203:3233  liquidityPositions[msg.sender] */\n      0xffffffffffffffffffffffffffffffffffffffff\n      and\n      0xffffffffffffffffffffffffffffffffffffffff\n      and\n      dup2\n      mstore\n      0x20\n      add\n      swap1\n      dup2\n      mstore\n      0x20\n      add\n      0x00\n      keccak256\n      0x00\n        /* \"Exchange.sol\":3203:3255  liquidityPositions[msg.sender] += _liquidityProvided */\n      dup3\n      dup3\n      sload\n      tag_197\n      swap2\n      swap1\n      tag_140\n      jump\t// in\n    tag_197:\n      swap3\n      pop\n      pop\n      dup2\n      swap1\n      sstore\n      pop\n        /* \"Exchange.sol\":3335:3353  _liquidityProvided */\n      dup3\n        /* \"Exchange.sol\":3308:3331  totalLiquidityPositions */\n      0x02\n      0x00\n        /* \"Exchange.sol\":3308:3353  totalLiquidityPositions += _liquidityProvided */\n      dup3\n      dup3\n      sload\n      tag_198\n      swap2\n      swap1\n      tag_140\n      jump\t// in\n    tag_198:\n      swap3\n      pop\n      pop\n      dup2\n      swap1\n      sstore\n      pop\n        /* \"Exchange.sol\":3429:3446  _amountERC20Token */\n      dup5\n        /* \"Exchange.sol\":3400:3425  contractERC20TokenBalance */\n      0x00\n      dup1\n        /* \"Exchange.sol\":3400:3446  contractERC20TokenBalance += _amountERC20Token */\n      dup3\n      dup3\n      sload\n      tag_199\n      swap2\n      swap1\n      tag_140\n      jump\t// in\n    tag_199:\n      swap3\n      pop\n      pop\n      dup2\n      swap1\n      sstore\n      pop\n        /* \"Exchange.sol\":3478:3488  _amountEth */\n      dup2\n        /* \"Exchange.sol\":3456:3474  contractEthBalance */\n      0x01\n      0x00\n        /* \"Exchange.sol\":3456:3488  contractEthBalance += _amountEth */\n      dup3\n      dup3\n      sload\n      tag_200\n      swap2\n      swap1\n      tag_140\n      jump\t// in\n    tag_200:\n      swap3\n      pop\n      pop\n      dup2\n      swap1\n      sstore\n      pop\n        /* \"Exchange.sol\":3544:3569  contractERC20TokenBalance */\n      sload(0x00)\n        /* \"Exchange.sol\":3523:3541  contractEthBalance */\n      sload(0x01)\n        /* \"Exchange.sol\":3523:3569  contractEthBalance * contractERC20TokenBalance */\n      tag_201\n      swap2\n      swap1\n      tag_96\n      jump\t// in\n    tag_201:\n        /* \"Exchange.sol\":3519:3520  K */\n      0x04\n        /* \"Exchange.sol\":3519:3569  K = contractEthBalance * contractERC20TokenBalance */\n      dup2\n      swap1\n      sstore\n      pop\n        /* \"Exchange.sol\":3625:3693  LiquidityProvided(_amountERC20Token, _amountEth, _liquidityProvided) */\n      0xaa58f006cc244b2af6662862508bd39465f57169ff8386d1d1f7b0b903150abc\n        /* \"Exchange.sol\":3643:3660  _amountERC20Token */\n      dup6\n        /* \"Exchange.sol\":3662:3672  _amountEth */\n      dup4\n        /* \"Exchange.sol\":3674:3692  _liquidityProvided */\n      dup6\n        /* \"Exchange.sol\":3625:3693  LiquidityProvided(_amountERC20Token, _amountEth, _liquidityProvided) */\n      mload(0x40)\n      tag_202\n      swap4\n      swap3\n      swap2\n      swap1\n      tag_128\n      jump\t// in\n    tag_202:\n      mload(0x40)\n      dup1\n      swap2\n      sub\n      swap1\n      log1\n        /* \"Exchange.sol\":3766:3784  _liquidityProvided */\n      dup3\n        /* \"Exchange.sol\":3759:3784  return _liquidityProvided */\n      swap4\n      pop\n      pop\n      pop\n      pop\n        /* \"Exchange.sol\":2119:3791  function provideLiquidity(uint _amountERC20Token) public payable returns (uint){... */\n      swap2\n      swap1\n      pop\n      jump\t// out\n        /* \"Exchange.sol\":5154:5385  function estimateERC20TokenToProvide(uint _amountEth) public view returns (uint) {... */\n    tag_87:\n        /* \"Exchange.sol\":5229:5233  uint */\n      0x00\n        /* \"Exchange.sol\":5274:5275  0 */\n      dup1\n        /* \"Exchange.sol\":5253:5271  contractEthBalance */\n      sload(0x01)\n        /* \"Exchange.sol\":5253:5275  contractEthBalance > 0 */\n      gt\n        /* \"Exchange.sol\":5245:5302  require(contractEthBalance > 0, \"contractEthBalance = 0\") */\n      tag_204\n      jumpi\n      mload(0x40)\n      0x08c379a000000000000000000000000000000000000000000000000000000000\n      dup2\n      mstore\n      0x04\n      add\n      tag_205\n      swap1\n      tag_206\n      jump\t// in\n    tag_205:\n      mload(0x40)\n      dup1\n      swap2\n      sub\n      swap1\n      revert\n    tag_204:\n        /* \"Exchange.sol\":5360:5378  contractEthBalance */\n      sload(0x01)\n        /* \"Exchange.sol\":5347:5357  _amountEth */\n      dup3\n        /* \"Exchange.sol\":5319:5344  contractERC20TokenBalance */\n      sload(0x00)\n        /* \"Exchange.sol\":5319:5357  contractERC20TokenBalance * _amountEth */\n      tag_207\n      swap2\n      swap1\n      tag_96\n      jump\t// in\n    tag_207:\n        /* \"Exchange.sol\":5319:5378  contractERC20TokenBalance * _amountEth / contractEthBalance */\n      tag_208\n      swap2\n      swap1\n      tag_98\n      jump\t// in\n    tag_208:\n        /* \"Exchange.sol\":5312:5378  return contractERC20TokenBalance * _amountEth / contractEthBalance */\n      swap1\n      pop\n        /* \"Exchange.sol\":5154:5385  function estimateERC20TokenToProvide(uint _amountEth) public view returns (uint) {... */\n      swap2\n      swap1\n      pop\n      jump\t// out\n        /* \"Exchange.sol\":147:176  IERC20 public immutable token */\n    tag_91:\n      immutable(\"0x043ab7193d962ca510e48770a5a13714f4684febe0e5affcfd1eb73cfed1f218\")\n      dup2\n      jump\t// out\n        /* \"#utility.yul\":88:205   */\n    tag_210:\n        /* \"#utility.yul\":197:198   */\n      0x00\n        /* \"#utility.yul\":194:195   */\n      dup1\n        /* \"#utility.yul\":187:199   */\n      revert\n        /* \"#utility.yul\":334:411   */\n    tag_212:\n        /* \"#utility.yul\":371:378   */\n      0x00\n        /* \"#utility.yul\":400:405   */\n      dup2\n        /* \"#utility.yul\":389:405   */\n      swap1\n      pop\n        /* \"#utility.yul\":334:411   */\n      swap2\n      swap1\n      pop\n      jump\t// out\n        /* \"#utility.yul\":417:539   */\n    tag_213:\n        /* \"#utility.yul\":490:514   */\n      tag_255\n        /* \"#utility.yul\":508:513   */\n      dup2\n        /* \"#utility.yul\":490:514   */\n      tag_212\n      jump\t// in\n    tag_255:\n        /* \"#utility.yul\":483:488   */\n      dup2\n        /* \"#utility.yul\":480:515   */\n      eq\n        /* \"#utility.yul\":470:533   */\n      tag_256\n      jumpi\n        /* \"#utility.yul\":529:530   */\n      0x00\n        /* \"#utility.yul\":526:527   */\n      dup1\n        /* \"#utility.yul\":519:531   */\n      revert\n        /* \"#utility.yul\":470:533   */\n    tag_256:\n        /* \"#utility.yul\":417:539   */\n      pop\n      jump\t// out\n        /* \"#utility.yul\":545:684   */\n    tag_214:\n        /* \"#utility.yul\":591:596   */\n      0x00\n        /* \"#utility.yul\":629:635   */\n      dup2\n        /* \"#utility.yul\":616:636   */\n      calldataload\n        /* \"#utility.yul\":607:636   */\n      swap1\n      pop\n        /* \"#utility.yul\":645:678   */\n      tag_258\n        /* \"#utility.yul\":672:677   */\n      dup2\n        /* \"#utility.yul\":645:678   */\n      tag_213\n      jump\t// in\n    tag_258:\n        /* \"#utility.yul\":545:684   */\n      swap3\n      swap2\n      pop\n      pop\n      jump\t// out\n        /* \"#utility.yul\":690:1019   */\n    tag_26:\n        /* \"#utility.yul\":749:755   */\n      0x00\n        /* \"#utility.yul\":798:800   */\n      0x20\n        /* \"#utility.yul\":786:795   */\n      dup3\n        /* \"#utility.yul\":777:784   */\n      dup5\n        /* \"#utility.yul\":773:796   */\n      sub\n        /* \"#utility.yul\":769:801   */\n      slt\n        /* \"#utility.yul\":766:885   */\n      iszero\n      tag_260\n      jumpi\n        /* \"#utility.yul\":804:883   */\n      tag_261\n      tag_210\n      jump\t// in\n    tag_261:\n        /* \"#utility.yul\":766:885   */\n    tag_260:\n        /* \"#utility.yul\":924:925   */\n      0x00\n        /* \"#utility.yul\":949:1002   */\n      tag_262\n        /* \"#utility.yul\":994:1001   */\n      dup5\n        /* \"#utility.yul\":985:991   */\n      dup3\n        /* \"#utility.yul\":974:983   */\n      dup6\n        /* \"#utility.yul\":970:992   */\n      add\n        /* \"#utility.yul\":949:1002   */\n      tag_214\n      jump\t// in\n    tag_262:\n        /* \"#utility.yul\":939:1002   */\n      swap2\n      pop\n        /* \"#utility.yul\":895:1012   */\n      pop\n        /* \"#utility.yul\":690:1019   */\n      swap3\n      swap2\n      pop\n      pop\n      jump\t// out\n        /* \"#utility.yul\":1025:1143   */\n    tag_215:\n        /* \"#utility.yul\":1112:1136   */\n      tag_264\n        /* \"#utility.yul\":1130:1135   */\n      dup2\n        /* \"#utility.yul\":1112:1136   */\n      tag_212\n      jump\t// in\n    tag_264:\n        /* \"#utility.yul\":1107:1110   */\n      dup3\n        /* \"#utility.yul\":1100:1137   */\n      mstore\n        /* \"#utility.yul\":1025:1143   */\n      pop\n      pop\n      jump\t// out\n        /* \"#utility.yul\":1149:1481   */\n    tag_29:\n        /* \"#utility.yul\":1270:1274   */\n      0x00\n        /* \"#utility.yul\":1308:1310   */\n      0x40\n        /* \"#utility.yul\":1297:1306   */\n      dup3\n        /* \"#utility.yul\":1293:1311   */\n      add\n        /* \"#utility.yul\":1285:1311   */\n      swap1\n      pop\n        /* \"#utility.yul\":1321:1392   */\n      tag_266\n        /* \"#utility.yul\":1389:1390   */\n      0x00\n        /* \"#utility.yul\":1378:1387   */\n      dup4\n        /* \"#utility.yul\":1374:1391   */\n      add\n        /* \"#utility.yul\":1365:1371   */\n      dup6\n        /* \"#utility.yul\":1321:1392   */\n      tag_215\n      jump\t// in\n    tag_266:\n        /* \"#utility.yul\":1402:1474   */\n      tag_267\n        /* \"#utility.yul\":1470:1472   */\n      0x20\n        /* \"#utility.yul\":1459:1468   */\n      dup4\n        /* \"#utility.yul\":1455:1473   */\n      add\n        /* \"#utility.yul\":1446:1452   */\n      dup5\n        /* \"#utility.yul\":1402:1474   */\n      tag_215\n      jump\t// in\n    tag_267:\n        /* \"#utility.yul\":1149:1481   */\n      swap4\n      swap3\n      pop\n      pop\n      pop\n      jump\t// out\n        /* \"#utility.yul\":1487:1709   */\n    tag_34:\n        /* \"#utility.yul\":1580:1584   */\n      0x00\n        /* \"#utility.yul\":1618:1620   */\n      0x20\n        /* \"#utility.yul\":1607:1616   */\n      dup3\n        /* \"#utility.yul\":1603:1621   */\n      add\n        /* \"#utility.yul\":1595:1621   */\n      swap1\n      pop\n        /* \"#utility.yul\":1631:1702   */\n      tag_269\n        /* \"#utility.yul\":1699:1700   */\n      0x00\n        /* \"#utility.yul\":1688:1697   */\n      dup4\n        /* \"#utility.yul\":1684:1701   */\n      add\n        /* \"#utility.yul\":1675:1681   */\n      dup5\n        /* \"#utility.yul\":1631:1702   */\n      tag_215\n      jump\t// in\n    tag_269:\n        /* \"#utility.yul\":1487:1709   */\n      swap3\n      swap2\n      pop\n      pop\n      jump\t// out\n        /* \"#utility.yul\":1715:1841   */\n    tag_216:\n        /* \"#utility.yul\":1752:1759   */\n      0x00\n        /* \"#utility.yul\":1792:1834   */\n      0xffffffffffffffffffffffffffffffffffffffff\n        /* \"#utility.yul\":1785:1790   */\n      dup3\n        /* \"#utility.yul\":1781:1835   */\n      and\n        /* \"#utility.yul\":1770:1835   */\n      swap1\n      pop\n        /* \"#utility.yul\":1715:1841   */\n      swap2\n      swap1\n      pop\n      jump\t// out\n        /* \"#utility.yul\":1847:1943   */\n    tag_217:\n        /* \"#utility.yul\":1884:1891   */\n      0x00\n        /* \"#utility.yul\":1913:1937   */\n      tag_272\n        /* \"#utility.yul\":1931:1936   */\n      dup3\n        /* \"#utility.yul\":1913:1937   */\n      tag_216\n      jump\t// in\n    tag_272:\n        /* \"#utility.yul\":1902:1937   */\n      swap1\n      pop\n        /* \"#utility.yul\":1847:1943   */\n      swap2\n      swap1\n      pop\n      jump\t// out\n        /* \"#utility.yul\":1949:2071   */\n    tag_218:\n        /* \"#utility.yul\":2022:2046   */\n      tag_274\n        /* \"#utility.yul\":2040:2045   */\n      dup2\n        /* \"#utility.yul\":2022:2046   */\n      tag_217\n      jump\t// in\n    tag_274:\n        /* \"#utility.yul\":2015:2020   */\n      dup2\n        /* \"#utility.yul\":2012:2047   */\n      eq\n        /* \"#utility.yul\":2002:2065   */\n      tag_275\n      jumpi\n        /* \"#utility.yul\":2061:2062   */\n      0x00\n        /* \"#utility.yul\":2058:2059   */\n      dup1\n        /* \"#utility.yul\":2051:2063   */\n      revert\n        /* \"#utility.yul\":2002:2065   */\n    tag_275:\n        /* \"#utility.yul\":1949:2071   */\n      pop\n      jump\t// out\n        /* \"#utility.yul\":2077:2216   */\n    tag_219:\n        /* \"#utility.yul\":2123:2128   */\n      0x00\n        /* \"#utility.yul\":2161:2167   */\n      dup2\n        /* \"#utility.yul\":2148:2168   */\n      calldataload\n        /* \"#utility.yul\":2139:2168   */\n      swap1\n      pop\n        /* \"#utility.yul\":2177:2210   */\n      tag_277\n        /* \"#utility.yul\":2204:2209   */\n      dup2\n        /* \"#utility.yul\":2177:2210   */\n      tag_218\n      jump\t// in\n    tag_277:\n        /* \"#utility.yul\":2077:2216   */\n      swap3\n      swap2\n      pop\n      pop\n      jump\t// out\n        /* \"#utility.yul\":2222:2551   */\n    tag_50:\n        /* \"#utility.yul\":2281:2287   */\n      0x00\n        /* \"#utility.yul\":2330:2332   */\n      0x20\n        /* \"#utility.yul\":2318:2327   */\n      dup3\n        /* \"#utility.yul\":2309:2316   */\n      dup5\n        /* \"#utility.yul\":2305:2328   */\n      sub\n        /* \"#utility.yul\":2301:2333   */\n      slt\n        /* \"#utility.yul\":2298:2417   */\n      iszero\n      tag_279\n      jumpi\n        /* \"#utility.yul\":2336:2415   */\n      tag_280\n      tag_210\n      jump\t// in\n    tag_280:\n        /* \"#utility.yul\":2298:2417   */\n    tag_279:\n        /* \"#utility.yul\":2456:2457   */\n      0x00\n        /* \"#utility.yul\":2481:2534   */\n      tag_281\n        /* \"#utility.yul\":2526:2533   */\n      dup5\n        /* \"#utility.yul\":2517:2523   */\n      dup3\n        /* \"#utility.yul\":2506:2515   */\n      dup6\n        /* \"#utility.yul\":2502:2524   */\n      add\n        /* \"#utility.yul\":2481:2534   */\n      tag_219\n      jump\t// in\n    tag_281:\n        /* \"#utility.yul\":2471:2534   */\n      swap2\n      pop\n        /* \"#utility.yul\":2427:2544   */\n      pop\n        /* \"#utility.yul\":2222:2551   */\n      swap3\n      swap2\n      pop\n      pop\n      jump\t// out\n        /* \"#utility.yul\":2557:2617   */\n    tag_220:\n        /* \"#utility.yul\":2585:2588   */\n      0x00\n        /* \"#utility.yul\":2606:2611   */\n      dup2\n        /* \"#utility.yul\":2599:2611   */\n      swap1\n      pop\n        /* \"#utility.yul\":2557:2617   */\n      swap2\n      swap1\n      pop\n      jump\t// out\n        /* \"#utility.yul\":2623:2765   */\n    tag_221:\n        /* \"#utility.yul\":2673:2682   */\n      0x00\n        /* \"#utility.yul\":2706:2759   */\n      tag_284\n        /* \"#utility.yul\":2724:2758   */\n      tag_285\n        /* \"#utility.yul\":2733:2757   */\n      tag_286\n        /* \"#utility.yul\":2751:2756   */\n      dup5\n        /* \"#utility.yul\":2733:2757   */\n      tag_216\n      jump\t// in\n    tag_286:\n        /* \"#utility.yul\":2724:2758   */\n      tag_220\n      jump\t// in\n    tag_285:\n        /* \"#utility.yul\":2706:2759   */\n      tag_216\n      jump\t// in\n    tag_284:\n        /* \"#utility.yul\":2693:2759   */\n      swap1\n      pop\n        /* \"#utility.yul\":2623:2765   */\n      swap2\n      swap1\n      pop\n      jump\t// out\n        /* \"#utility.yul\":2771:2897   */\n    tag_222:\n        /* \"#utility.yul\":2821:2830   */\n      0x00\n        /* \"#utility.yul\":2854:2891   */\n      tag_288\n        /* \"#utility.yul\":2885:2890   */\n      dup3\n        /* \"#utility.yul\":2854:2891   */\n      tag_221\n      jump\t// in\n    tag_288:\n        /* \"#utility.yul\":2841:2891   */\n      swap1\n      pop\n        /* \"#utility.yul\":2771:2897   */\n      swap2\n      swap1\n      pop\n      jump\t// out\n        /* \"#utility.yul\":2903:3042   */\n    tag_223:\n        /* \"#utility.yul\":2966:2975   */\n      0x00\n        /* \"#utility.yul\":2999:3036   */\n      tag_290\n        /* \"#utility.yul\":3030:3035   */\n      dup3\n        /* \"#utility.yul\":2999:3036   */\n      tag_222\n      jump\t// in\n    tag_290:\n        /* \"#utility.yul\":2986:3036   */\n      swap1\n      pop\n        /* \"#utility.yul\":2903:3042   */\n      swap2\n      swap1\n      pop\n      jump\t// out\n        /* \"#utility.yul\":3048:3205   */\n    tag_224:\n        /* \"#utility.yul\":3148:3198   */\n      tag_292\n        /* \"#utility.yul\":3192:3197   */\n      dup2\n        /* \"#utility.yul\":3148:3198   */\n      tag_223\n      jump\t// in\n    tag_292:\n        /* \"#utility.yul\":3143:3146   */\n      dup3\n        /* \"#utility.yul\":3136:3199   */\n      mstore\n        /* \"#utility.yul\":3048:3205   */\n      pop\n      pop\n      jump\t// out\n        /* \"#utility.yul\":3211:3459   */\n    tag_93:\n        /* \"#utility.yul\":3317:3321   */\n      0x00\n        /* \"#utility.yul\":3355:3357   */\n      0x20\n        /* \"#utility.yul\":3344:3353   */\n      dup3\n        /* \"#utility.yul\":3340:3358   */\n      add\n        /* \"#utility.yul\":3332:3358   */\n      swap1\n      pop\n        /* \"#utility.yul\":3368:3452   */\n      tag_294\n        /* \"#utility.yul\":3449:3450   */\n      0x00\n        /* \"#utility.yul\":3438:3447   */\n      dup4\n        /* \"#utility.yul\":3434:3451   */\n      add\n        /* \"#utility.yul\":3425:3431   */\n      dup5\n        /* \"#utility.yul\":3368:3452   */\n      tag_224\n      jump\t// in\n    tag_294:\n        /* \"#utility.yul\":3211:3459   */\n      swap3\n      swap2\n      pop\n      pop\n      jump\t// out\n        /* \"#utility.yul\":3465:3645   */\n    tag_225:\n        /* \"#utility.yul\":3513:3590   */\n      0x4e487b7100000000000000000000000000000000000000000000000000000000\n        /* \"#utility.yul\":3510:3511   */\n      0x00\n        /* \"#utility.yul\":3503:3591   */\n      mstore\n        /* \"#utility.yul\":3610:3614   */\n      0x11\n        /* \"#utility.yul\":3607:3608   */\n      0x04\n        /* \"#utility.yul\":3600:3615   */\n      mstore\n        /* \"#utility.yul\":3634:3638   */\n      0x24\n        /* \"#utility.yul\":3631:3632   */\n      0x00\n        /* \"#utility.yul\":3624:3639   */\n      revert\n        /* \"#utility.yul\":3651:4061   */\n    tag_96:\n        /* \"#utility.yul\":3691:3698   */\n      0x00\n        /* \"#utility.yul\":3714:3734   */\n      tag_297\n        /* \"#utility.yul\":3732:3733   */\n      dup3\n        /* \"#utility.yul\":3714:3734   */\n      tag_212\n      jump\t// in\n    tag_297:\n        /* \"#utility.yul\":3709:3734   */\n      swap2\n      pop\n        /* \"#utility.yul\":3748:3768   */\n      tag_298\n        /* \"#utility.yul\":3766:3767   */\n      dup4\n        /* \"#utility.yul\":3748:3768   */\n      tag_212\n      jump\t// in\n    tag_298:\n        /* \"#utility.yul\":3743:3768   */\n      swap3\n      pop\n        /* \"#utility.yul\":3803:3804   */\n      dup3\n        /* \"#utility.yul\":3800:3801   */\n      dup3\n        /* \"#utility.yul\":3796:3805   */\n      mul\n        /* \"#utility.yul\":3825:3855   */\n      tag_299\n        /* \"#utility.yul\":3843:3854   */\n      dup2\n        /* \"#utility.yul\":3825:3855   */\n      tag_212\n      jump\t// in\n    tag_299:\n        /* \"#utility.yul\":3814:3855   */\n      swap2\n      pop\n        /* \"#utility.yul\":4004:4005   */\n      dup3\n        /* \"#utility.yul\":3995:4002   */\n      dup3\n        /* \"#utility.yul\":3991:4006   */\n      div\n        /* \"#utility.yul\":3988:3989   */\n      dup5\n        /* \"#utility.yul\":3985:4007   */\n      eq\n        /* \"#utility.yul\":3965:3966   */\n      dup4\n        /* \"#utility.yul\":3958:3967   */\n      iszero\n        /* \"#utility.yul\":3938:4021   */\n      or\n        /* \"#utility.yul\":3915:4054   */\n      tag_300\n      jumpi\n        /* \"#utility.yul\":4034:4052   */\n      tag_301\n      tag_225\n      jump\t// in\n    tag_301:\n        /* \"#utility.yul\":3915:4054   */\n    tag_300:\n        /* \"#utility.yul\":3699:4061   */\n      pop\n        /* \"#utility.yul\":3651:4061   */\n      swap3\n      swap2\n      pop\n      pop\n      jump\t// out\n        /* \"#utility.yul\":4067:4247   */\n    tag_226:\n        /* \"#utility.yul\":4115:4192   */\n      0x4e487b7100000000000000000000000000000000000000000000000000000000\n        /* \"#utility.yul\":4112:4113   */\n      0x00\n        /* \"#utility.yul\":4105:4193   */\n      mstore\n        /* \"#utility.yul\":4212:4216   */\n      0x12\n        /* \"#utility.yul\":4209:4210   */\n      0x04\n        /* \"#utility.yul\":4202:4217   */\n      mstore\n        /* \"#utility.yul\":4236:4240   */\n      0x24\n        /* \"#utility.yul\":4233:4234   */\n      0x00\n        /* \"#utility.yul\":4226:4241   */\n      revert\n        /* \"#utility.yul\":4253:4438   */\n    tag_98:\n        /* \"#utility.yul\":4293:4294   */\n      0x00\n        /* \"#utility.yul\":4310:4330   */\n      tag_304\n        /* \"#utility.yul\":4328:4329   */\n      dup3\n        /* \"#utility.yul\":4310:4330   */\n      tag_212\n      jump\t// in\n    tag_304:\n        /* \"#utility.yul\":4305:4330   */\n      swap2\n      pop\n        /* \"#utility.yul\":4344:4364   */\n      tag_305\n        /* \"#utility.yul\":4362:4363   */\n      dup4\n        /* \"#utility.yul\":4344:4364   */\n      tag_212\n      jump\t// in\n    tag_305:\n        /* \"#utility.yul\":4339:4364   */\n      swap3\n      pop\n        /* \"#utility.yul\":4383:4384   */\n      dup3\n        /* \"#utility.yul\":4373:4408   */\n      tag_306\n      jumpi\n        /* \"#utility.yul\":4388:4406   */\n      tag_307\n      tag_226\n      jump\t// in\n    tag_307:\n        /* \"#utility.yul\":4373:4408   */\n    tag_306:\n        /* \"#utility.yul\":4430:4431   */\n      dup3\n        /* \"#utility.yul\":4427:4428   */\n      dup3\n        /* \"#utility.yul\":4423:4432   */\n      div\n        /* \"#utility.yul\":4418:4432   */\n      swap1\n      pop\n        /* \"#utility.yul\":4253:4438   */\n      swap3\n      swap2\n      pop\n      pop\n      jump\t// out\n        /* \"#utility.yul\":4444:4613   */\n    tag_227:\n        /* \"#utility.yul\":4528:4539   */\n      0x00\n        /* \"#utility.yul\":4562:4568   */\n      dup3\n        /* \"#utility.yul\":4557:4560   */\n      dup3\n        /* \"#utility.yul\":4550:4569   */\n      mstore\n        /* \"#utility.yul\":4602:4606   */\n      0x20\n        /* \"#utility.yul\":4597:4600   */\n      dup3\n        /* \"#utility.yul\":4593:4607   */\n      add\n        /* \"#utility.yul\":4578:4607   */\n      swap1\n      pop\n        /* \"#utility.yul\":4444:4613   */\n      swap3\n      swap2\n      pop\n      pop\n      jump\t// out\n        /* \"#utility.yul\":4619:4857   */\n    tag_228:\n        /* \"#utility.yul\":4759:4793   */\n      0x43616e27742067697665207570206d6f7265206c697175696469747920706f73\n        /* \"#utility.yul\":4755:4756   */\n      0x00\n        /* \"#utility.yul\":4747:4753   */\n      dup3\n        /* \"#utility.yul\":4743:4757   */\n      add\n        /* \"#utility.yul\":4736:4794   */\n      mstore\n        /* \"#utility.yul\":4828:4849   */\n      0x6974696f6e73207468616e20796f75206f776e00000000000000000000000000\n        /* \"#utility.yul\":4823:4825   */\n      0x20\n        /* \"#utility.yul\":4815:4821   */\n      dup3\n        /* \"#utility.yul\":4811:4826   */\n      add\n        /* \"#utility.yul\":4804:4850   */\n      mstore\n        /* \"#utility.yul\":4619:4857   */\n      pop\n      jump\t// out\n        /* \"#utility.yul\":4863:5229   */\n    tag_229:\n        /* \"#utility.yul\":5005:5008   */\n      0x00\n        /* \"#utility.yul\":5026:5093   */\n      tag_311\n        /* \"#utility.yul\":5090:5092   */\n      0x33\n        /* \"#utility.yul\":5085:5088   */\n      dup4\n        /* \"#utility.yul\":5026:5093   */\n      tag_227\n      jump\t// in\n    tag_311:\n        /* \"#utility.yul\":5019:5093   */\n      swap2\n      pop\n        /* \"#utility.yul\":5102:5195   */\n      tag_312\n        /* \"#utility.yul\":5191:5194   */\n      dup3\n        /* \"#utility.yul\":5102:5195   */\n      tag_228\n      jump\t// in\n    tag_312:\n        /* \"#utility.yul\":5220:5222   */\n      0x40\n        /* \"#utility.yul\":5215:5218   */\n      dup3\n        /* \"#utility.yul\":5211:5223   */\n      add\n        /* \"#utility.yul\":5204:5223   */\n      swap1\n      pop\n        /* \"#utility.yul\":4863:5229   */\n      swap2\n      swap1\n      pop\n      jump\t// out\n        /* \"#utility.yul\":5235:5654   */\n    tag_103:\n        /* \"#utility.yul\":5401:5405   */\n      0x00\n        /* \"#utility.yul\":5439:5441   */\n      0x20\n        /* \"#utility.yul\":5428:5437   */\n      dup3\n        /* \"#utility.yul\":5424:5442   */\n      add\n        /* \"#utility.yul\":5416:5442   */\n      swap1\n      pop\n        /* \"#utility.yul\":5488:5497   */\n      dup2\n        /* \"#utility.yul\":5482:5486   */\n      dup2\n        /* \"#utility.yul\":5478:5498   */\n      sub\n        /* \"#utility.yul\":5474:5475   */\n      0x00\n        /* \"#utility.yul\":5463:5472   */\n      dup4\n        /* \"#utility.yul\":5459:5476   */\n      add\n        /* \"#utility.yul\":5452:5499   */\n      mstore\n        /* \"#utility.yul\":5516:5647   */\n      tag_314\n        /* \"#utility.yul\":5642:5646   */\n      dup2\n        /* \"#utility.yul\":5516:5647   */\n      tag_229\n      jump\t// in\n    tag_314:\n        /* \"#utility.yul\":5508:5647   */\n      swap1\n      pop\n        /* \"#utility.yul\":5235:5654   */\n      swap2\n      swap1\n      pop\n      jump\t// out\n        /* \"#utility.yul\":5660:5900   */\n    tag_230:\n        /* \"#utility.yul\":5800:5834   */\n      0x43616e2774206769766520757020616c6c20746865206c697175696469747920\n        /* \"#utility.yul\":5796:5797   */\n      0x00\n        /* \"#utility.yul\":5788:5794   */\n      dup3\n        /* \"#utility.yul\":5784:5798   */\n      add\n        /* \"#utility.yul\":5777:5835   */\n      mstore\n        /* \"#utility.yul\":5869:5892   */\n      0x706f736974696f6e7320696e2074686520706f6f6c0000000000000000000000\n        /* \"#utility.yul\":5864:5866   */\n      0x20\n        /* \"#utility.yul\":5856:5862   */\n      dup3\n        /* \"#utility.yul\":5852:5867   */\n      add\n        /* \"#utility.yul\":5845:5893   */\n      mstore\n        /* \"#utility.yul\":5660:5900   */\n      pop\n      jump\t// out\n        /* \"#utility.yul\":5906:6272   */\n    tag_231:\n        /* \"#utility.yul\":6048:6051   */\n      0x00\n        /* \"#utility.yul\":6069:6136   */\n      tag_317\n        /* \"#utility.yul\":6133:6135   */\n      0x35\n        /* \"#utility.yul\":6128:6131   */\n      dup4\n        /* \"#utility.yul\":6069:6136   */\n      tag_227\n      jump\t// in\n    tag_317:\n        /* \"#utility.yul\":6062:6136   */\n      swap2\n      pop\n        /* \"#utility.yul\":6145:6238   */\n      tag_318\n        /* \"#utility.yul\":6234:6237   */\n      dup3\n        /* \"#utility.yul\":6145:6238   */\n      tag_230\n      jump\t// in\n    tag_318:\n        /* \"#utility.yul\":6263:6265   */\n      0x40\n        /* \"#utility.yul\":6258:6261   */\n      dup3\n        /* \"#utility.yul\":6254:6266   */\n      add\n        /* \"#utility.yul\":6247:6266   */\n      swap1\n      pop\n        /* \"#utility.yul\":5906:6272   */\n      swap2\n      swap1\n      pop\n      jump\t// out\n        /* \"#utility.yul\":6278:6697   */\n    tag_106:\n        /* \"#utility.yul\":6444:6448   */\n      0x00\n        /* \"#utility.yul\":6482:6484   */\n      0x20\n        /* \"#utility.yul\":6471:6480   */\n      dup3\n        /* \"#utility.yul\":6467:6485   */\n      add\n        /* \"#utility.yul\":6459:6485   */\n      swap1\n      pop\n        /* \"#utility.yul\":6531:6540   */\n      dup2\n        /* \"#utility.yul\":6525:6529   */\n      dup2\n        /* \"#utility.yul\":6521:6541   */\n      sub\n        /* \"#utility.yul\":6517:6518   */\n      0x00\n        /* \"#utility.yul\":6506:6515   */\n      dup4\n        /* \"#utility.yul\":6502:6519   */\n      add\n        /* \"#utility.yul\":6495:6542   */\n      mstore\n        /* \"#utility.yul\":6559:6690   */\n      tag_320\n        /* \"#utility.yul\":6685:6689   */\n      dup2\n        /* \"#utility.yul\":6559:6690   */\n      tag_231\n      jump\t// in\n    tag_320:\n        /* \"#utility.yul\":6551:6690   */\n      swap1\n      pop\n        /* \"#utility.yul\":6278:6697   */\n      swap2\n      swap1\n      pop\n      jump\t// out\n        /* \"#utility.yul\":6703:6897   */\n    tag_108:\n        /* \"#utility.yul\":6743:6747   */\n      0x00\n        /* \"#utility.yul\":6763:6783   */\n      tag_322\n        /* \"#utility.yul\":6781:6782   */\n      dup3\n        /* \"#utility.yul\":6763:6783   */\n      tag_212\n      jump\t// in\n    tag_322:\n        /* \"#utility.yul\":6758:6783   */\n      swap2\n      pop\n        /* \"#utility.yul\":6797:6817   */\n      tag_323\n        /* \"#utility.yul\":6815:6816   */\n      dup4\n        /* \"#utility.yul\":6797:6817   */\n      tag_212\n      jump\t// in\n    tag_323:\n        /* \"#utility.yul\":6792:6817   */\n      swap3\n      pop\n        /* \"#utility.yul\":6841:6842   */\n      dup3\n        /* \"#utility.yul\":6838:6839   */\n      dup3\n        /* \"#utility.yul\":6834:6843   */\n      sub\n        /* \"#utility.yul\":6826:6843   */\n      swap1\n      pop\n        /* \"#utility.yul\":6865:6866   */\n      dup2\n        /* \"#utility.yul\":6859:6863   */\n      dup2\n        /* \"#utility.yul\":6856:6867   */\n      gt\n        /* \"#utility.yul\":6853:6890   */\n      iszero\n      tag_324\n      jumpi\n        /* \"#utility.yul\":6870:6888   */\n      tag_325\n      tag_225\n      jump\t// in\n    tag_325:\n        /* \"#utility.yul\":6853:6890   */\n    tag_324:\n        /* \"#utility.yul\":6703:6897   */\n      swap3\n      swap2\n      pop\n      pop\n      jump\t// out\n        /* \"#utility.yul\":6903:7021   */\n    tag_232:\n        /* \"#utility.yul\":6990:7014   */\n      tag_327\n        /* \"#utility.yul\":7008:7013   */\n      dup2\n        /* \"#utility.yul\":6990:7014   */\n      tag_217\n      jump\t// in\n    tag_327:\n        /* \"#utility.yul\":6985:6988   */\n      dup3\n        /* \"#utility.yul\":6978:7015   */\n      mstore\n        /* \"#utility.yul\":6903:7021   */\n      pop\n      pop\n      jump\t// out\n        /* \"#utility.yul\":7027:7359   */\n    tag_111:\n        /* \"#utility.yul\":7148:7152   */\n      0x00\n        /* \"#utility.yul\":7186:7188   */\n      0x40\n        /* \"#utility.yul\":7175:7184   */\n      dup3\n        /* \"#utility.yul\":7171:7189   */\n      add\n        /* \"#utility.yul\":7163:7189   */\n      swap1\n      pop\n        /* \"#utility.yul\":7199:7270   */\n      tag_329\n        /* \"#utility.yul\":7267:7268   */\n      0x00\n        /* \"#utility.yul\":7256:7265   */\n      dup4\n        /* \"#utility.yul\":7252:7269   */\n      add\n        /* \"#utility.yul\":7243:7249   */\n      dup6\n        /* \"#utility.yul\":7199:7270   */\n      tag_232\n      jump\t// in\n    tag_329:\n        /* \"#utility.yul\":7280:7352   */\n      tag_330\n        /* \"#utility.yul\":7348:7350   */\n      0x20\n        /* \"#utility.yul\":7337:7346   */\n      dup4\n        /* \"#utility.yul\":7333:7351   */\n      add\n        /* \"#utility.yul\":7324:7330   */\n      dup5\n        /* \"#utility.yul\":7280:7352   */\n      tag_215\n      jump\t// in\n    tag_330:\n        /* \"#utility.yul\":7027:7359   */\n      swap4\n      swap3\n      pop\n      pop\n      pop\n      jump\t// out\n        /* \"#utility.yul\":7365:7455   */\n    tag_233:\n        /* \"#utility.yul\":7399:7406   */\n      0x00\n        /* \"#utility.yul\":7442:7447   */\n      dup2\n        /* \"#utility.yul\":7435:7448   */\n      iszero\n        /* \"#utility.yul\":7428:7449   */\n      iszero\n        /* \"#utility.yul\":7417:7449   */\n      swap1\n      pop\n        /* \"#utility.yul\":7365:7455   */\n      swap2\n      swap1\n      pop\n      jump\t// out\n        /* \"#utility.yul\":7461:7577   */\n    tag_234:\n        /* \"#utility.yul\":7531:7552   */\n      tag_333\n        /* \"#utility.yul\":7546:7551   */\n      dup2\n        /* \"#utility.yul\":7531:7552   */\n      tag_233\n      jump\t// in\n    tag_333:\n        /* \"#utility.yul\":7524:7529   */\n      dup2\n        /* \"#utility.yul\":7521:7553   */\n      eq\n        /* \"#utility.yul\":7511:7571   */\n      tag_334\n      jumpi\n        /* \"#utility.yul\":7567:7568   */\n      0x00\n        /* \"#utility.yul\":7564:7565   */\n      dup1\n        /* \"#utility.yul\":7557:7569   */\n      revert\n        /* \"#utility.yul\":7511:7571   */\n    tag_334:\n        /* \"#utility.yul\":7461:7577   */\n      pop\n      jump\t// out\n        /* \"#utility.yul\":7583:7720   */\n    tag_235:\n        /* \"#utility.yul\":7637:7642   */\n      0x00\n        /* \"#utility.yul\":7668:7674   */\n      dup2\n        /* \"#utility.yul\":7662:7675   */\n      mload\n        /* \"#utility.yul\":7653:7675   */\n      swap1\n      pop\n        /* \"#utility.yul\":7684:7714   */\n      tag_336\n        /* \"#utility.yul\":7708:7713   */\n      dup2\n        /* \"#utility.yul\":7684:7714   */\n      tag_234\n      jump\t// in\n    tag_336:\n        /* \"#utility.yul\":7583:7720   */\n      swap3\n      swap2\n      pop\n      pop\n      jump\t// out\n        /* \"#utility.yul\":7726:8071   */\n    tag_115:\n        /* \"#utility.yul\":7793:7799   */\n      0x00\n        /* \"#utility.yul\":7842:7844   */\n      0x20\n        /* \"#utility.yul\":7830:7839   */\n      dup3\n        /* \"#utility.yul\":7821:7828   */\n      dup5\n        /* \"#utility.yul\":7817:7840   */\n      sub\n        /* \"#utility.yul\":7813:7845   */\n      slt\n        /* \"#utility.yul\":7810:7929   */\n      iszero\n      tag_338\n      jumpi\n        /* \"#utility.yul\":7848:7927   */\n      tag_339\n      tag_210\n      jump\t// in\n    tag_339:\n        /* \"#utility.yul\":7810:7929   */\n    tag_338:\n        /* \"#utility.yul\":7968:7969   */\n      0x00\n        /* \"#utility.yul\":7993:8054   */\n      tag_340\n        /* \"#utility.yul\":8046:8053   */\n      dup5\n        /* \"#utility.yul\":8037:8043   */\n      dup3\n        /* \"#utility.yul\":8026:8035   */\n      dup6\n        /* \"#utility.yul\":8022:8044   */\n      add\n        /* \"#utility.yul\":7993:8054   */\n      tag_235\n      jump\t// in\n    tag_340:\n        /* \"#utility.yul\":7983:8054   */\n      swap2\n      pop\n        /* \"#utility.yul\":7939:8064   */\n      pop\n        /* \"#utility.yul\":7726:8071   */\n      swap3\n      swap2\n      pop\n      pop\n      jump\t// out\n        /* \"#utility.yul\":8077:8224   */\n    tag_236:\n        /* \"#utility.yul\":8178:8189   */\n      0x00\n        /* \"#utility.yul\":8215:8218   */\n      dup2\n        /* \"#utility.yul\":8200:8218   */\n      swap1\n      pop\n        /* \"#utility.yul\":8077:8224   */\n      swap3\n      swap2\n      pop\n      pop\n      jump\t// out\n        /* \"#utility.yul\":8230:8344   */\n    tag_237:\n      pop\n      jump\t// out\n        /* \"#utility.yul\":8350:8748   */\n    tag_238:\n        /* \"#utility.yul\":8509:8512   */\n      0x00\n        /* \"#utility.yul\":8530:8613   */\n      tag_344\n        /* \"#utility.yul\":8611:8612   */\n      0x00\n        /* \"#utility.yul\":8606:8609   */\n      dup4\n        /* \"#utility.yul\":8530:8613   */\n      tag_236\n      jump\t// in\n    tag_344:\n        /* \"#utility.yul\":8523:8613   */\n      swap2\n      pop\n        /* \"#utility.yul\":8622:8715   */\n      tag_345\n        /* \"#utility.yul\":8711:8714   */\n      dup3\n        /* \"#utility.yul\":8622:8715   */\n      tag_237\n      jump\t// in\n    tag_345:\n        /* \"#utility.yul\":8740:8741   */\n      0x00\n        /* \"#utility.yul\":8735:8738   */\n      dup3\n        /* \"#utility.yul\":8731:8742   */\n      add\n        /* \"#utility.yul\":8724:8742   */\n      swap1\n      pop\n        /* \"#utility.yul\":8350:8748   */\n      swap2\n      swap1\n      pop\n      jump\t// out\n        /* \"#utility.yul\":8754:9133   */\n    tag_117:\n        /* \"#utility.yul\":8938:8941   */\n      0x00\n        /* \"#utility.yul\":8960:9107   */\n      tag_347\n        /* \"#utility.yul\":9103:9106   */\n      dup3\n        /* \"#utility.yul\":8960:9107   */\n      tag_238\n      jump\t// in\n    tag_347:\n        /* \"#utility.yul\":8953:9107   */\n      swap2\n      pop\n        /* \"#utility.yul\":9124:9127   */\n      dup2\n        /* \"#utility.yul\":9117:9127   */\n      swap1\n      pop\n        /* \"#utility.yul\":8754:9133   */\n      swap2\n      swap1\n      pop\n      jump\t// out\n        /* \"#utility.yul\":9139:9309   */\n    tag_239:\n        /* \"#utility.yul\":9279:9301   */\n      0x6661696c656420746f2073656e64204574686572000000000000000000000000\n        /* \"#utility.yul\":9275:9276   */\n      0x00\n        /* \"#utility.yul\":9267:9273   */\n      dup3\n        /* \"#utility.yul\":9263:9277   */\n      add\n        /* \"#utility.yul\":9256:9302   */\n      mstore\n        /* \"#utility.yul\":9139:9309   */\n      pop\n      jump\t// out\n        /* \"#utility.yul\":9315:9681   */\n    tag_240:\n        /* \"#utility.yul\":9457:9460   */\n      0x00\n        /* \"#utility.yul\":9478:9545   */\n      tag_350\n        /* \"#utility.yul\":9542:9544   */\n      0x14\n        /* \"#utility.yul\":9537:9540   */\n      dup4\n        /* \"#utility.yul\":9478:9545   */\n      tag_227\n      jump\t// in\n    tag_350:\n        /* \"#utility.yul\":9471:9545   */\n      swap2\n      pop\n        /* \"#utility.yul\":9554:9647   */\n      tag_351\n        /* \"#utility.yul\":9643:9646   */\n      dup3\n        /* \"#utility.yul\":9554:9647   */\n      tag_239\n      jump\t// in\n    tag_351:\n        /* \"#utility.yul\":9672:9674   */\n      0x20\n        /* \"#utility.yul\":9667:9670   */\n      dup3\n        /* \"#utility.yul\":9663:9675   */\n      add\n        /* \"#utility.yul\":9656:9675   */\n      swap1\n      pop\n        /* \"#utility.yul\":9315:9681   */\n      swap2\n      swap1\n      pop\n      jump\t// out\n        /* \"#utility.yul\":9687:10106   */\n    tag_123:\n        /* \"#utility.yul\":9853:9857   */\n      0x00\n        /* \"#utility.yul\":9891:9893   */\n      0x20\n        /* \"#utility.yul\":9880:9889   */\n      dup3\n        /* \"#utility.yul\":9876:9894   */\n      add\n        /* \"#utility.yul\":9868:9894   */\n      swap1\n      pop\n        /* \"#utility.yul\":9940:9949   */\n      dup2\n        /* \"#utility.yul\":9934:9938   */\n      dup2\n        /* \"#utility.yul\":9930:9950   */\n      sub\n        /* \"#utility.yul\":9926:9927   */\n      0x00\n        /* \"#utility.yul\":9915:9924   */\n      dup4\n        /* \"#utility.yul\":9911:9928   */\n      add\n        /* \"#utility.yul\":9904:9951   */\n      mstore\n        /* \"#utility.yul\":9968:10099   */\n      tag_353\n        /* \"#utility.yul\":10094:10098   */\n      dup2\n        /* \"#utility.yul\":9968:10099   */\n      tag_240\n      jump\t// in\n    tag_353:\n        /* \"#utility.yul\":9960:10099   */\n      swap1\n      pop\n        /* \"#utility.yul\":9687:10106   */\n      swap2\n      swap1\n      pop\n      jump\t// out\n        /* \"#utility.yul\":10112:10554   */\n    tag_128:\n        /* \"#utility.yul\":10261:10265   */\n      0x00\n        /* \"#utility.yul\":10299:10301   */\n      0x60\n        /* \"#utility.yul\":10288:10297   */\n      dup3\n        /* \"#utility.yul\":10284:10302   */\n      add\n        /* \"#utility.yul\":10276:10302   */\n      swap1\n      pop\n        /* \"#utility.yul\":10312:10383   */\n      tag_355\n        /* \"#utility.yul\":10380:10381   */\n      0x00\n        /* \"#utility.yul\":10369:10378   */\n      dup4\n        /* \"#utility.yul\":10365:10382   */\n      add\n        /* \"#utility.yul\":10356:10362   */\n      dup7\n        /* \"#utility.yul\":10312:10383   */\n      tag_215\n      jump\t// in\n    tag_355:\n        /* \"#utility.yul\":10393:10465   */\n      tag_356\n        /* \"#utility.yul\":10461:10463   */\n      0x20\n        /* \"#utility.yul\":10450:10459   */\n      dup4\n        /* \"#utility.yul\":10446:10464   */\n      add\n        /* \"#utility.yul\":10437:10443   */\n      dup6\n        /* \"#utility.yul\":10393:10465   */\n      tag_215\n      jump\t// in\n    tag_356:\n        /* \"#utility.yul\":10475:10547   */\n      tag_357\n        /* \"#utility.yul\":10543:10545   */\n      0x40\n        /* \"#utility.yul\":10532:10541   */\n      dup4\n        /* \"#utility.yul\":10528:10546   */\n      add\n        /* \"#utility.yul\":10519:10525   */\n      dup5\n        /* \"#utility.yul\":10475:10547   */\n      tag_215\n      jump\t// in\n    tag_357:\n        /* \"#utility.yul\":10112:10554   */\n      swap5\n      swap4\n      pop\n      pop\n      pop\n      pop\n      jump\t// out\n        /* \"#utility.yul\":10560:10739   */\n    tag_241:\n        /* \"#utility.yul\":10700:10731   */\n      0x636f6e74726163744552433230546f6b656e42616c616e6365203d2030000000\n        /* \"#utility.yul\":10696:10697   */\n      0x00\n        /* \"#utility.yul\":10688:10694   */\n      dup3\n        /* \"#utility.yul\":10684:10698   */\n      add\n        /* \"#utility.yul\":10677:10732   */\n      mstore\n        /* \"#utility.yul\":10560:10739   */\n      pop\n      jump\t// out\n        /* \"#utility.yul\":10745:11111   */\n    tag_242:\n        /* \"#utility.yul\":10887:10890   */\n      0x00\n        /* \"#utility.yul\":10908:10975   */\n      tag_360\n        /* \"#utility.yul\":10972:10974   */\n      0x1d\n        /* \"#utility.yul\":10967:10970   */\n      dup4\n        /* \"#utility.yul\":10908:10975   */\n      tag_227\n      jump\t// in\n    tag_360:\n        /* \"#utility.yul\":10901:10975   */\n      swap2\n      pop\n        /* \"#utility.yul\":10984:11077   */\n      tag_361\n        /* \"#utility.yul\":11073:11076   */\n      dup3\n        /* \"#utility.yul\":10984:11077   */\n      tag_241\n      jump\t// in\n    tag_361:\n        /* \"#utility.yul\":11102:11104   */\n      0x20\n        /* \"#utility.yul\":11097:11100   */\n      dup3\n        /* \"#utility.yul\":11093:11105   */\n      add\n        /* \"#utility.yul\":11086:11105   */\n      swap1\n      pop\n        /* \"#utility.yul\":10745:11111   */\n      swap2\n      swap1\n      pop\n      jump\t// out\n        /* \"#utility.yul\":11117:11536   */\n    tag_132:\n        /* \"#utility.yul\":11283:11287   */\n      0x00\n        /* \"#utility.yul\":11321:11323   */\n      0x20\n        /* \"#utility.yul\":11310:11319   */\n      dup3\n        /* \"#utility.yul\":11306:11324   */\n      add\n        /* \"#utility.yul\":11298:11324   */\n      swap1\n      pop\n        /* \"#utility.yul\":11370:11379   */\n      dup2\n        /* \"#utility.yul\":11364:11368   */\n      dup2\n        /* \"#utility.yul\":11360:11380   */\n      sub\n        /* \"#utility.yul\":11356:11357   */\n      0x00\n        /* \"#utility.yul\":11345:11354   */\n      dup4\n        /* \"#utility.yul\":11341:11358   */\n      add\n        /* \"#utility.yul\":11334:11381   */\n      mstore\n        /* \"#utility.yul\":11398:11529   */\n      tag_363\n        /* \"#utility.yul\":11524:11528   */\n      dup2\n        /* \"#utility.yul\":11398:11529   */\n      tag_242\n      jump\t// in\n    tag_363:\n        /* \"#utility.yul\":11390:11529   */\n      swap1\n      pop\n        /* \"#utility.yul\":11117:11536   */\n      swap2\n      swap1\n      pop\n      jump\t// out\n        /* \"#utility.yul\":11542:11709   */\n    tag_243:\n        /* \"#utility.yul\":11682:11701   */\n      0x457468206d73672e76616c7565203d2030000000000000000000000000000000\n        /* \"#utility.yul\":11678:11679   */\n      0x00\n        /* \"#utility.yul\":11670:11676   */\n      dup3\n        /* \"#utility.yul\":11666:11680   */\n      add\n        /* \"#utility.yul\":11659:11702   */\n      mstore\n        /* \"#utility.yul\":11542:11709   */\n      pop\n      jump\t// out\n        /* \"#utility.yul\":11715:12081   */\n    tag_244:\n        /* \"#utility.yul\":11857:11860   */\n      0x00\n        /* \"#utility.yul\":11878:11945   */\n      tag_366\n        /* \"#utility.yul\":11942:11944   */\n      0x11\n        /* \"#utility.yul\":11937:11940   */\n      dup4\n        /* \"#utility.yul\":11878:11945   */\n      tag_227\n      jump\t// in\n    tag_366:\n        /* \"#utility.yul\":11871:11945   */\n      swap2\n      pop\n        /* \"#utility.yul\":11954:12047   */\n      tag_367\n        /* \"#utility.yul\":12043:12046   */\n      dup3\n        /* \"#utility.yul\":11954:12047   */\n      tag_243\n      jump\t// in\n    tag_367:\n        /* \"#utility.yul\":12072:12074   */\n      0x20\n        /* \"#utility.yul\":12067:12070   */\n      dup3\n        /* \"#utility.yul\":12063:12075   */\n      add\n        /* \"#utility.yul\":12056:12075   */\n      swap1\n      pop\n        /* \"#utility.yul\":11715:12081   */\n      swap2\n      swap1\n      pop\n      jump\t// out\n        /* \"#utility.yul\":12087:12506   */\n    tag_138:\n        /* \"#utility.yul\":12253:12257   */\n      0x00\n        /* \"#utility.yul\":12291:12293   */\n      0x20\n        /* \"#utility.yul\":12280:12289   */\n      dup3\n        /* \"#utility.yul\":12276:12294   */\n      add\n        /* \"#utility.yul\":12268:12294   */\n      swap1\n      pop\n        /* \"#utility.yul\":12340:12349   */\n      dup2\n        /* \"#utility.yul\":12334:12338   */\n      dup2\n        /* \"#utility.yul\":12330:12350   */\n      sub\n        /* \"#utility.yul\":12326:12327   */\n      0x00\n        /* \"#utility.yul\":12315:12324   */\n      dup4\n        /* \"#utility.yul\":12311:12328   */\n      add\n        /* \"#utility.yul\":12304:12351   */\n      mstore\n        /* \"#utility.yul\":12368:12499   */\n      tag_369\n        /* \"#utility.yul\":12494:12498   */\n      dup2\n        /* \"#utility.yul\":12368:12499   */\n      tag_244\n      jump\t// in\n    tag_369:\n        /* \"#utility.yul\":12360:12499   */\n      swap1\n      pop\n        /* \"#utility.yul\":12087:12506   */\n      swap2\n      swap1\n      pop\n      jump\t// out\n        /* \"#utility.yul\":12512:12703   */\n    tag_140:\n        /* \"#utility.yul\":12552:12555   */\n      0x00\n        /* \"#utility.yul\":12571:12591   */\n      tag_371\n        /* \"#utility.yul\":12589:12590   */\n      dup3\n        /* \"#utility.yul\":12571:12591   */\n      tag_212\n      jump\t// in\n    tag_371:\n        /* \"#utility.yul\":12566:12591   */\n      swap2\n      pop\n        /* \"#utility.yul\":12605:12625   */\n      tag_372\n        /* \"#utility.yul\":12623:12624   */\n      dup4\n        /* \"#utility.yul\":12605:12625   */\n      tag_212\n      jump\t// in\n    tag_372:\n        /* \"#utility.yul\":12600:12625   */\n      swap3\n      pop\n        /* \"#utility.yul\":12648:12649   */\n      dup3\n        /* \"#utility.yul\":12645:12646   */\n      dup3\n        /* \"#utility.yul\":12641:12650   */\n      add\n        /* \"#utility.yul\":12634:12650   */\n      swap1\n      pop\n        /* \"#utility.yul\":12669:12672   */\n      dup1\n        /* \"#utility.yul\":12666:12667   */\n      dup3\n        /* \"#utility.yul\":12663:12673   */\n      gt\n        /* \"#utility.yul\":12660:12696   */\n      iszero\n      tag_373\n      jumpi\n        /* \"#utility.yul\":12676:12694   */\n      tag_374\n      tag_225\n      jump\t// in\n    tag_374:\n        /* \"#utility.yul\":12660:12696   */\n    tag_373:\n        /* \"#utility.yul\":12512:12703   */\n      swap3\n      swap2\n      pop\n      pop\n      jump\t// out\n        /* \"#utility.yul\":12709:12879   */\n    tag_245:\n        /* \"#utility.yul\":12849:12871   */\n      0x4661696c656420746f2073656e64204574686572000000000000000000000000\n        /* \"#utility.yul\":12845:12846   */\n      0x00\n        /* \"#utility.yul\":12837:12843   */\n      dup3\n        /* \"#utility.yul\":12833:12847   */\n      add\n        /* \"#utility.yul\":12826:12872   */\n      mstore\n        /* \"#utility.yul\":12709:12879   */\n      pop\n      jump\t// out\n        /* \"#utility.yul\":12885:13251   */\n    tag_246:\n        /* \"#utility.yul\":13027:13030   */\n      0x00\n        /* \"#utility.yul\":13048:13115   */\n      tag_377\n        /* \"#utility.yul\":13112:13114   */\n      0x14\n        /* \"#utility.yul\":13107:13110   */\n      dup4\n        /* \"#utility.yul\":13048:13115   */\n      tag_227\n      jump\t// in\n    tag_377:\n        /* \"#utility.yul\":13041:13115   */\n      swap2\n      pop\n        /* \"#utility.yul\":13124:13217   */\n      tag_378\n        /* \"#utility.yul\":13213:13216   */\n      dup3\n        /* \"#utility.yul\":13124:13217   */\n      tag_245\n      jump\t// in\n    tag_378:\n        /* \"#utility.yul\":13242:13244   */\n      0x20\n        /* \"#utility.yul\":13237:13240   */\n      dup3\n        /* \"#utility.yul\":13233:13245   */\n      add\n        /* \"#utility.yul\":13226:13245   */\n      swap1\n      pop\n        /* \"#utility.yul\":12885:13251   */\n      swap2\n      swap1\n      pop\n      jump\t// out\n        /* \"#utility.yul\":13257:13676   */\n    tag_149:\n        /* \"#utility.yul\":13423:13427   */\n      0x00\n        /* \"#utility.yul\":13461:13463   */\n      0x20\n        /* \"#utility.yul\":13450:13459   */\n      dup3\n        /* \"#utility.yul\":13446:13464   */\n      add\n        /* \"#utility.yul\":13438:13464   */\n      swap1\n      pop\n        /* \"#utility.yul\":13510:13519   */\n      dup2\n        /* \"#utility.yul\":13504:13508   */\n      dup2\n        /* \"#utility.yul\":13500:13520   */\n      sub\n        /* \"#utility.yul\":13496:13497   */\n      0x00\n        /* \"#utility.yul\":13485:13494   */\n      dup4\n        /* \"#utility.yul\":13481:13498   */\n      add\n        /* \"#utility.yul\":13474:13521   */\n      mstore\n        /* \"#utility.yul\":13538:13669   */\n      tag_380\n        /* \"#utility.yul\":13664:13668   */\n      dup2\n        /* \"#utility.yul\":13538:13669   */\n      tag_246\n      jump\t// in\n    tag_380:\n        /* \"#utility.yul\":13530:13669   */\n      swap1\n      pop\n        /* \"#utility.yul\":13257:13676   */\n      swap2\n      swap1\n      pop\n      jump\t// out\n        /* \"#utility.yul\":13682:14124   */\n    tag_168:\n        /* \"#utility.yul\":13831:13835   */\n      0x00\n        /* \"#utility.yul\":13869:13871   */\n      0x60\n        /* \"#utility.yul\":13858:13867   */\n      dup3\n        /* \"#utility.yul\":13854:13872   */\n      add\n        /* \"#utility.yul\":13846:13872   */\n      swap1\n      pop\n        /* \"#utility.yul\":13882:13953   */\n      tag_382\n        /* \"#utility.yul\":13950:13951   */\n      0x00\n        /* \"#utility.yul\":13939:13948   */\n      dup4\n        /* \"#utility.yul\":13935:13952   */\n      add\n        /* \"#utility.yul\":13926:13932   */\n      dup7\n        /* \"#utility.yul\":13882:13953   */\n      tag_232\n      jump\t// in\n    tag_382:\n        /* \"#utility.yul\":13963:14035   */\n      tag_383\n        /* \"#utility.yul\":14031:14033   */\n      0x20\n        /* \"#utility.yul\":14020:14029   */\n      dup4\n        /* \"#utility.yul\":14016:14034   */\n      add\n        /* \"#utility.yul\":14007:14013   */\n      dup6\n        /* \"#utility.yul\":13963:14035   */\n      tag_232\n      jump\t// in\n    tag_383:\n        /* \"#utility.yul\":14045:14117   */\n      tag_384\n        /* \"#utility.yul\":14113:14115   */\n      0x40\n        /* \"#utility.yul\":14102:14111   */\n      dup4\n        /* \"#utility.yul\":14098:14116   */\n      add\n        /* \"#utility.yul\":14089:14095   */\n      dup5\n        /* \"#utility.yul\":14045:14117   */\n      tag_215\n      jump\t// in\n    tag_384:\n        /* \"#utility.yul\":13682:14124   */\n      swap5\n      swap4\n      pop\n      pop\n      pop\n      pop\n      jump\t// out\n        /* \"#utility.yul\":14130:14302   */\n    tag_247:\n        /* \"#utility.yul\":14270:14294   */\n      0x636f6e747261637445746842616c616e6365203d203000000000000000000000\n        /* \"#utility.yul\":14266:14267   */\n      0x00\n        /* \"#utility.yul\":14258:14264   */\n      dup3\n        /* \"#utility.yul\":14254:14268   */\n      add\n        /* \"#utility.yul\":14247:14295   */\n      mstore\n        /* \"#utility.yul\":14130:14302   */\n      pop\n      jump\t// out\n        /* \"#utility.yul\":14308:14674   */\n    tag_248:\n        /* \"#utility.yul\":14450:14453   */\n      0x00\n        /* \"#utility.yul\":14471:14538   */\n      tag_387\n        /* \"#utility.yul\":14535:14537   */\n      0x16\n        /* \"#utility.yul\":14530:14533   */\n      dup4\n        /* \"#utility.yul\":14471:14538   */\n      tag_227\n      jump\t// in\n    tag_387:\n        /* \"#utility.yul\":14464:14538   */\n      swap2\n      pop\n        /* \"#utility.yul\":14547:14640   */\n      tag_388\n        /* \"#utility.yul\":14636:14639   */\n      dup3\n        /* \"#utility.yul\":14547:14640   */\n      tag_247\n      jump\t// in\n    tag_388:\n        /* \"#utility.yul\":14665:14667   */\n      0x20\n        /* \"#utility.yul\":14660:14663   */\n      dup3\n        /* \"#utility.yul\":14656:14668   */\n      add\n        /* \"#utility.yul\":14649:14668   */\n      swap1\n      pop\n        /* \"#utility.yul\":14308:14674   */\n      swap2\n      swap1\n      pop\n      jump\t// out\n        /* \"#utility.yul\":14680:15099   */\n    tag_206:\n        /* \"#utility.yul\":14846:14850   */\n      0x00\n        /* \"#utility.yul\":14884:14886   */\n      0x20\n        /* \"#utility.yul\":14873:14882   */\n      dup3\n        /* \"#utility.yul\":14869:14887   */\n      add\n        /* \"#utility.yul\":14861:14887   */\n      swap1\n      pop\n        /* \"#utility.yul\":14933:14942   */\n      dup2\n        /* \"#utility.yul\":14927:14931   */\n      dup2\n        /* \"#utility.yul\":14923:14943   */\n      sub\n        /* \"#utility.yul\":14919:14920   */\n      0x00\n        /* \"#utility.yul\":14908:14917   */\n      dup4\n        /* \"#utility.yul\":14904:14921   */\n      add\n        /* \"#utility.yul\":14897:14944   */\n      mstore\n        /* \"#utility.yul\":14961:15092   */\n      tag_390\n        /* \"#utility.yul\":15087:15091   */\n      dup2\n        /* \"#utility.yul\":14961:15092   */\n      tag_248\n      jump\t// in\n    tag_390:\n        /* \"#utility.yul\":14953:15092   */\n      swap1\n      pop\n        /* \"#utility.yul\":14680:15099   */\n      swap2\n      swap1\n      pop\n      jump\t// out\n\n    auxdata: 0xa2646970667358221220e8c1067b4c66d80adf746797104fac93d4b0f21b1db5131df49bbfd7252c15a964736f6c63430008160033\n}\n",
				"bytecode": {
					"linkReferences": {},
					"object": "60a06040523480156200001157600080fd5b50604051620018dc380380620018dc8339818101604052810190620000379190620000dc565b8073ffffffffffffffffffffffffffffffffffffffff1660808173ffffffffffffffffffffffffffffffffffffffff1681525050506200010e565b600080fd5b600073ffffffffffffffffffffffffffffffffffffffff82169050919050565b6000620000a48262000077565b9050919050565b620000b68162000097565b8114620000c257600080fd5b50565b600081519050620000d681620000ab565b92915050565b600060208284031215620000f557620000f462000072565b5b60006200010584828501620000c5565b91505092915050565b608051611796620001466000396000818161056c015281816108e001528181610ab001528181610cf20152610fa301526117966000f3fe6080604052600436106100ec5760003560e01c8063903875f71161008a578063e0ba200011610059578063e0ba200014610331578063eb521a4c1461035c578063ed7bf8681461038c578063fc0c546a146103c9576100f3565b8063903875f714610261578063a932492f1461029e578063c8ab8325146102c9578063c969103414610306576100f3565b806329cbab3e116100c657806329cbab3e1461019e5780635d58ce36146101bc5780636fd0ea92146101e757806379ed356214610224576100f3565b80630a861f2a146100f85780631cde622614610136578063240f3dea14610161576100f3565b366100f357005b600080fd5b34801561010457600080fd5b5061011f600480360381019061011a9190611000565b6103f4565b60405161012d92919061103c565b60405180910390f35b34801561014257600080fd5b5061014b610745565b6040516101589190611065565b60405180910390f35b34801561016d57600080fd5b5061018860048036038101906101839190611000565b61074b565b6040516101959190611065565b60405180910390f35b6101a66107b3565b6040516101b39190611065565b60405180910390f35b3480156101c857600080fd5b506101d16109cf565b6040516101de9190611065565b60405180910390f35b3480156101f357600080fd5b5061020e600480360381019061020991906110de565b6109d5565b60405161021b9190611065565b60405180910390f35b34801561023057600080fd5b5061024b60048036038101906102469190611000565b6109ed565b6040516102589190611065565b60405180910390f35b34801561026d57600080fd5b5061028860048036038101906102839190611000565b610a2f565b6040516102959190611065565b60405180910390f35b3480156102aa57600080fd5b506102b3610a71565b6040516102c09190611065565b60405180910390f35b3480156102d557600080fd5b506102f060048036038101906102eb9190611000565b610a77565b6040516102fd9190611065565b60405180910390f35b34801561031257600080fd5b5061031b610c4e565b6040516103289190611065565b60405180910390f35b34801561033d57600080fd5b50610346610c54565b6040516103539190611065565b60405180910390f35b61037660048036038101906103719190611000565b610c9b565b6040516103839190611065565b60405180910390f35b34801561039857600080fd5b506103b360048036038101906103ae9190611000565b610f39565b6040516103c09190611065565b60405180910390f35b3480156103d557600080fd5b506103de610fa1565b6040516103eb919061116a565b60405180910390f35b60008060006002546000548561040a91906111b4565b6104149190611225565b905060006002546001548661042991906111b4565b6104339190611225565b9050600360003373ffffffffffffffffffffffffffffffffffffffff1673ffffffffffffffffffffffffffffffffffffffff168152602001908152602001600020548511156104b7576040517f08c379a00000000000000000000000000000000000000000000000000000000081526004016104ae906112d9565b60405180910390fd5b60025485106104fb576040517f08c379a00000000000000000000000000000000000000000000000000000000081526004016104f29061136b565b60405180910390fd5b84600360003373ffffffffffffffffffffffffffffffffffffffff1673ffffffffffffffffffffffffffffffffffffffff168152602001908152602001600020600082825461054a919061138b565b925050819055508460026000828254610563919061138b565b925050819055507f000000000000000000000000000000000000000000000000000000000000000073ffffffffffffffffffffffffffffffffffffffff1663a9059cbb33846040518363ffffffff1660e01b81526004016105c59291906113ce565b6020604051808303816000875af11580156105e4573d6000803e3d6000fd5b505050506040513d601f19601f82011682018060405250810190610608919061142f565b5060003373ffffffffffffffffffffffffffffffffffffffff168260405161062f9061148d565b60006040518083038185875af1925050503d806000811461066c576040519150601f19603f3d011682016040523d82523d6000602084013e610671565b606091505b50509050806106b5576040517f08c379a00000000000000000000000000000000000000000000000000000000081526004016106ac906114ee565b60405180910390fd5b826000808282546106c6919061138b565b9250508190555081600160008282546106df919061138b565b925050819055506000546001546106f691906111b4565b6004819055507fb14f451e613015c13a17c78777f1d87fcb448d7330d67299a09b8f2db38aab1083838860405161072f9392919061150e565b60405180910390a1828294509450505050915091565b60025481565b60008060005411610791576040517f08c379a000000000000000000000000000000000000000000000000000000000815260040161078890611591565b60405180910390fd5b600054826001546107a291906111b4565b6107ac9190611225565b9050919050565b600080349050600081116107fc576040517f08c379a00000000000000000000000000000000000000000000000000000000081526004016107f3906115fd565b60405180910390fd5b60008160015461080c919061161d565b905060008160045461081e9190611225565b9050600081600054610830919061138b565b905060003073ffffffffffffffffffffffffffffffffffffffff16856040516108589061148d565b60006040518083038185875af1925050503d8060008114610895576040519150601f19603f3d011682016040523d82523d6000602084013e61089a565b606091505b50509050806108de576040517f08c379a00000000000000000000000000000000000000000000000000000000081526004016108d59061169d565b60405180910390fd5b7f000000000000000000000000000000000000000000000000000000000000000073ffffffffffffffffffffffffffffffffffffffff1663a9059cbb33846040518363ffffffff1660e01b81526004016109399291906113ce565b6020604051808303816000875af1158015610958573d6000803e3d6000fd5b505050506040513d601f19601f8201168201806040525081019061097c919061142f565b5082600081905550836001819055507fcdfc57b3d0cdc24b23cea1f480aabea287321f5bee23ad76c2b52fa7982f5ea582866040516109bc92919061103c565b60405180910390a1819550505050505090565b60015481565b60036020528060005260406000206000915090505481565b600080826001546109fe919061161d565b9050600081600454610a109190611225565b9050600081600054610a22919061138b565b9050809350505050919050565b60008082600054610a40919061161d565b9050600081600454610a529190611225565b9050600081600154610a64919061138b565b9050809350505050919050565b60045481565b60008082600054610a88919061161d565b9050600081600454610a9a9190611225565b9050600081600154610aac919061138b565b90507f000000000000000000000000000000000000000000000000000000000000000073ffffffffffffffffffffffffffffffffffffffff166323b872dd3330886040518463ffffffff1660e01b8152600401610b0b939291906116bd565b6020604051808303816000875af1158015610b2a573d6000803e3d6000fd5b505050506040513d601f19601f82011682018060405250810190610b4e919061142f565b5060003373ffffffffffffffffffffffffffffffffffffffff1682604051610b759061148d565b60006040518083038185875af1925050503d8060008114610bb2576040519150601f19603f3d011682016040523d82523d6000602084013e610bb7565b606091505b5050905080610bfb576040517f08c379a0000000000000000000000000000000000000000000000000000000008152600401610bf2906114ee565b60405180910390fd5b83600081905550826001819055507f3297a389bb586920e62a196af529d5f42651b17a1013d6bfe77f22372a0b21128683604051610c3a92919061103c565b60405180910390a181945050505050919050565b60005481565b6000600360003373ffffffffffffffffffffffffffffffffffffffff1673ffffffffffffffffffffffffffffffffffffffff16815260200190815260200160002054905090565b60008060008060025403610cb55760649150349050610cf0565b60005484600254610cc691906111b4565b610cd09190611225565b915060005484600154610ce391906111b4565b610ced9190611225565b90505b7f000000000000000000000000000000000000000000000000000000000000000073ffffffffffffffffffffffffffffffffffffffff166323b872dd3330876040518463ffffffff1660e01b8152600401610d4d939291906116bd565b6020604051808303816000875af1158015610d6c573d6000803e3d6000fd5b505050506040513d601f19601f82011682018060405250810190610d90919061142f565b5060003073ffffffffffffffffffffffffffffffffffffffff1682604051610db79061148d565b60006040518083038185875af1925050503d8060008114610df4576040519150601f19603f3d011682016040523d82523d6000602084013e610df9565b606091505b5050905080610e3d576040517f08c379a0000000000000000000000000000000000000000000000000000000008152600401610e349061169d565b60405180910390fd5b82600360003373ffffffffffffffffffffffffffffffffffffffff1673ffffffffffffffffffffffffffffffffffffffff1681526020019081526020016000206000828254610e8c919061161d565b925050819055508260026000828254610ea5919061161d565b9250508190555084600080828254610ebd919061161d565b925050819055508160016000828254610ed6919061161d565b92505081905550600054600154610eed91906111b4565b6004819055507faa58f006cc244b2af6662862508bd39465f57169ff8386d1d1f7b0b903150abc858385604051610f269392919061150e565b60405180910390a1829350505050919050565b60008060015411610f7f576040517f08c379a0000000000000000000000000000000000000000000000000000000008152600401610f7690611740565b60405180910390fd5b60015482600054610f9091906111b4565b610f9a9190611225565b9050919050565b7f000000000000000000000000000000000000000000000000000000000000000081565b600080fd5b6000819050919050565b610fdd81610fca565b8114610fe857600080fd5b50565b600081359050610ffa81610fd4565b92915050565b60006020828403121561101657611015610fc5565b5b600061102484828501610feb565b91505092915050565b61103681610fca565b82525050565b6000604082019050611051600083018561102d565b61105e602083018461102d565b9392505050565b600060208201905061107a600083018461102d565b92915050565b600073ffffffffffffffffffffffffffffffffffffffff82169050919050565b60006110ab82611080565b9050919050565b6110bb816110a0565b81146110c657600080fd5b50565b6000813590506110d8816110b2565b92915050565b6000602082840312156110f4576110f3610fc5565b5b6000611102848285016110c9565b91505092915050565b6000819050919050565b600061113061112b61112684611080565b61110b565b611080565b9050919050565b600061114282611115565b9050919050565b600061115482611137565b9050919050565b61116481611149565b82525050565b600060208201905061117f600083018461115b565b92915050565b7f4e487b7100000000000000000000000000000000000000000000000000000000600052601160045260246000fd5b60006111bf82610fca565b91506111ca83610fca565b92508282026111d881610fca565b915082820484148315176111ef576111ee611185565b5b5092915050565b7f4e487b7100000000000000000000000000000000000000000000000000000000600052601260045260246000fd5b600061123082610fca565b915061123b83610fca565b92508261124b5761124a6111f6565b5b828204905092915050565b600082825260208201905092915050565b7f43616e27742067697665207570206d6f7265206c697175696469747920706f7360008201527f6974696f6e73207468616e20796f75206f776e00000000000000000000000000602082015250565b60006112c3603383611256565b91506112ce82611267565b604082019050919050565b600060208201905081810360008301526112f2816112b6565b9050919050565b7f43616e2774206769766520757020616c6c20746865206c69717569646974792060008201527f706f736974696f6e7320696e2074686520706f6f6c0000000000000000000000602082015250565b6000611355603583611256565b9150611360826112f9565b604082019050919050565b6000602082019050818103600083015261138481611348565b9050919050565b600061139682610fca565b91506113a183610fca565b92508282039050818111156113b9576113b8611185565b5b92915050565b6113c8816110a0565b82525050565b60006040820190506113e360008301856113bf565b6113f0602083018461102d565b9392505050565b60008115159050919050565b61140c816113f7565b811461141757600080fd5b50565b60008151905061142981611403565b92915050565b60006020828403121561144557611444610fc5565b5b60006114538482850161141a565b91505092915050565b600081905092915050565b50565b600061147760008361145c565b915061148282611467565b600082019050919050565b60006114988261146a565b9150819050919050565b7f6661696c656420746f2073656e64204574686572000000000000000000000000600082015250565b60006114d8601483611256565b91506114e3826114a2565b602082019050919050565b60006020820190508181036000830152611507816114cb565b9050919050565b6000606082019050611523600083018661102d565b611530602083018561102d565b61153d604083018461102d565b949350505050565b7f636f6e74726163744552433230546f6b656e42616c616e6365203d2030000000600082015250565b600061157b601d83611256565b915061158682611545565b602082019050919050565b600060208201905081810360008301526115aa8161156e565b9050919050565b7f457468206d73672e76616c7565203d2030000000000000000000000000000000600082015250565b60006115e7601183611256565b91506115f2826115b1565b602082019050919050565b60006020820190508181036000830152611616816115da565b9050919050565b600061162882610fca565b915061163383610fca565b925082820190508082111561164b5761164a611185565b5b92915050565b7f4661696c656420746f2073656e64204574686572000000000000000000000000600082015250565b6000611687601483611256565b915061169282611651565b602082019050919050565b600060208201905081810360008301526116b68161167a565b9050919050565b60006060820190506116d260008301866113bf565b6116df60208301856113bf565b6116ec604083018461102d565b949350505050565b7f636f6e747261637445746842616c616e6365203d203000000000000000000000600082015250565b600061172a601683611256565b9150611735826116f4565b602082019050919050565b600060208201905081810360008301526117598161171d565b905091905056fea2646970667358221220e8c1067b4c66d80adf746797104fac93d4b0f21b1db5131df49bbfd7252c15a964736f6c63430008160033",
					"opcodes": "PUSH1 0xA0 PUSH1 0x40 MSTORE CALLVALUE DUP1 ISZERO PUSH3 0x11 JUMPI PUSH1 0x0 DUP1 REVERT JUMPDEST POP PUSH1 0x40 MLOAD PUSH3 0x18DC CODESIZE SUB DUP1 PUSH3 0x18DC DUP4 CODECOPY DUP2 DUP2 ADD PUSH1 0x40 MSTORE DUP2 ADD SWAP1 PUSH3 0x37 SWAP2 SWAP1 PUSH3 0xDC JUMP JUMPDEST DUP1 PUSH20 0xFFFFFFFFFFFFFFFFFFFFFFFFFFFFFFFFFFFFFFFF AND PUSH1 0x80 DUP2 PUSH20 0xFFFFFFFFFFFFFFFFFFFFFFFFFFFFFFFFFFFFFFFF AND DUP2 MSTORE POP POP POP PUSH3 0x10E JUMP JUMPDEST PUSH1 0x0 DUP1 REVERT JUMPDEST PUSH1 0x0 PUSH20 0xFFFFFFFFFFFFFFFFFFFFFFFFFFFFFFFFFFFFFFFF DUP3 AND SWAP1 POP SWAP2 SWAP1 POP JUMP JUMPDEST PUSH1 0x0 PUSH3 0xA4 DUP3 PUSH3 0x77 JUMP JUMPDEST SWAP1 POP SWAP2 SWAP1 POP JUMP JUMPDEST PUSH3 0xB6 DUP2 PUSH3 0x97 JUMP JUMPDEST DUP2 EQ PUSH3 0xC2 JUMPI PUSH1 0x0 DUP1 REVERT JUMPDEST POP JUMP JUMPDEST PUSH1 0x0 DUP2 MLOAD SWAP1 POP PUSH3 0xD6 DUP2 PUSH3 0xAB JUMP JUMPDEST SWAP3 SWAP2 POP POP JUMP JUMPDEST PUSH1 0x0 PUSH1 0x20 DUP3 DUP5 SUB SLT ISZERO PUSH3 0xF5 JUMPI PUSH3 0xF4 PUSH3 0x72 JUMP JUMPDEST JUMPDEST PUSH1 0x0 PUSH3 0x105 DUP5 DUP3 DUP6 ADD PUSH3 0xC5 JUMP JUMPDEST SWAP2 POP POP SWAP3 SWAP2 POP POP JUMP JUMPDEST PUSH1 0x80 MLOAD PUSH2 0x1796 PUSH3 0x146 PUSH1 0x0 CODECOPY PUSH1 0x0 DUP2 DUP2 PUSH2 0x56C ADD MSTORE DUP2 DUP2 PUSH2 0x8E0 ADD MSTORE DUP2 DUP2 PUSH2 0xAB0 ADD MSTORE DUP2 DUP2 PUSH2 0xCF2 ADD MSTORE PUSH2 0xFA3 ADD MSTORE PUSH2 0x1796 PUSH1 0x0 RETURN INVALID PUSH1 0x80 PUSH1 0x40 MSTORE PUSH1 0x4 CALLDATASIZE LT PUSH2 0xEC JUMPI PUSH1 0x0 CALLDATALOAD PUSH1 0xE0 SHR DUP1 PUSH4 0x903875F7 GT PUSH2 0x8A JUMPI DUP1 PUSH4 0xE0BA2000 GT PUSH2 0x59 JUMPI DUP1 PUSH4 0xE0BA2000 EQ PUSH2 0x331 JUMPI DUP1 PUSH4 0xEB521A4C EQ PUSH2 0x35C JUMPI DUP1 PUSH4 0xED7BF868 EQ PUSH2 0x38C JUMPI DUP1 PUSH4 0xFC0C546A EQ PUSH2 0x3C9 JUMPI PUSH2 0xF3 JUMP JUMPDEST DUP1 PUSH4 0x903875F7 EQ PUSH2 0x261 JUMPI DUP1 PUSH4 0xA932492F EQ PUSH2 0x29E JUMPI DUP1 PUSH4 0xC8AB8325 EQ PUSH2 0x2C9 JUMPI DUP1 PUSH4 0xC9691034 EQ PUSH2 0x306 JUMPI PUSH2 0xF3 JUMP JUMPDEST DUP1 PUSH4 0x29CBAB3E GT PUSH2 0xC6 JUMPI DUP1 PUSH4 0x29CBAB3E EQ PUSH2 0x19E JUMPI DUP1 PUSH4 0x5D58CE36 EQ PUSH2 0x1BC JUMPI DUP1 PUSH4 0x6FD0EA92 EQ PUSH2 0x1E7 JUMPI DUP1 PUSH4 0x79ED3562 EQ PUSH2 0x224 JUMPI PUSH2 0xF3 JUMP JUMPDEST DUP1 PUSH4 0xA861F2A EQ PUSH2 0xF8 JUMPI DUP1 PUSH4 0x1CDE6226 EQ PUSH2 0x136 JUMPI DUP1 PUSH4 0x240F3DEA EQ PUSH2 0x161 JUMPI PUSH2 0xF3 JUMP JUMPDEST CALLDATASIZE PUSH2 0xF3 JUMPI STOP JUMPDEST PUSH1 0x0 DUP1 REVERT JUMPDEST CALLVALUE DUP1 ISZERO PUSH2 0x104 JUMPI PUSH1 0x0 DUP1 REVERT JUMPDEST POP PUSH2 0x11F PUSH1 0x4 DUP1 CALLDATASIZE SUB DUP2 ADD SWAP1 PUSH2 0x11A SWAP2 SWAP1 PUSH2 0x1000 JUMP JUMPDEST PUSH2 0x3F4 JUMP JUMPDEST PUSH1 0x40 MLOAD PUSH2 0x12D SWAP3 SWAP2 SWAP1 PUSH2 0x103C JUMP JUMPDEST PUSH1 0x40 MLOAD DUP1 SWAP2 SUB SWAP1 RETURN JUMPDEST CALLVALUE DUP1 ISZERO PUSH2 0x142 JUMPI PUSH1 0x0 DUP1 REVERT JUMPDEST POP PUSH2 0x14B PUSH2 0x745 JUMP JUMPDEST PUSH1 0x40 MLOAD PUSH2 0x158 SWAP2 SWAP1 PUSH2 0x1065 JUMP JUMPDEST PUSH1 0x40 MLOAD DUP1 SWAP2 SUB SWAP1 RETURN JUMPDEST CALLVALUE DUP1 ISZERO PUSH2 0x16D JUMPI PUSH1 0x0 DUP1 REVERT JUMPDEST POP PUSH2 0x188 PUSH1 0x4 DUP1 CALLDATASIZE SUB DUP2 ADD SWAP1 PUSH2 0x183 SWAP2 SWAP1 PUSH2 0x1000 JUMP JUMPDEST PUSH2 0x74B JUMP JUMPDEST PUSH1 0x40 MLOAD PUSH2 0x195 SWAP2 SWAP1 PUSH2 0x1065 JUMP JUMPDEST PUSH1 0x40 MLOAD DUP1 SWAP2 SUB SWAP1 RETURN JUMPDEST PUSH2 0x1A6 PUSH2 0x7B3 JUMP JUMPDEST PUSH1 0x40 MLOAD PUSH2 0x1B3 SWAP2 SWAP1 PUSH2 0x1065 JUMP JUMPDEST PUSH1 0x40 MLOAD DUP1 SWAP2 SUB SWAP1 RETURN JUMPDEST CALLVALUE DUP1 ISZERO PUSH2 0x1C8 JUMPI PUSH1 0x0 DUP1 REVERT JUMPDEST POP PUSH2 0x1D1 PUSH2 0x9CF JUMP JUMPDEST PUSH1 0x40 MLOAD PUSH2 0x1DE SWAP2 SWAP1 PUSH2 0x1065 JUMP JUMPDEST PUSH1 0x40 MLOAD DUP1 SWAP2 SUB SWAP1 RETURN JUMPDEST CALLVALUE DUP1 ISZERO PUSH2 0x1F3 JUMPI PUSH1 0x0 DUP1 REVERT JUMPDEST POP PUSH2 0x20E PUSH1 0x4 DUP1 CALLDATASIZE SUB DUP2 ADD SWAP1 PUSH2 0x209 SWAP2 SWAP1 PUSH2 0x10DE JUMP JUMPDEST PUSH2 0x9D5 JUMP JUMPDEST PUSH1 0x40 MLOAD PUSH2 0x21B SWAP2 SWAP1 PUSH2 0x1065 JUMP JUMPDEST PUSH1 0x40 MLOAD DUP1 SWAP2 SUB SWAP1 RETURN JUMPDEST CALLVALUE DUP1 ISZERO PUSH2 0x230 JUMPI PUSH1 0x0 DUP1 REVERT JUMPDEST POP PUSH2 0x24B PUSH1 0x4 DUP1 CALLDATASIZE SUB DUP2 ADD SWAP1 PUSH2 0x246 SWAP2 SWAP1 PUSH2 0x1000 JUMP JUMPDEST PUSH2 0x9ED JUMP JUMPDEST PUSH1 0x40 MLOAD PUSH2 0x258 SWAP2 SWAP1 PUSH2 0x1065 JUMP JUMPDEST PUSH1 0x40 MLOAD DUP1 SWAP2 SUB SWAP1 RETURN JUMPDEST CALLVALUE DUP1 ISZERO PUSH2 0x26D JUMPI PUSH1 0x0 DUP1 REVERT JUMPDEST POP PUSH2 0x288 PUSH1 0x4 DUP1 CALLDATASIZE SUB DUP2 ADD SWAP1 PUSH2 0x283 SWAP2 SWAP1 PUSH2 0x1000 JUMP JUMPDEST PUSH2 0xA2F JUMP JUMPDEST PUSH1 0x40 MLOAD PUSH2 0x295 SWAP2 SWAP1 PUSH2 0x1065 JUMP JUMPDEST PUSH1 0x40 MLOAD DUP1 SWAP2 SUB SWAP1 RETURN JUMPDEST CALLVALUE DUP1 ISZERO PUSH2 0x2AA JUMPI PUSH1 0x0 DUP1 REVERT JUMPDEST POP PUSH2 0x2B3 PUSH2 0xA71 JUMP JUMPDEST PUSH1 0x40 MLOAD PUSH2 0x2C0 SWAP2 SWAP1 PUSH2 0x1065 JUMP JUMPDEST PUSH1 0x40 MLOAD DUP1 SWAP2 SUB SWAP1 RETURN JUMPDEST CALLVALUE DUP1 ISZERO PUSH2 0x2D5 JUMPI PUSH1 0x0 DUP1 REVERT JUMPDEST POP PUSH2 0x2F0 PUSH1 0x4 DUP1 CALLDATASIZE SUB DUP2 ADD SWAP1 PUSH2 0x2EB SWAP2 SWAP1 PUSH2 0x1000 JUMP JUMPDEST PUSH2 0xA77 JUMP JUMPDEST PUSH1 0x40 MLOAD PUSH2 0x2FD SWAP2 SWAP1 PUSH2 0x1065 JUMP JUMPDEST PUSH1 0x40 MLOAD DUP1 SWAP2 SUB SWAP1 RETURN JUMPDEST CALLVALUE DUP1 ISZERO PUSH2 0x312 JUMPI PUSH1 0x0 DUP1 REVERT JUMPDEST POP PUSH2 0x31B PUSH2 0xC4E JUMP JUMPDEST PUSH1 0x40 MLOAD PUSH2 0x328 SWAP2 SWAP1 PUSH2 0x1065 JUMP JUMPDEST PUSH1 0x40 MLOAD DUP1 SWAP2 SUB SWAP1 RETURN JUMPDEST CALLVALUE DUP1 ISZERO PUSH2 0x33D JUMPI PUSH1 0x0 DUP1 REVERT JUMPDEST POP PUSH2 0x346 PUSH2 0xC54 JUMP JUMPDEST PUSH1 0x40 MLOAD PUSH2 0x353 SWAP2 SWAP1 PUSH2 0x1065 JUMP JUMPDEST PUSH1 0x40 MLOAD DUP1 SWAP2 SUB SWAP1 RETURN JUMPDEST PUSH2 0x376 PUSH1 0x4 DUP1 CALLDATASIZE SUB DUP2 ADD SWAP1 PUSH2 0x371 SWAP2 SWAP1 PUSH2 0x1000 JUMP JUMPDEST PUSH2 0xC9B JUMP JUMPDEST PUSH1 0x40 MLOAD PUSH2 0x383 SWAP2 SWAP1 PUSH2 0x1065 JUMP JUMPDEST PUSH1 0x40 MLOAD DUP1 SWAP2 SUB SWAP1 RETURN JUMPDEST CALLVALUE DUP1 ISZERO PUSH2 0x398 JUMPI PUSH1 0x0 DUP1 REVERT JUMPDEST POP PUSH2 0x3B3 PUSH1 0x4 DUP1 CALLDATASIZE SUB DUP2 ADD SWAP1 PUSH2 0x3AE SWAP2 SWAP1 PUSH2 0x1000 JUMP JUMPDEST PUSH2 0xF39 JUMP JUMPDEST PUSH1 0x40 MLOAD PUSH2 0x3C0 SWAP2 SWAP1 PUSH2 0x1065 JUMP JUMPDEST PUSH1 0x40 MLOAD DUP1 SWAP2 SUB SWAP1 RETURN JUMPDEST CALLVALUE DUP1 ISZERO PUSH2 0x3D5 JUMPI PUSH1 0x0 DUP1 REVERT JUMPDEST POP PUSH2 0x3DE PUSH2 0xFA1 JUMP JUMPDEST PUSH1 0x40 MLOAD PUSH2 0x3EB SWAP2 SWAP1 PUSH2 0x116A JUMP JUMPDEST PUSH1 0x40 MLOAD DUP1 SWAP2 SUB SWAP1 RETURN JUMPDEST PUSH1 0x0 DUP1 PUSH1 0x0 PUSH1 0x2 SLOAD PUSH1 0x0 SLOAD DUP6 PUSH2 0x40A SWAP2 SWAP1 PUSH2 0x11B4 JUMP JUMPDEST PUSH2 0x414 SWAP2 SWAP1 PUSH2 0x1225 JUMP JUMPDEST SWAP1 POP PUSH1 0x0 PUSH1 0x2 SLOAD PUSH1 0x1 SLOAD DUP7 PUSH2 0x429 SWAP2 SWAP1 PUSH2 0x11B4 JUMP JUMPDEST PUSH2 0x433 SWAP2 SWAP1 PUSH2 0x1225 JUMP JUMPDEST SWAP1 POP PUSH1 0x3 PUSH1 0x0 CALLER PUSH20 0xFFFFFFFFFFFFFFFFFFFFFFFFFFFFFFFFFFFFFFFF AND PUSH20 0xFFFFFFFFFFFFFFFFFFFFFFFFFFFFFFFFFFFFFFFF AND DUP2 MSTORE PUSH1 0x20 ADD SWAP1 DUP2 MSTORE PUSH1 0x20 ADD PUSH1 0x0 KECCAK256 SLOAD DUP6 GT ISZERO PUSH2 0x4B7 JUMPI PUSH1 0x40 MLOAD PUSH32 0x8C379A000000000000000000000000000000000000000000000000000000000 DUP2 MSTORE PUSH1 0x4 ADD PUSH2 0x4AE SWAP1 PUSH2 0x12D9 JUMP JUMPDEST PUSH1 0x40 MLOAD DUP1 SWAP2 SUB SWAP1 REVERT JUMPDEST PUSH1 0x2 SLOAD DUP6 LT PUSH2 0x4FB JUMPI PUSH1 0x40 MLOAD PUSH32 0x8C379A000000000000000000000000000000000000000000000000000000000 DUP2 MSTORE PUSH1 0x4 ADD PUSH2 0x4F2 SWAP1 PUSH2 0x136B JUMP JUMPDEST PUSH1 0x40 MLOAD DUP1 SWAP2 SUB SWAP1 REVERT JUMPDEST DUP5 PUSH1 0x3 PUSH1 0x0 CALLER PUSH20 0xFFFFFFFFFFFFFFFFFFFFFFFFFFFFFFFFFFFFFFFF AND PUSH20 0xFFFFFFFFFFFFFFFFFFFFFFFFFFFFFFFFFFFFFFFF AND DUP2 MSTORE PUSH1 0x20 ADD SWAP1 DUP2 MSTORE PUSH1 0x20 ADD PUSH1 0x0 KECCAK256 PUSH1 0x0 DUP3 DUP3 SLOAD PUSH2 0x54A SWAP2 SWAP1 PUSH2 0x138B JUMP JUMPDEST SWAP3 POP POP DUP2 SWAP1 SSTORE POP DUP5 PUSH1 0x2 PUSH1 0x0 DUP3 DUP3 SLOAD PUSH2 0x563 SWAP2 SWAP1 PUSH2 0x138B JUMP JUMPDEST SWAP3 POP POP DUP2 SWAP1 SSTORE POP PUSH32 0x0 PUSH20 0xFFFFFFFFFFFFFFFFFFFFFFFFFFFFFFFFFFFFFFFF AND PUSH4 0xA9059CBB CALLER DUP5 PUSH1 0x40 MLOAD DUP4 PUSH4 0xFFFFFFFF AND PUSH1 0xE0 SHL DUP2 MSTORE PUSH1 0x4 ADD PUSH2 0x5C5 SWAP3 SWAP2 SWAP1 PUSH2 0x13CE JUMP JUMPDEST PUSH1 0x20 PUSH1 0x40 MLOAD DUP1 DUP4 SUB DUP2 PUSH1 0x0 DUP8 GAS CALL ISZERO DUP1 ISZERO PUSH2 0x5E4 JUMPI RETURNDATASIZE PUSH1 0x0 DUP1 RETURNDATACOPY RETURNDATASIZE PUSH1 0x0 REVERT JUMPDEST POP POP POP POP PUSH1 0x40 MLOAD RETURNDATASIZE PUSH1 0x1F NOT PUSH1 0x1F DUP3 ADD AND DUP3 ADD DUP1 PUSH1 0x40 MSTORE POP DUP2 ADD SWAP1 PUSH2 0x608 SWAP2 SWAP1 PUSH2 0x142F JUMP JUMPDEST POP PUSH1 0x0 CALLER PUSH20 0xFFFFFFFFFFFFFFFFFFFFFFFFFFFFFFFFFFFFFFFF AND DUP3 PUSH1 0x40 MLOAD PUSH2 0x62F SWAP1 PUSH2 0x148D JUMP JUMPDEST PUSH1 0x0 PUSH1 0x40 MLOAD DUP1 DUP4 SUB DUP2 DUP6 DUP8 GAS CALL SWAP3 POP POP POP RETURNDATASIZE DUP1 PUSH1 0x0 DUP2 EQ PUSH2 0x66C JUMPI PUSH1 0x40 MLOAD SWAP2 POP PUSH1 0x1F NOT PUSH1 0x3F RETURNDATASIZE ADD AND DUP3 ADD PUSH1 0x40 MSTORE RETURNDATASIZE DUP3 MSTORE RETURNDATASIZE PUSH1 0x0 PUSH1 0x20 DUP5 ADD RETURNDATACOPY PUSH2 0x671 JUMP JUMPDEST PUSH1 0x60 SWAP2 POP JUMPDEST POP POP SWAP1 POP DUP1 PUSH2 0x6B5 JUMPI PUSH1 0x40 MLOAD PUSH32 0x8C379A000000000000000000000000000000000000000000000000000000000 DUP2 MSTORE PUSH1 0x4 ADD PUSH2 0x6AC SWAP1 PUSH2 0x14EE JUMP JUMPDEST PUSH1 0x40 MLOAD DUP1 SWAP2 SUB SWAP1 REVERT JUMPDEST DUP3 PUSH1 0x0 DUP1 DUP3 DUP3 SLOAD PUSH2 0x6C6 SWAP2 SWAP1 PUSH2 0x138B JUMP JUMPDEST SWAP3 POP POP DUP2 SWAP1 SSTORE POP DUP2 PUSH1 0x1 PUSH1 0x0 DUP3 DUP3 SLOAD PUSH2 0x6DF SWAP2 SWAP1 PUSH2 0x138B JUMP JUMPDEST SWAP3 POP POP DUP2 SWAP1 SSTORE POP PUSH1 0x0 SLOAD PUSH1 0x1 SLOAD PUSH2 0x6F6 SWAP2 SWAP1 PUSH2 0x11B4 JUMP JUMPDEST PUSH1 0x4 DUP2 SWAP1 SSTORE POP PUSH32 0xB14F451E613015C13A17C78777F1D87FCB448D7330D67299A09B8F2DB38AAB10 DUP4 DUP4 DUP9 PUSH1 0x40 MLOAD PUSH2 0x72F SWAP4 SWAP3 SWAP2 SWAP1 PUSH2 0x150E JUMP JUMPDEST PUSH1 0x40 MLOAD DUP1 SWAP2 SUB SWAP1 LOG1 DUP3 DUP3 SWAP5 POP SWAP5 POP POP POP POP SWAP2 POP SWAP2 JUMP JUMPDEST PUSH1 0x2 SLOAD DUP2 JUMP JUMPDEST PUSH1 0x0 DUP1 PUSH1 0x0 SLOAD GT PUSH2 0x791 JUMPI PUSH1 0x40 MLOAD PUSH32 0x8C379A000000000000000000000000000000000000000000000000000000000 DUP2 MSTORE PUSH1 0x4 ADD PUSH2 0x788 SWAP1 PUSH2 0x1591 JUMP JUMPDEST PUSH1 0x40 MLOAD DUP1 SWAP2 SUB SWAP1 REVERT JUMPDEST PUSH1 0x0 SLOAD DUP3 PUSH1 0x1 SLOAD PUSH2 0x7A2 SWAP2 SWAP1 PUSH2 0x11B4 JUMP JUMPDEST PUSH2 0x7AC SWAP2 SWAP1 PUSH2 0x1225 JUMP JUMPDEST SWAP1 POP SWAP2 SWAP1 POP JUMP JUMPDEST PUSH1 0x0 DUP1 CALLVALUE SWAP1 POP PUSH1 0x0 DUP2 GT PUSH2 0x7FC JUMPI PUSH1 0x40 MLOAD PUSH32 0x8C379A000000000000000000000000000000000000000000000000000000000 DUP2 MSTORE PUSH1 0x4 ADD PUSH2 0x7F3 SWAP1 PUSH2 0x15FD JUMP JUMPDEST PUSH1 0x40 MLOAD DUP1 SWAP2 SUB SWAP1 REVERT JUMPDEST PUSH1 0x0 DUP2 PUSH1 0x1 SLOAD PUSH2 0x80C SWAP2 SWAP1 PUSH2 0x161D JUMP JUMPDEST SWAP1 POP PUSH1 0x0 DUP2 PUSH1 0x4 SLOAD PUSH2 0x81E SWAP2 SWAP1 PUSH2 0x1225 JUMP JUMPDEST SWAP1 POP PUSH1 0x0 DUP2 PUSH1 0x0 SLOAD PUSH2 0x830 SWAP2 SWAP1 PUSH2 0x138B JUMP JUMPDEST SWAP1 POP PUSH1 0x0 ADDRESS PUSH20 0xFFFFFFFFFFFFFFFFFFFFFFFFFFFFFFFFFFFFFFFF AND DUP6 PUSH1 0x40 MLOAD PUSH2 0x858 SWAP1 PUSH2 0x148D JUMP JUMPDEST PUSH1 0x0 PUSH1 0x40 MLOAD DUP1 DUP4 SUB DUP2 DUP6 DUP8 GAS CALL SWAP3 POP POP POP RETURNDATASIZE DUP1 PUSH1 0x0 DUP2 EQ PUSH2 0x895 JUMPI PUSH1 0x40 MLOAD SWAP2 POP PUSH1 0x1F NOT PUSH1 0x3F RETURNDATASIZE ADD AND DUP3 ADD PUSH1 0x40 MSTORE RETURNDATASIZE DUP3 MSTORE RETURNDATASIZE PUSH1 0x0 PUSH1 0x20 DUP5 ADD RETURNDATACOPY PUSH2 0x89A JUMP JUMPDEST PUSH1 0x60 SWAP2 POP JUMPDEST POP POP SWAP1 POP DUP1 PUSH2 0x8DE JUMPI PUSH1 0x40 MLOAD PUSH32 0x8C379A000000000000000000000000000000000000000000000000000000000 DUP2 MSTORE PUSH1 0x4 ADD PUSH2 0x8D5 SWAP1 PUSH2 0x169D JUMP JUMPDEST PUSH1 0x40 MLOAD DUP1 SWAP2 SUB SWAP1 REVERT JUMPDEST PUSH32 0x0 PUSH20 0xFFFFFFFFFFFFFFFFFFFFFFFFFFFFFFFFFFFFFFFF AND PUSH4 0xA9059CBB CALLER DUP5 PUSH1 0x40 MLOAD DUP4 PUSH4 0xFFFFFFFF AND PUSH1 0xE0 SHL DUP2 MSTORE PUSH1 0x4 ADD PUSH2 0x939 SWAP3 SWAP2 SWAP1 PUSH2 0x13CE JUMP JUMPDEST PUSH1 0x20 PUSH1 0x40 MLOAD DUP1 DUP4 SUB DUP2 PUSH1 0x0 DUP8 GAS CALL ISZERO DUP1 ISZERO PUSH2 0x958 JUMPI RETURNDATASIZE PUSH1 0x0 DUP1 RETURNDATACOPY RETURNDATASIZE PUSH1 0x0 REVERT JUMPDEST POP POP POP POP PUSH1 0x40 MLOAD RETURNDATASIZE PUSH1 0x1F NOT PUSH1 0x1F DUP3 ADD AND DUP3 ADD DUP1 PUSH1 0x40 MSTORE POP DUP2 ADD SWAP1 PUSH2 0x97C SWAP2 SWAP1 PUSH2 0x142F JUMP JUMPDEST POP DUP3 PUSH1 0x0 DUP2 SWAP1 SSTORE POP DUP4 PUSH1 0x1 DUP2 SWAP1 SSTORE POP PUSH32 0xCDFC57B3D0CDC24B23CEA1F480AABEA287321F5BEE23AD76C2B52FA7982F5EA5 DUP3 DUP7 PUSH1 0x40 MLOAD PUSH2 0x9BC SWAP3 SWAP2 SWAP1 PUSH2 0x103C JUMP JUMPDEST PUSH1 0x40 MLOAD DUP1 SWAP2 SUB SWAP1 LOG1 DUP2 SWAP6 POP POP POP POP POP POP SWAP1 JUMP JUMPDEST PUSH1 0x1 SLOAD DUP2 JUMP JUMPDEST PUSH1 0x3 PUSH1 0x20 MSTORE DUP1 PUSH1 0x0 MSTORE PUSH1 0x40 PUSH1 0x0 KECCAK256 PUSH1 0x0 SWAP2 POP SWAP1 POP SLOAD DUP2 JUMP JUMPDEST PUSH1 0x0 DUP1 DUP3 PUSH1 0x1 SLOAD PUSH2 0x9FE SWAP2 SWAP1 PUSH2 0x161D JUMP JUMPDEST SWAP1 POP PUSH1 0x0 DUP2 PUSH1 0x4 SLOAD PUSH2 0xA10 SWAP2 SWAP1 PUSH2 0x1225 JUMP JUMPDEST SWAP1 POP PUSH1 0x0 DUP2 PUSH1 0x0 SLOAD PUSH2 0xA22 SWAP2 SWAP1 PUSH2 0x138B JUMP JUMPDEST SWAP1 POP DUP1 SWAP4 POP POP POP POP SWAP2 SWAP1 POP JUMP JUMPDEST PUSH1 0x0 DUP1 DUP3 PUSH1 0x0 SLOAD PUSH2 0xA40 SWAP2 SWAP1 PUSH2 0x161D JUMP JUMPDEST SWAP1 POP PUSH1 0x0 DUP2 PUSH1 0x4 SLOAD PUSH2 0xA52 SWAP2 SWAP1 PUSH2 0x1225 JUMP JUMPDEST SWAP1 POP PUSH1 0x0 DUP2 PUSH1 0x1 SLOAD PUSH2 0xA64 SWAP2 SWAP1 PUSH2 0x138B JUMP JUMPDEST SWAP1 POP DUP1 SWAP4 POP POP POP POP SWAP2 SWAP1 POP JUMP JUMPDEST PUSH1 0x4 SLOAD DUP2 JUMP JUMPDEST PUSH1 0x0 DUP1 DUP3 PUSH1 0x0 SLOAD PUSH2 0xA88 SWAP2 SWAP1 PUSH2 0x161D JUMP JUMPDEST SWAP1 POP PUSH1 0x0 DUP2 PUSH1 0x4 SLOAD PUSH2 0xA9A SWAP2 SWAP1 PUSH2 0x1225 JUMP JUMPDEST SWAP1 POP PUSH1 0x0 DUP2 PUSH1 0x1 SLOAD PUSH2 0xAAC SWAP2 SWAP1 PUSH2 0x138B JUMP JUMPDEST SWAP1 POP PUSH32 0x0 PUSH20 0xFFFFFFFFFFFFFFFFFFFFFFFFFFFFFFFFFFFFFFFF AND PUSH4 0x23B872DD CALLER ADDRESS DUP9 PUSH1 0x40 MLOAD DUP5 PUSH4 0xFFFFFFFF AND PUSH1 0xE0 SHL DUP2 MSTORE PUSH1 0x4 ADD PUSH2 0xB0B SWAP4 SWAP3 SWAP2 SWAP1 PUSH2 0x16BD JUMP JUMPDEST PUSH1 0x20 PUSH1 0x40 MLOAD DUP1 DUP4 SUB DUP2 PUSH1 0x0 DUP8 GAS CALL ISZERO DUP1 ISZERO PUSH2 0xB2A JUMPI RETURNDATASIZE PUSH1 0x0 DUP1 RETURNDATACOPY RETURNDATASIZE PUSH1 0x0 REVERT JUMPDEST POP POP POP POP PUSH1 0x40 MLOAD RETURNDATASIZE PUSH1 0x1F NOT PUSH1 0x1F DUP3 ADD AND DUP3 ADD DUP1 PUSH1 0x40 MSTORE POP DUP2 ADD SWAP1 PUSH2 0xB4E SWAP2 SWAP1 PUSH2 0x142F JUMP JUMPDEST POP PUSH1 0x0 CALLER PUSH20 0xFFFFFFFFFFFFFFFFFFFFFFFFFFFFFFFFFFFFFFFF AND DUP3 PUSH1 0x40 MLOAD PUSH2 0xB75 SWAP1 PUSH2 0x148D JUMP JUMPDEST PUSH1 0x0 PUSH1 0x40 MLOAD DUP1 DUP4 SUB DUP2 DUP6 DUP8 GAS CALL SWAP3 POP POP POP RETURNDATASIZE DUP1 PUSH1 0x0 DUP2 EQ PUSH2 0xBB2 JUMPI PUSH1 0x40 MLOAD SWAP2 POP PUSH1 0x1F NOT PUSH1 0x3F RETURNDATASIZE ADD AND DUP3 ADD PUSH1 0x40 MSTORE RETURNDATASIZE DUP3 MSTORE RETURNDATASIZE PUSH1 0x0 PUSH1 0x20 DUP5 ADD RETURNDATACOPY PUSH2 0xBB7 JUMP JUMPDEST PUSH1 0x60 SWAP2 POP JUMPDEST POP POP SWAP1 POP DUP1 PUSH2 0xBFB JUMPI PUSH1 0x40 MLOAD PUSH32 0x8C379A000000000000000000000000000000000000000000000000000000000 DUP2 MSTORE PUSH1 0x4 ADD PUSH2 0xBF2 SWAP1 PUSH2 0x14EE JUMP JUMPDEST PUSH1 0x40 MLOAD DUP1 SWAP2 SUB SWAP1 REVERT JUMPDEST DUP4 PUSH1 0x0 DUP2 SWAP1 SSTORE POP DUP3 PUSH1 0x1 DUP2 SWAP1 SSTORE POP PUSH32 0x3297A389BB586920E62A196AF529D5F42651B17A1013D6BFE77F22372A0B2112 DUP7 DUP4 PUSH1 0x40 MLOAD PUSH2 0xC3A SWAP3 SWAP2 SWAP1 PUSH2 0x103C JUMP JUMPDEST PUSH1 0x40 MLOAD DUP1 SWAP2 SUB SWAP1 LOG1 DUP2 SWAP5 POP POP POP POP POP SWAP2 SWAP1 POP JUMP JUMPDEST PUSH1 0x0 SLOAD DUP2 JUMP JUMPDEST PUSH1 0x0 PUSH1 0x3 PUSH1 0x0 CALLER PUSH20 0xFFFFFFFFFFFFFFFFFFFFFFFFFFFFFFFFFFFFFFFF AND PUSH20 0xFFFFFFFFFFFFFFFFFFFFFFFFFFFFFFFFFFFFFFFF AND DUP2 MSTORE PUSH1 0x20 ADD SWAP1 DUP2 MSTORE PUSH1 0x20 ADD PUSH1 0x0 KECCAK256 SLOAD SWAP1 POP SWAP1 JUMP JUMPDEST PUSH1 0x0 DUP1 PUSH1 0x0 DUP1 PUSH1 0x2 SLOAD SUB PUSH2 0xCB5 JUMPI PUSH1 0x64 SWAP2 POP CALLVALUE SWAP1 POP PUSH2 0xCF0 JUMP JUMPDEST PUSH1 0x0 SLOAD DUP5 PUSH1 0x2 SLOAD PUSH2 0xCC6 SWAP2 SWAP1 PUSH2 0x11B4 JUMP JUMPDEST PUSH2 0xCD0 SWAP2 SWAP1 PUSH2 0x1225 JUMP JUMPDEST SWAP2 POP PUSH1 0x0 SLOAD DUP5 PUSH1 0x1 SLOAD PUSH2 0xCE3 SWAP2 SWAP1 PUSH2 0x11B4 JUMP JUMPDEST PUSH2 0xCED SWAP2 SWAP1 PUSH2 0x1225 JUMP JUMPDEST SWAP1 POP JUMPDEST PUSH32 0x0 PUSH20 0xFFFFFFFFFFFFFFFFFFFFFFFFFFFFFFFFFFFFFFFF AND PUSH4 0x23B872DD CALLER ADDRESS DUP8 PUSH1 0x40 MLOAD DUP5 PUSH4 0xFFFFFFFF AND PUSH1 0xE0 SHL DUP2 MSTORE PUSH1 0x4 ADD PUSH2 0xD4D SWAP4 SWAP3 SWAP2 SWAP1 PUSH2 0x16BD JUMP JUMPDEST PUSH1 0x20 PUSH1 0x40 MLOAD DUP1 DUP4 SUB DUP2 PUSH1 0x0 DUP8 GAS CALL ISZERO DUP1 ISZERO PUSH2 0xD6C JUMPI RETURNDATASIZE PUSH1 0x0 DUP1 RETURNDATACOPY RETURNDATASIZE PUSH1 0x0 REVERT JUMPDEST POP POP POP POP PUSH1 0x40 MLOAD RETURNDATASIZE PUSH1 0x1F NOT PUSH1 0x1F DUP3 ADD AND DUP3 ADD DUP1 PUSH1 0x40 MSTORE POP DUP2 ADD SWAP1 PUSH2 0xD90 SWAP2 SWAP1 PUSH2 0x142F JUMP JUMPDEST POP PUSH1 0x0 ADDRESS PUSH20 0xFFFFFFFFFFFFFFFFFFFFFFFFFFFFFFFFFFFFFFFF AND DUP3 PUSH1 0x40 MLOAD PUSH2 0xDB7 SWAP1 PUSH2 0x148D JUMP JUMPDEST PUSH1 0x0 PUSH1 0x40 MLOAD DUP1 DUP4 SUB DUP2 DUP6 DUP8 GAS CALL SWAP3 POP POP POP RETURNDATASIZE DUP1 PUSH1 0x0 DUP2 EQ PUSH2 0xDF4 JUMPI PUSH1 0x40 MLOAD SWAP2 POP PUSH1 0x1F NOT PUSH1 0x3F RETURNDATASIZE ADD AND DUP3 ADD PUSH1 0x40 MSTORE RETURNDATASIZE DUP3 MSTORE RETURNDATASIZE PUSH1 0x0 PUSH1 0x20 DUP5 ADD RETURNDATACOPY PUSH2 0xDF9 JUMP JUMPDEST PUSH1 0x60 SWAP2 POP JUMPDEST POP POP SWAP1 POP DUP1 PUSH2 0xE3D JUMPI PUSH1 0x40 MLOAD PUSH32 0x8C379A000000000000000000000000000000000000000000000000000000000 DUP2 MSTORE PUSH1 0x4 ADD PUSH2 0xE34 SWAP1 PUSH2 0x169D JUMP JUMPDEST PUSH1 0x40 MLOAD DUP1 SWAP2 SUB SWAP1 REVERT JUMPDEST DUP3 PUSH1 0x3 PUSH1 0x0 CALLER PUSH20 0xFFFFFFFFFFFFFFFFFFFFFFFFFFFFFFFFFFFFFFFF AND PUSH20 0xFFFFFFFFFFFFFFFFFFFFFFFFFFFFFFFFFFFFFFFF AND DUP2 MSTORE PUSH1 0x20 ADD SWAP1 DUP2 MSTORE PUSH1 0x20 ADD PUSH1 0x0 KECCAK256 PUSH1 0x0 DUP3 DUP3 SLOAD PUSH2 0xE8C SWAP2 SWAP1 PUSH2 0x161D JUMP JUMPDEST SWAP3 POP POP DUP2 SWAP1 SSTORE POP DUP3 PUSH1 0x2 PUSH1 0x0 DUP3 DUP3 SLOAD PUSH2 0xEA5 SWAP2 SWAP1 PUSH2 0x161D JUMP JUMPDEST SWAP3 POP POP DUP2 SWAP1 SSTORE POP DUP5 PUSH1 0x0 DUP1 DUP3 DUP3 SLOAD PUSH2 0xEBD SWAP2 SWAP1 PUSH2 0x161D JUMP JUMPDEST SWAP3 POP POP DUP2 SWAP1 SSTORE POP DUP2 PUSH1 0x1 PUSH1 0x0 DUP3 DUP3 SLOAD PUSH2 0xED6 SWAP2 SWAP1 PUSH2 0x161D JUMP JUMPDEST SWAP3 POP POP DUP2 SWAP1 SSTORE POP PUSH1 0x0 SLOAD PUSH1 0x1 SLOAD PUSH2 0xEED SWAP2 SWAP1 PUSH2 0x11B4 JUMP JUMPDEST PUSH1 0x4 DUP2 SWAP1 SSTORE POP PUSH32 0xAA58F006CC244B2AF6662862508BD39465F57169FF8386D1D1F7B0B903150ABC DUP6 DUP4 DUP6 PUSH1 0x40 MLOAD PUSH2 0xF26 SWAP4 SWAP3 SWAP2 SWAP1 PUSH2 0x150E JUMP JUMPDEST PUSH1 0x40 MLOAD DUP1 SWAP2 SUB SWAP1 LOG1 DUP3 SWAP4 POP POP POP POP SWAP2 SWAP1 POP JUMP JUMPDEST PUSH1 0x0 DUP1 PUSH1 0x1 SLOAD GT PUSH2 0xF7F JUMPI PUSH1 0x40 MLOAD PUSH32 0x8C379A000000000000000000000000000000000000000000000000000000000 DUP2 MSTORE PUSH1 0x4 ADD PUSH2 0xF76 SWAP1 PUSH2 0x1740 JUMP JUMPDEST PUSH1 0x40 MLOAD DUP1 SWAP2 SUB SWAP1 REVERT JUMPDEST PUSH1 0x1 SLOAD DUP3 PUSH1 0x0 SLOAD PUSH2 0xF90 SWAP2 SWAP1 PUSH2 0x11B4 JUMP JUMPDEST PUSH2 0xF9A SWAP2 SWAP1 PUSH2 0x1225 JUMP JUMPDEST SWAP1 POP SWAP2 SWAP1 POP JUMP JUMPDEST PUSH32 0x0 DUP2 JUMP JUMPDEST PUSH1 0x0 DUP1 REVERT JUMPDEST PUSH1 0x0 DUP2 SWAP1 POP SWAP2 SWAP1 POP JUMP JUMPDEST PUSH2 0xFDD DUP2 PUSH2 0xFCA JUMP JUMPDEST DUP2 EQ PUSH2 0xFE8 JUMPI PUSH1 0x0 DUP1 REVERT JUMPDEST POP JUMP JUMPDEST PUSH1 0x0 DUP2 CALLDATALOAD SWAP1 POP PUSH2 0xFFA DUP2 PUSH2 0xFD4 JUMP JUMPDEST SWAP3 SWAP2 POP POP JUMP JUMPDEST PUSH1 0x0 PUSH1 0x20 DUP3 DUP5 SUB SLT ISZERO PUSH2 0x1016 JUMPI PUSH2 0x1015 PUSH2 0xFC5 JUMP JUMPDEST JUMPDEST PUSH1 0x0 PUSH2 0x1024 DUP5 DUP3 DUP6 ADD PUSH2 0xFEB JUMP JUMPDEST SWAP2 POP POP SWAP3 SWAP2 POP POP JUMP JUMPDEST PUSH2 0x1036 DUP2 PUSH2 0xFCA JUMP JUMPDEST DUP3 MSTORE POP POP JUMP JUMPDEST PUSH1 0x0 PUSH1 0x40 DUP3 ADD SWAP1 POP PUSH2 0x1051 PUSH1 0x0 DUP4 ADD DUP6 PUSH2 0x102D JUMP JUMPDEST PUSH2 0x105E PUSH1 0x20 DUP4 ADD DUP5 PUSH2 0x102D JUMP JUMPDEST SWAP4 SWAP3 POP POP POP JUMP JUMPDEST PUSH1 0x0 PUSH1 0x20 DUP3 ADD SWAP1 POP PUSH2 0x107A PUSH1 0x0 DUP4 ADD DUP5 PUSH2 0x102D JUMP JUMPDEST SWAP3 SWAP2 POP POP JUMP JUMPDEST PUSH1 0x0 PUSH20 0xFFFFFFFFFFFFFFFFFFFFFFFFFFFFFFFFFFFFFFFF DUP3 AND SWAP1 POP SWAP2 SWAP1 POP JUMP JUMPDEST PUSH1 0x0 PUSH2 0x10AB DUP3 PUSH2 0x1080 JUMP JUMPDEST SWAP1 POP SWAP2 SWAP1 POP JUMP JUMPDEST PUSH2 0x10BB DUP2 PUSH2 0x10A0 JUMP JUMPDEST DUP2 EQ PUSH2 0x10C6 JUMPI PUSH1 0x0 DUP1 REVERT JUMPDEST POP JUMP JUMPDEST PUSH1 0x0 DUP2 CALLDATALOAD SWAP1 POP PUSH2 0x10D8 DUP2 PUSH2 0x10B2 JUMP JUMPDEST SWAP3 SWAP2 POP POP JUMP JUMPDEST PUSH1 0x0 PUSH1 0x20 DUP3 DUP5 SUB SLT ISZERO PUSH2 0x10F4 JUMPI PUSH2 0x10F3 PUSH2 0xFC5 JUMP JUMPDEST JUMPDEST PUSH1 0x0 PUSH2 0x1102 DUP5 DUP3 DUP6 ADD PUSH2 0x10C9 JUMP JUMPDEST SWAP2 POP POP SWAP3 SWAP2 POP POP JUMP JUMPDEST PUSH1 0x0 DUP2 SWAP1 POP SWAP2 SWAP1 POP JUMP JUMPDEST PUSH1 0x0 PUSH2 0x1130 PUSH2 0x112B PUSH2 0x1126 DUP5 PUSH2 0x1080 JUMP JUMPDEST PUSH2 0x110B JUMP JUMPDEST PUSH2 0x1080 JUMP JUMPDEST SWAP1 POP SWAP2 SWAP1 POP JUMP JUMPDEST PUSH1 0x0 PUSH2 0x1142 DUP3 PUSH2 0x1115 JUMP JUMPDEST SWAP1 POP SWAP2 SWAP1 POP JUMP JUMPDEST PUSH1 0x0 PUSH2 0x1154 DUP3 PUSH2 0x1137 JUMP JUMPDEST SWAP1 POP SWAP2 SWAP1 POP JUMP JUMPDEST PUSH2 0x1164 DUP2 PUSH2 0x1149 JUMP JUMPDEST DUP3 MSTORE POP POP JUMP JUMPDEST PUSH1 0x0 PUSH1 0x20 DUP3 ADD SWAP1 POP PUSH2 0x117F PUSH1 0x0 DUP4 ADD DUP5 PUSH2 0x115B JUMP JUMPDEST SWAP3 SWAP2 POP POP JUMP JUMPDEST PUSH32 0x4E487B7100000000000000000000000000000000000000000000000000000000 PUSH1 0x0 MSTORE PUSH1 0x11 PUSH1 0x4 MSTORE PUSH1 0x24 PUSH1 0x0 REVERT JUMPDEST PUSH1 0x0 PUSH2 0x11BF DUP3 PUSH2 0xFCA JUMP JUMPDEST SWAP2 POP PUSH2 0x11CA DUP4 PUSH2 0xFCA JUMP JUMPDEST SWAP3 POP DUP3 DUP3 MUL PUSH2 0x11D8 DUP2 PUSH2 0xFCA JUMP JUMPDEST SWAP2 POP DUP3 DUP3 DIV DUP5 EQ DUP4 ISZERO OR PUSH2 0x11EF JUMPI PUSH2 0x11EE PUSH2 0x1185 JUMP JUMPDEST JUMPDEST POP SWAP3 SWAP2 POP POP JUMP JUMPDEST PUSH32 0x4E487B7100000000000000000000000000000000000000000000000000000000 PUSH1 0x0 MSTORE PUSH1 0x12 PUSH1 0x4 MSTORE PUSH1 0x24 PUSH1 0x0 REVERT JUMPDEST PUSH1 0x0 PUSH2 0x1230 DUP3 PUSH2 0xFCA JUMP JUMPDEST SWAP2 POP PUSH2 0x123B DUP4 PUSH2 0xFCA JUMP JUMPDEST SWAP3 POP DUP3 PUSH2 0x124B JUMPI PUSH2 0x124A PUSH2 0x11F6 JUMP JUMPDEST JUMPDEST DUP3 DUP3 DIV SWAP1 POP SWAP3 SWAP2 POP POP JUMP JUMPDEST PUSH1 0x0 DUP3 DUP3 MSTORE PUSH1 0x20 DUP3 ADD SWAP1 POP SWAP3 SWAP2 POP POP JUMP JUMPDEST PUSH32 0x43616E27742067697665207570206D6F7265206C697175696469747920706F73 PUSH1 0x0 DUP3 ADD MSTORE PUSH32 0x6974696F6E73207468616E20796F75206F776E00000000000000000000000000 PUSH1 0x20 DUP3 ADD MSTORE POP JUMP JUMPDEST PUSH1 0x0 PUSH2 0x12C3 PUSH1 0x33 DUP4 PUSH2 0x1256 JUMP JUMPDEST SWAP2 POP PUSH2 0x12CE DUP3 PUSH2 0x1267 JUMP JUMPDEST PUSH1 0x40 DUP3 ADD SWAP1 POP SWAP2 SWAP1 POP JUMP JUMPDEST PUSH1 0x0 PUSH1 0x20 DUP3 ADD SWAP1 POP DUP2 DUP2 SUB PUSH1 0x0 DUP4 ADD MSTORE PUSH2 0x12F2 DUP2 PUSH2 0x12B6 JUMP JUMPDEST SWAP1 POP SWAP2 SWAP1 POP JUMP JUMPDEST PUSH32 0x43616E2774206769766520757020616C6C20746865206C697175696469747920 PUSH1 0x0 DUP3 ADD MSTORE PUSH32 0x706F736974696F6E7320696E2074686520706F6F6C0000000000000000000000 PUSH1 0x20 DUP3 ADD MSTORE POP JUMP JUMPDEST PUSH1 0x0 PUSH2 0x1355 PUSH1 0x35 DUP4 PUSH2 0x1256 JUMP JUMPDEST SWAP2 POP PUSH2 0x1360 DUP3 PUSH2 0x12F9 JUMP JUMPDEST PUSH1 0x40 DUP3 ADD SWAP1 POP SWAP2 SWAP1 POP JUMP JUMPDEST PUSH1 0x0 PUSH1 0x20 DUP3 ADD SWAP1 POP DUP2 DUP2 SUB PUSH1 0x0 DUP4 ADD MSTORE PUSH2 0x1384 DUP2 PUSH2 0x1348 JUMP JUMPDEST SWAP1 POP SWAP2 SWAP1 POP JUMP JUMPDEST PUSH1 0x0 PUSH2 0x1396 DUP3 PUSH2 0xFCA JUMP JUMPDEST SWAP2 POP PUSH2 0x13A1 DUP4 PUSH2 0xFCA JUMP JUMPDEST SWAP3 POP DUP3 DUP3 SUB SWAP1 POP DUP2 DUP2 GT ISZERO PUSH2 0x13B9 JUMPI PUSH2 0x13B8 PUSH2 0x1185 JUMP JUMPDEST JUMPDEST SWAP3 SWAP2 POP POP JUMP JUMPDEST PUSH2 0x13C8 DUP2 PUSH2 0x10A0 JUMP JUMPDEST DUP3 MSTORE POP POP JUMP JUMPDEST PUSH1 0x0 PUSH1 0x40 DUP3 ADD SWAP1 POP PUSH2 0x13E3 PUSH1 0x0 DUP4 ADD DUP6 PUSH2 0x13BF JUMP JUMPDEST PUSH2 0x13F0 PUSH1 0x20 DUP4 ADD DUP5 PUSH2 0x102D JUMP JUMPDEST SWAP4 SWAP3 POP POP POP JUMP JUMPDEST PUSH1 0x0 DUP2 ISZERO ISZERO SWAP1 POP SWAP2 SWAP1 POP JUMP JUMPDEST PUSH2 0x140C DUP2 PUSH2 0x13F7 JUMP JUMPDEST DUP2 EQ PUSH2 0x1417 JUMPI PUSH1 0x0 DUP1 REVERT JUMPDEST POP JUMP JUMPDEST PUSH1 0x0 DUP2 MLOAD SWAP1 POP PUSH2 0x1429 DUP2 PUSH2 0x1403 JUMP JUMPDEST SWAP3 SWAP2 POP POP JUMP JUMPDEST PUSH1 0x0 PUSH1 0x20 DUP3 DUP5 SUB SLT ISZERO PUSH2 0x1445 JUMPI PUSH2 0x1444 PUSH2 0xFC5 JUMP JUMPDEST JUMPDEST PUSH1 0x0 PUSH2 0x1453 DUP5 DUP3 DUP6 ADD PUSH2 0x141A JUMP JUMPDEST SWAP2 POP POP SWAP3 SWAP2 POP POP JUMP JUMPDEST PUSH1 0x0 DUP2 SWAP1 POP SWAP3 SWAP2 POP POP JUMP JUMPDEST POP JUMP JUMPDEST PUSH1 0x0 PUSH2 0x1477 PUSH1 0x0 DUP4 PUSH2 0x145C JUMP JUMPDEST SWAP2 POP PUSH2 0x1482 DUP3 PUSH2 0x1467 JUMP JUMPDEST PUSH1 0x0 DUP3 ADD SWAP1 POP SWAP2 SWAP1 POP JUMP JUMPDEST PUSH1 0x0 PUSH2 0x1498 DUP3 PUSH2 0x146A JUMP JUMPDEST SWAP2 POP DUP2 SWAP1 POP SWAP2 SWAP1 POP JUMP JUMPDEST PUSH32 0x6661696C656420746F2073656E64204574686572000000000000000000000000 PUSH1 0x0 DUP3 ADD MSTORE POP JUMP JUMPDEST PUSH1 0x0 PUSH2 0x14D8 PUSH1 0x14 DUP4 PUSH2 0x1256 JUMP JUMPDEST SWAP2 POP PUSH2 0x14E3 DUP3 PUSH2 0x14A2 JUMP JUMPDEST PUSH1 0x20 DUP3 ADD SWAP1 POP SWAP2 SWAP1 POP JUMP JUMPDEST PUSH1 0x0 PUSH1 0x20 DUP3 ADD SWAP1 POP DUP2 DUP2 SUB PUSH1 0x0 DUP4 ADD MSTORE PUSH2 0x1507 DUP2 PUSH2 0x14CB JUMP JUMPDEST SWAP1 POP SWAP2 SWAP1 POP JUMP JUMPDEST PUSH1 0x0 PUSH1 0x60 DUP3 ADD SWAP1 POP PUSH2 0x1523 PUSH1 0x0 DUP4 ADD DUP7 PUSH2 0x102D JUMP JUMPDEST PUSH2 0x1530 PUSH1 0x20 DUP4 ADD DUP6 PUSH2 0x102D JUMP JUMPDEST PUSH2 0x153D PUSH1 0x40 DUP4 ADD DUP5 PUSH2 0x102D JUMP JUMPDEST SWAP5 SWAP4 POP POP POP POP JUMP JUMPDEST PUSH32 0x636F6E74726163744552433230546F6B656E42616C616E6365203D2030000000 PUSH1 0x0 DUP3 ADD MSTORE POP JUMP JUMPDEST PUSH1 0x0 PUSH2 0x157B PUSH1 0x1D DUP4 PUSH2 0x1256 JUMP JUMPDEST SWAP2 POP PUSH2 0x1586 DUP3 PUSH2 0x1545 JUMP JUMPDEST PUSH1 0x20 DUP3 ADD SWAP1 POP SWAP2 SWAP1 POP JUMP JUMPDEST PUSH1 0x0 PUSH1 0x20 DUP3 ADD SWAP1 POP DUP2 DUP2 SUB PUSH1 0x0 DUP4 ADD MSTORE PUSH2 0x15AA DUP2 PUSH2 0x156E JUMP JUMPDEST SWAP1 POP SWAP2 SWAP1 POP JUMP JUMPDEST PUSH32 0x457468206D73672E76616C7565203D2030000000000000000000000000000000 PUSH1 0x0 DUP3 ADD MSTORE POP JUMP JUMPDEST PUSH1 0x0 PUSH2 0x15E7 PUSH1 0x11 DUP4 PUSH2 0x1256 JUMP JUMPDEST SWAP2 POP PUSH2 0x15F2 DUP3 PUSH2 0x15B1 JUMP JUMPDEST PUSH1 0x20 DUP3 ADD SWAP1 POP SWAP2 SWAP1 POP JUMP JUMPDEST PUSH1 0x0 PUSH1 0x20 DUP3 ADD SWAP1 POP DUP2 DUP2 SUB PUSH1 0x0 DUP4 ADD MSTORE PUSH2 0x1616 DUP2 PUSH2 0x15DA JUMP JUMPDEST SWAP1 POP SWAP2 SWAP1 POP JUMP JUMPDEST PUSH1 0x0 PUSH2 0x1628 DUP3 PUSH2 0xFCA JUMP JUMPDEST SWAP2 POP PUSH2 0x1633 DUP4 PUSH2 0xFCA JUMP JUMPDEST SWAP3 POP DUP3 DUP3 ADD SWAP1 POP DUP1 DUP3 GT ISZERO PUSH2 0x164B JUMPI PUSH2 0x164A PUSH2 0x1185 JUMP JUMPDEST JUMPDEST SWAP3 SWAP2 POP POP JUMP JUMPDEST PUSH32 0x4661696C656420746F2073656E64204574686572000000000000000000000000 PUSH1 0x0 DUP3 ADD MSTORE POP JUMP JUMPDEST PUSH1 0x0 PUSH2 0x1687 PUSH1 0x14 DUP4 PUSH2 0x1256 JUMP JUMPDEST SWAP2 POP PUSH2 0x1692 DUP3 PUSH2 0x1651 JUMP JUMPDEST PUSH1 0x20 DUP3 ADD SWAP1 POP SWAP2 SWAP1 POP JUMP JUMPDEST PUSH1 0x0 PUSH1 0x20 DUP3 ADD SWAP1 POP DUP2 DUP2 SUB PUSH1 0x0 DUP4 ADD MSTORE PUSH2 0x16B6 DUP2 PUSH2 0x167A JUMP JUMPDEST SWAP1 POP SWAP2 SWAP1 POP JUMP JUMPDEST PUSH1 0x0 PUSH1 0x60 DUP3 ADD SWAP1 POP PUSH2 0x16D2 PUSH1 0x0 DUP4 ADD DUP7 PUSH2 0x13BF JUMP JUMPDEST PUSH2 0x16DF PUSH1 0x20 DUP4 ADD DUP6 PUSH2 0x13BF JUMP JUMPDEST PUSH2 0x16EC PUSH1 0x40 DUP4 ADD DUP5 PUSH2 0x102D JUMP JUMPDEST SWAP5 SWAP4 POP POP POP POP JUMP JUMPDEST PUSH32 0x636F6E747261637445746842616C616E6365203D203000000000000000000000 PUSH1 0x0 DUP3 ADD MSTORE POP JUMP JUMPDEST PUSH1 0x0 PUSH2 0x172A PUSH1 0x16 DUP4 PUSH2 0x1256 JUMP JUMPDEST SWAP2 POP PUSH2 0x1735 DUP3 PUSH2 0x16F4 JUMP JUMPDEST PUSH1 0x20 DUP3 ADD SWAP1 POP SWAP2 SWAP1 POP JUMP JUMPDEST PUSH1 0x0 PUSH1 0x20 DUP3 ADD SWAP1 POP DUP2 DUP2 SUB PUSH1 0x0 DUP4 ADD MSTORE PUSH2 0x1759 DUP2 PUSH2 0x171D JUMP JUMPDEST SWAP1 POP SWAP2 SWAP1 POP JUMP INVALID LOG2 PUSH5 0x6970667358 0x22 SLT KECCAK256 0xE8 0xC1 MOD PUSH28 0x4C66D80ADF746797104FAC93D4B0F21B1DB5131DF49BBFD7252C15A9 PUSH5 0x736F6C6343 STOP ADDMOD AND STOP CALLER "
				},
				"gasEstimates": {
					"creation": {
						"codeDepositCost": "1207600",
						"executionCost": "infinite",
						"totalCost": "infinite"
					},
					"external": {
						"K()": "2474",
						"contractERC20TokenBalance()": "2518",
						"contractEthBalance()": "2474",
						"estimateERC20TokenToProvide(uint256)": "infinite",
						"estimateEthToProvide(uint256)": "infinite",
						"estimateSwapForERC20Token(uint256)": "infinite",
						"estimateSwapForEth(uint256)": "infinite",
						"getMyLiquidityPositions()": "2548",
						"liquidityPositions(address)": "2881",
						"provideLiquidity(uint256)": "infinite",
						"swapForERC20Token()": "infinite",
						"swapForEth(uint256)": "infinite",
						"token()": "infinite",
						"totalLiquidityPositions()": "2475",
						"withdrawLiquidity(uint256)": "infinite"
					},
					"internal": {
						"_updateBalances(uint256,uint256)": "infinite"
					}
				},
				"methodIdentifiers": {
					"K()": "a932492f",
					"contractERC20TokenBalance()": "c9691034",
					"contractEthBalance()": "5d58ce36",
					"estimateERC20TokenToProvide(uint256)": "ed7bf868",
					"estimateEthToProvide(uint256)": "240f3dea",
					"estimateSwapForERC20Token(uint256)": "79ed3562",
					"estimateSwapForEth(uint256)": "903875f7",
					"getMyLiquidityPositions()": "e0ba2000",
					"liquidityPositions(address)": "6fd0ea92",
					"provideLiquidity(uint256)": "eb521a4c",
					"swapForERC20Token()": "29cbab3e",
					"swapForEth(uint256)": "c8ab8325",
					"token()": "fc0c546a",
					"totalLiquidityPositions()": "1cde6226",
					"withdrawLiquidity(uint256)": "0a861f2a"
				}
			},
			"storageLayout": {
				"storage": [
					{
						"astId": 85,
						"contract": "Exchange.sol:Exchange",
						"label": "contractERC20TokenBalance",
						"offset": 0,
						"slot": "0",
						"type": "t_uint256"
					},
					{
						"astId": 87,
						"contract": "Exchange.sol:Exchange",
						"label": "contractEthBalance",
						"offset": 0,
						"slot": "1",
						"type": "t_uint256"
					},
					{
						"astId": 89,
						"contract": "Exchange.sol:Exchange",
						"label": "totalLiquidityPositions",
						"offset": 0,
						"slot": "2",
						"type": "t_uint256"
					},
					{
						"astId": 93,
						"contract": "Exchange.sol:Exchange",
						"label": "liquidityPositions",
						"offset": 0,
						"slot": "3",
						"type": "t_mapping(t_address,t_uint256)"
					},
					{
						"astId": 95,
						"contract": "Exchange.sol:Exchange",
						"label": "K",
						"offset": 0,
						"slot": "4",
						"type": "t_uint256"
					}
				],
				"types": {
					"t_address": {
						"encoding": "inplace",
						"label": "address",
						"numberOfBytes": "20"
					},
					"t_mapping(t_address,t_uint256)": {
						"encoding": "mapping",
						"key": "t_address",
						"label": "mapping(address => uint256)",
						"numberOfBytes": "32",
						"value": "t_uint256"
					},
					"t_uint256": {
						"encoding": "inplace",
						"label": "uint256",
						"numberOfBytes": "32"
					}
				}
			},
			"userdoc": {
				"kind": "user",
				"methods": {},
				"version": 1
			}
		}
	}
}